:020000040800F2
:10000000000002207D490008E5480008E748000894
:10001000E9480008EB480008ED480008000000002F
:10002000000000000000000000000000E1300008B7
:10003000EF4800080000000081310008F148000886
:10004000CD490008CD490008CD490008CD49000838
:10005000CD490008CD490008CD490008CD49000828
:10006000CD490008CD490008CD490008CD49000818
:10007000CD490008CD490008CD490008CD49000808
:10008000CD490008CD490008CD490008CD490008F8
:10009000CD490008CD490008CD490008CD490008E8
:1000A000CD490008F5480008CD490008CD490008B1
:1000B000CD490008CD490008CD490008CD490008C8
:1000C000CD490008CD490008CD490008CD490008B8
:1000D000CD490008CD490008CD490008CD490008A8
:1000E00001490008CD49000800000000CD49000882
:1000F000CD490008CD490008CD490008CD49000888
:10010000CD490008CD490008CD490008CD49000877
:10011000CD490008CD490008CD490008CD49000867
:10012000CD490008CD490008CD490008CD49000857
:10013000CD490008CD490008CD490008CD49000847
:1001400000000000000000000000000000000000AF
:10015000CD490008CD490008CD490008CD49000827
:10016000CD490008CD490008CD490008CD49000817
:10017000CD490008CD490008CD4900080000000025
:10018000CD490008CD490008CD490008CD490008F7
:10019000CD490008CD490008CD490008CD490008E7
:1001A000CD490008CD490008CD490008CD490008D7
:1001B000CD490008CD490008CD490008CD490008C7
:1001C000CD490008CD490008CD490008CD490008B7
:1001D000CD490008CD490008CD490008CD490008A7
:1001E000CD490008CD490008CD490008CD49000897
:1001F000CD490008CD490008CD490008CD49000887
:10020000CD490008CD490008CD490008CD49000876
:10021000CD490008CD490008CD490008CD49000866
:10022000CD490008CD490008CD4900080000000074
:10023000CD490008CD49000800000000CD49000864
:10024000CD490008CD490008CD490008CD49000836
:10025000CD490008CD490008CD490008CD49000826
:10026000CD490008CD490008CD490008CD49000816
:10027000CD490008CD490008CD4900080000000024
:10028000CD49000800000000CD4900080000000032
:0802900000000000CD49000848
:1002A00010B5054C237833B9044B13B10448AFF3B0
:1002B00000800123237010BD040100200000000015
:1002C000E84A000808B5034B1BB103490348AFF3E4
:1002D000008008BD0000000008010020E84A000876
:1002E00003685A004CBF43F0004323F00043184416
:1002F000704700BF61B32DE9F84F01F1FF3A904616
:100300000646D146002707EB090404EBD4746410B9
:10031000E50071190846FFF7E3FFA245834605F1A2
:100320000800304409D0FFF7DBFFC34500F1FF3080
:1003300005D8404509D2671CE5E7C34505D9A74262
:1003400002D004F1FF39DEE700210846BDE8F88F4E
:1003500008467047012807D0022807D0044B002820
:100360000CBF18460020704702487047024870478B
:10037000590A00085D0A0008610A000830B5244BDC
:1003800083B004468D1E7BB301A92846AFF30080DD
:1003900020B301992A46FFF7ADFF0146F0B1FFF700
:1003A0009FFF4B68A064012B12D0002B01F10400C9
:1003B00020DBFFF795FF0023E06423650368002B33
:1003C0001CDBFFF78DFF00232061184603B030BD12
:1003D000002323610523184603B030BD00232361A9
:1003E0000923184603B030BD0A490B48091AC91041
:1003F0000191CFE70123E0642365DFE7C3F30360E6
:10040000FFF7A8FF0028206114BF00230923DCE7C1
:100410000000000048550008305400080368DA075F
:1004200010B5044606D49B0700F1480009D500F03A
:1004300051FC2368590709D51A070ED5DB0613D5D9
:1004400010BD00F03FFC23685907F5D404F1D0003B
:1004500000F048FC23681A07F0D404F5A87000F0F7
:1004600049FC2368DB06EBD404F5E870BDE81040D6
:1004700000F084BC036803B103441846704700BF12
:1004800009207047704700BF70B504460D4608E06C
:100490002B6C63612A46236921460120984708286E
:1004A00008D1296C2046FFF769FF06460028EFD0E7
:1004B00004F0BDFA0728FBD13046296CFFF7E2FFB4
:1004C000281D00F0F3FB00BF2DE9F0470C1D054689
:1004D00092460FCCADF5727D03AE0FC60FCC0FC6A2
:1004E0000FCC0FC694E80F0002ACD5F80C80D5F8FD
:1004F000189086E80F0000232846216C2360FFF740
:100500003DFFBAF1000F074614BF0A2609267FB146
:10051000A36B46F010018DE810022A4663640120A7
:100520002B46C04778BB38460DF5727DBDE8F08795
:10053000236C6B614FF4F07221467AA804F06CFAD8
:100540002B697AAA294630469847889B82468DE8CF
:100550001002314663642A462B460120C04790B9F9
:100560004FF4F0727AA9204604F056FABAF1080F57
:1005700006D1216C2846FFF701FF09260746C6E78A
:10058000BAF1070F05D0092738460DF5727DBDE891
:10059000F0873846216CFFF775FF03A800F086FB53
:1005A000406C7047F0B5CB6B0B640E1D0F460446D4
:1005B0000FCEF9B001AD0FC50FCE0FC50FCE0FC5D1
:1005C00096E80F004FF0FF3685E80F00009606E032
:1005D00023696A46214698470828054608D110999C
:1005E0002046FFF7CBFE0028F2D0092079B0F0BDFD
:1005F0006846FFF713FF062DF7D139462046FFF76F
:1006000043FF00BF30B4DD6BC160826119461D64D9
:10061000002230BC58E700BF70B5C66843690B6460
:1006200026B10122FFF750FF04F001FA03690A46E0
:1006300004460D46014602209847072807D008289F
:1006400003D129462046FFF71FFF04F0F0F930469A
:10065000296CFFF717FF281D00F028FBC2681AB1AC
:10066000CA6B0A6400222FE79CE700BF704700BFF7
:10067000836813B1014601201847704700B504296B
:1006800007D8DFE801F00309060909000BB90F2AB2
:1006900005D902205DF804FB01205DF804FB00EBA6
:1006A000820218465368019A13605DF804FB00BF8C
:1006B00010B584B0002303AC0A4600941946FFF736
:1006C000DDFF039804B010BD00B5042907D8DFE8AA
:1006D00001F00309060909000BB90F2A05D9022008
:1006E0005DF804FB01205DF804FB019900EB820238
:1006F0000968516018465DF804FB00BF10B584B06E
:1007000004AC002344F8042D0A4600941946FFF770
:10071000DBFF04B010BD00BFF0B5D36B1364151D33
:1007200007460E460FCDADF50F7D17AC0FC40FCDAC
:100730000FC40FCD0FC495E80F004FF0FF3584E8CC
:100740000F00169510E016A8FFF7D8FF314616A83F
:10075000B84716AA694678B9049B08209847052827
:1007600004460AD0092807D026996846FFF706FEF6
:100770006A460C210028E6D0092416A8FFF74EFE91
:1007800020460DF50F7DF0BD2DE9F04F0D46C96CEB
:100790008BB00C1D096807919146089400F0030B7B
:1007A0001E46002B60D10902032307918DF82560B6
:1007B0008DF824302B6DBBF1020F08BFAC6B13F02A
:1007C000010340D1019300F008030393D4F80080A3
:1007D000B8F1000F39D0022E43D0B4F800806788FA
:1007E0000434AB6C27F0010A0F2148469A44FFF706
:1007F0005FFF824533D828F001039A4450452CBF4F
:10080000002001207F0007F0020708F0010847EAF6
:100810000807012F3ED035D3022F1CD1236823F0C7
:1008200000420292BBF1000F76D128B10399002952
:100830007ED0002A00F0A680002B77DB029B0133DC
:1008400004EB8304C2E700230193022E3EDDFFF791
:1008500017FE002840D009200BB0BDE8F08F002023
:10086000D0E767680834BCE7022BA3DC0B0CDAB2D4
:1008700009048DF82530022304EB820407918DF8DA
:10088000243097E7BBF1000F02D0002840F0BD8074
:1008900004349BE7BBF1000F25D1A8B194E80C000C
:1008A000991C4FEAD272D6D005F158010133069156
:1008B00000F0A380201DFFF7DDFD06AB01462846B2
:1008C000AFF30080002877D108347FE707A94846B6
:1008D00000F0EEFA0028BED1019B002B5CD108206D
:1008E0000BB0BDE8F08F0D2148462F6AFFF7E0FE00
:1008F0008742E9D1AB6A9C42E6D12046FFF7F0FC83
:100900000F2102464846FFF7F9FE48462A460021D5
:10091000FFF7F4FE07209FE70D2148462F6AFFF7F7
:10092000C7FE874258D02368002B87DA043485E756
:10093000029B3BB305F15803271DCDF810B0DDF83D
:100940000C80DDF808A00596A3461C4602E0B245DF
:10095000B04616D038460694FFF78CFD06AB01462C
:1009600000222846AFF3008008F101060437002872
:10097000EDD0029B059E43455C46DDF810B0D2D118
:1009800000E05C4648460D21FFF792FE069B286278
:10099000AC626B6206205FE70F214846FFF788FED6
:1009A0000E2102464846FFF7A9FE4846294A0F2174
:1009B000FFF7A4FE07204FE707460D214846FFF743
:1009C00077FE022F28621DD12B46069A43F82C2F62
:1009D0006B62AC6206203FE7AB6A9C42A3D1042263
:1009E0000027A3180299A962EF622A636B63236848
:1009F000BB421DDB0123019320E748460D21FFF791
:100A000057FE2862069B6B62E3E72046FFF768FC0F
:100A100004340646AC632846AFF3008000283FF458
:100A20001AAF484632460F21FFF768FE072013E74A
:100A30000846013004EB8000FFF752FC0F2102460C
:100A40004846FFF75BFE48462A463946FFF756FE02
:100A5000072001E700000000002395E6012393E64C
:100A6000022391E6F0B50446C5B004290DD8DFE8AD
:100A700001F053030C310F00012B4FEA124695B2DF
:100A800062D17219102A40F29B80022045B0F0BD5D
:100A9000002BFAD1102AF8D82368D80600F1C680B6
:100AA00022AE3046019200F073F9A06B019A002348
:100AB000012505FA03F1114203D0016846F823101D
:100AC00004300133042BF4D1A063304600F056F912
:100AD0000020DBE7032BD8D1150C97B2EB19102BB4
:100AE000D3D823681E0700F1B58022AE304600F04F
:100AF00023F9ED00A36B4FB1043D711903EBC7005F
:100B000053F8042B41F8042F8342F9D13046A363F4
:100B100000F0F0F80020B9E7002BB6D1A56B97B232
:100B2000201D012606FA03F1394203F1010302D028
:100B3000296801600435102B00F10400F2D112F491
:100B400000503BD1A563A1E7052B9ED17719202F3B
:100B50009BD80F2E66D92F46002D3AD12A46002762
:100B6000002AA06B72DD00EBC202014644A800EB34
:100B7000C6008C3851F8045B40F8045F9142F9D10B
:100B8000084697B1102E324644A938BF102201EB17
:100B9000C202A2F5C4727900043A00EB810150F858
:100BA000045B42F8045F8842F9D1012B48D00F2E34
:100BB000A16333D917B102A800F094F8002065E7CB
:100BC0000F2E3FF662AF00272268D10717D4002FFF
:100BD00060D02268510745D4012B4DD00F2E06D886
:100BE00022A8019300F07AF8019B002FB6D002A84A
:100BF000019300F07BF8019BC6F11002B0E722F0F0
:100C00000101052B2160019320463BD022F0030215
:100C100040F8482B00F05AF8019BD8E722A800F0D2
:100C200059F8C7E7102FCED9103FCDE723F01003B6
:100C3000236004F5E870019200F0AAF8019A2FE70A
:100C40000431A16322A800F03DF8B7E7002F99D145
:100C50000146AAE723F00803236004F5A87000F01A
:100C60006BF842E7204622F0040240F8D02B0193B3
:100C700000F03CF8019BAFE722A8019300F026F8B2
:100C8000019BB9E741F0020140F8481B00F026F84B
:100C9000019B9CE7012B03D00F2E3FF65FAF9FE730
:100CA00022A8019300F012F8019B57E700F13401EC
:100CB00091E838009C46A6464CF8045D90E8FF0F8A
:100CC000E54600BD90EC210B704700BF80EC210B86
:100CD000704700BF90EC200B704700BF80EC200BEA
:100CE000704700BFD0EC200B704700BFC0EC200B5A
:100CF000704700BFF0EC0201F0EC0211F0EC0221B1
:100D0000F0EC0231F0EC0241F0EC0251F0EC026147
:100D1000F0EC0271F0EC0281F0EC0291F0EC02A137
:100D2000F0EC02B1F0EC02C1F0EC02D1F0EC02E127
:100D3000F0EC02F1704700BFE0EC0201E0EC0211C0
:100D4000E0EC0221E0EC0231E0EC0241E0EC025187
:100D5000E0EC0261E0EC0271E0EC0281E0EC029177
:100D6000E0EC02A1E0EC02B1E0EC02C1E0EC02D167
:100D7000E0EC02E1E0EC02F1704700BFB0FC018161
:100D8000B0FC0191B0FC01A1B0FC01B1704700BF03
:100D9000A0FC0181A0FC0191A0FC01A1A0FC01B17B
:100DA000704700BFEC4600B52DE900502DE9FF1F4C
:100DB0004FF000032DE90C0001A9FFF7F3FBDDF86C
:100DC00040E012B0704700BFEC4600B52DE900507E
:100DD0002DE9FF1F4FF000032DE90C0001A9FFF7DB
:100DE0001BFCDDF840E012B0704700BFEC4600B5D8
:100DF0002DE900502DE9FF1F4FF000032DE90C00F5
:100E000001A9FFF72BFCDDF840E012B0704700BFEE
:100E1000EC4600B52DE900502DE9FF1F4FF000030F
:100E20002DE90C0001ABFFF7EDFBDDF840E012B05F
:100E3000704700BFEC4600B52DE900502DE9FF1FBB
:100E40004FF000032DE90C0001AAFFF765FCDDF867
:100E500040E012B0704700BF027A1AB9437A43B932
:100E6000B02070470368013A02721A020260180E3D
:100E700070474268013B10B4437213680321141D8C
:100E800001721A02446002605DF8044B180E70474C
:100E900000B585B003AA0023009219460C22FFF783
:100EA000EDFB039805B05DF804FB00BFF0E700BF61
:100EB0002DE9F043064685B00F464FF0000838464E
:100EC000FFF7CAFFB028044623D0050627D4002325
:100ED0000DF10C09194685000D22CDF80090304621
:100EE000FFF7CCFBEDB2039BCDF80090600605F157
:100EF00004054CBF5D1BED18002319460D2230463A
:100F00000395FFF7E1FB3846FFF7A6FFB02804463C
:100F1000DBD1B8F1000F00F0958000201CE000F05C
:100F2000F003802B5DD0902B19D0A02B2CD0B02BB0
:100F30003FD0C02B6CD000F0F803D02B0BD100F0C9
:100F40000702013242F40022052301213046FFF757
:100F500089FD0028B3D0092005B0BDE8F08300F07A
:100F60000D030D2BF7D003AD002300F00F0219463F
:100F700000953046FFF782FB0023009519460D22AD
:100F80003046FFF7A1FB9AE7C24302F007034FF494
:100F90007F621A41010702F47F624FF0000348BFED
:100FA00042F4804219463046FFF75CFD0028D2D15A
:100FB00085E7B12857D0B22868D0B32800F09580D3
:100FC00000F0FC03B42BC6D000F00702013201236D
:100FD00042F4002219463046FFF744FD0028BAD1FA
:100FE0006DE73846FFF738FF24020443B4F5004F9D
:100FF000B1D024010023A2B219463046FFF732FDDA
:101000000028A8D114F4004F18BF4FF0010856E78C
:10101000C6287DD0C72800F0868000F0F803C02BDA
:1010200000F09480C82800F09F80C92893D13846EA
:10103000FFF712FF020300F00F0002F470220130EC
:10104000024381E703AC43460E22414600943046FA
:10105000FFF714FB0094304643460F224146FFF74A
:1010600033FB404678E73846FFF7F6FE00283FF4AA
:1010700072AF10F0F0037FF46EAF024619463046AF
:10108000FFF7F0FC00287FF466AF18E700230DF1AE
:101090000C090D221946CDF800903046FFF7EEFA04
:1010A0003846FFF7D9FE02064FF002040CD5039B29
:1010B00000F07F00A040034438460393FFF7CCFEC6
:1010C000030604F10704F2D4039BCDF8009000F06E
:1010D0007F02A24003F501740023144419460D2237
:1010E00030460394FFF7F0FAE9E63846FFF7B4FE1E
:1010F000010300F00F0001F47021421C01230A4398
:1011000030461946FFF7AEFC00287FF424AFD6E640
:101110003846FFF7A1FE010300F00F0001F4702133
:10112000421C0323EBE73846FFF796FE00283FF406
:1011300012AF10F0F0037FF40EAF024604213046E8
:10114000FFF790FC00287FF406AFB8E600F00F022E
:101150000132032342F4202219463046FFF782FC75
:1011600000287FF4F8AEAAE63846FFF775FE00F0D7
:10117000F00200F00F031032013343EA0232E3E6DB
:1011800010B5C36C84B05A6803208DF80C00DC796C
:101190008DF80D4012020833084601A9019202930E
:1011A000FFF786FE04B010BD08B5FFF77FFE806C28
:1011B00008BD00BF08B5FFF779FEC06CC37900EB2E
:1011C0008300083008BD00BF08B503F030FC00BF45
:1011D00008B5FFF7F9FF00BF10B5032000F030F8A5
:1011E000002003F041FB044618B903F0FDFA204645
:1011F00010BD0124FBE70000034A044B11681B7873
:101200000B441360704700BF8801002000000020DD
:10121000014B1868704700BF8801002038B50446AC
:10122000FFF7F6FF0546631C1EBF044B1B78E4184E
:10123000FFF7EEFF401B8442FAD838BD00000020C3
:10124000074A0002D36800F4E06023F4E0631B0463
:101250001B0C43F0BF6343F400330343D360704778
:1012600000ED00E0194B30B5DC68C4F30224C4F192
:101270000703251D042B28BF0423062D4FF001056D
:101280008CBF033C002405FA03F3002803F1FF336D
:1012900001EA030101FA04F105FA04F404F1FF3450
:1012A00002EA040242EA01024FEA021207DB00F1FD
:1012B0006040D2B200F5614080F8002330BD00F0FC
:1012C0000F00D2B2024B1A5430BD00BF00ED00E057
:1012D00014ED00E0002808DB4209012300F01F00A4
:1012E00003FA00F0014B43F82200704700E100E0F0
:1012F0000138B0F1807F0AD2064BF021064A5860CF
:10130000002082F82310072298601A60704701209D
:10131000704700BF10E000E000ED00E0044B04283F
:101320001A680CBF42F0040222F004021A607047EF
:1013300010E000E02DE9F04F0B6885B0DFF8C081C8
:101340004FF0B04901930023DFF8B8C10127019A9B
:101350009F4007EA0205AF4240F0B7804A6822F09A
:101360001006022E16D14FEAD30A03F0070B4FF0F6
:101370000F0E00EB8A0A4FEA8B0BDAF820400EFAC8
:101380000BFE24EA0E0E0C6904FA0BF444EA0E0478
:10139000CAF820404FEA430A0324D0F800B002F014
:1013A000030E04FA0AF4013E0EFA0AFEE443012E8B
:1013B0000BEA040B4EEA0B0EC0F800E010D886686A
:1013C00006EA040BCE6806FA0AFE4EEA0B068660B1
:1013D000466826EA0707C2F300169E403743476077
:1013E000C66834408E6806FA0AF63443C460D400F6
:1013F0006BD5D8F8F44023F0030603F003074FF051
:101400000F0E44F0020406F1B046BF00C8F8F440E5
:1014100006F58066D8F8F44004F002040394039CB7
:101420000EFA07F4D6F808A02AEA040E334CA042BC
:1014300052D004F58064A04250D004F58064A042EC
:101440004ED004F58064A0424CD004F58064A042E4
:101450004AD004F58064A04248D004F58064A042DC
:1014600046D004F58064A04244D004F58064A042D4
:1014700042D004F58064A04214BF0A240924BC4071
:10148000D70344EA0E04B4606FEA0506DCF80040B6
:1014900054BF34402C439703CCF80040DCF80440A0
:1014A00054BF34402C43D7024FF0B047CCF804402F
:1014B000D9F8004054BF34402C4392023C607C6811
:1014C00054BF34402C43C9F804400133102B7FF43F
:1014D0003DAF05B0BDE8F08F0024D0E70124CEE792
:1014E0000224CCE70324CAE70424C8E70524C6E79E
:1014F0000624C4E70724C2E70824C0E70000025816
:1015000000440258800000580AB1018370474183AB
:101510007047000008B5044B9968014202D09860FA
:1015200002F03CFF08BD00BF8000005803689A69C4
:10153000910701D500229A629A69D20703D49A6969
:1015400042F001029A61704730B5039CC1F3090172
:1015500005682343640D686804F48064194344F00B
:101560007F7441EA024144F4583444F47F7444F0F7
:10157000030420EA04042143696030BD2DE9F041F1
:10158000069F0446884616461D462268936938EA37
:1015900003030CBF01230023B34202D00020BDE8A7
:1015A000F0816B1CF2D055B92023032084F8413020
:1015B000002384F8423084F84030BDE8F081FFF722
:1015C00027FEC01B8542E0D2EEE7036870B50446F3
:1015D00098690D46164610F0100012D170BD691CB6
:1015E00010D04DB92023032084F84130002384F823
:1015F000423084F8403070BDFFF70AFE801B854200
:10160000F0D3236899698A06E9D51022202520465F
:10161000DA61DD61FFF78AFF22680120536823F059
:10162000FF7323F48B3323F4FF7323F00103536020
:1016300004236364002384F8415084F8403084F824
:10164000423070BD70B504460D46164623689B694E
:101650009B0701D5002070BD324629462046FFF782
:10166000B4FFB0B96A1CF1D06DB9636C032043F0CC
:1016700020036364202384F84130002384F842303F
:1016800084F8403070BDFFF7C3FD801B8542DDD27A
:10169000EBE7012070BD0000F7B51F46174B04466D
:1016A000099E009315460023FAB2FFF74DFF32461C
:1016B00008992046FFF7C6FF28B1636C042B10D1B0
:1016C000012003B0F0BD012F23680CD1EDB2002240
:1016D000402120469D62089B0096FFF74FFF00289F
:1016E000EFD00320EDE72A0A089920469A62324695
:1016F000FFF7A8FF0028E0D12368E7E7002000807B
:1017000070B504460D46164623689B699B0601D5B5
:10171000002070BD324629462046FFF756FFA0B98B
:101720006DB9636C032043F020036364202384F8C5
:101730004130002384F8423084F8403070BDFFF718
:1017400067FD801B8542DFD2EBE7012070BD10B53D
:10175000044600284AD090F8413003F0FF021BB93C
:1017600080F8402002F09AFF2423E16884F8413099
:10177000012923681A6822F001021A60626822F0C7
:1017800070621A619A6822F400429A60A26824D1B9
:1017900042F400429A605A680020616942F0007287
:1017A00042F400425A60DA6822F40042DA602269A8
:1017B0000A43A16942EA0122216ADA60E2690A4326
:1017C0001A601A6842F001021A602023606484F8EB
:1017D0004130206384F8420010BD42F404420229E3
:1017E0009A60D8D14FF400625A60D4E7012010BD4E
:1017F0002DE9F04F9B4690F8413085B00446202BF0
:101800000F460392BDF83CA0DDF8409040F0A9805F
:101810000E9B1BB9012005B0BDE8F08FBAF1000F97
:10182000F8D090F84030012B00F09B80012580F823
:101830004050FFF7EDFC1923009006462A464FF46E
:1018400000412046FFF79AFE8046D0B9222360630C
:101850000196394684F841304023CDF8009084F851
:1018600042300E9B6064204663625B46A4F82AA067
:10187000039AFFF711FF30B1636C84F84080042BAA
:10188000C8D00320C7E7638D9BB2FF2B364B44D9EA
:10189000FF2200934FF08073228539462046FFF7E0
:1018A00053FE00964B46002204212046FFF766FEB9
:1018B0000028E6D1636A5A1C62622268526A1A7072
:1018C000228D638D013A013B92B29BB222856385E2
:1018D000BAB9638D9BB2A3B100964B4680212046D6
:1018E000FFF74CFE0028CCD1638D9BB2FF2B1CD997
:1018F000FF224FF080730090228539462046FFF783
:1019000023FE638D9BB2002BCBD132464946204645
:10191000FFF7F6FE88B1636CB1E7628D00934FF07C
:10192000007392B22285D2B2B7E7628D4FF0007396
:10193000009092B22285D2B2DFE723682021D961DC
:101940005A6822F0FF7222F48B3222F4FF7222F0E6
:1019500001025A6084F8411084F8400084F8420083
:1019600059E7022057E700BF0024008090F841208B
:10197000D2B2202A10B51DD190F84030012B19D0D9
:10198000242380F8413003681C6824F001041C60A3
:101990001C6824F480541C601C6821431960196879
:1019A00041F001011960002380F8412080F84030A7
:1019B000184610BD022010BD10B590F84140E4B2A9
:1019C000202C1CD190F84030012B18D0242380F813
:1019D000413003681A6822F001021A601A6822F482
:1019E000706242EA012119601A6842F001021A602D
:1019F000002380F8414080F84030184610BD022096
:101A000010BD0000F8B503680546D8075CD42B6804
:101A1000990700F1AF802B68D90625D5AC4B1A6920
:101A200002F03802082A0BD01A6902F03802182A8C
:101A300040F0F7809B6A03F00303012B40F0F18034
:101A4000A34B1A68D20502D5EA69802A53D1586897
:101A50004FF0F84292FAA2F2B2FA82F12A6A8A4070
:101A600020F0F8410A435A602B68190700F10B81F6
:101A70002B689A0600F130812B685C071ED5954CC7
:101A8000236843F480732360FFF7C2FB0646236894
:101A9000DA0540F14681AB688D4C012B40F048815E
:101AA000236F43F00103236741F28834FFF7B0FB53
:101AB000874E0746336F9B0740F160816A6A002AB0
:101AC00040F063810020F8BD814B1A6902F03802B2
:101AD000102A09D01A6902F03802182A0DD19B6A1F
:101AE00003F00303022B08D1794B1B689A038ED5B0
:101AF0006B68002B8BD10120F8BD6B68744CB3F57B
:101B0000803F12D1236843F480332360FFF780FBCA
:101B10006F4C064623689B033FF579AFFFF778FBD0
:101B2000801B6428F6D90320F8BDA3B9236823F4E9
:101B300080332360236823F480232360FFF768FB4E
:101B4000064623689F037FF562AFFFF761FB801BAA
:101B50006428F6D9E7E7B3F5A02F236803D143F44F
:101B600080232360CEE723F480332360236823F4AB
:101B70008023CAE7564BE9681A6912F0380F07D07C
:101B80001A6902F03802182A28D19B6A9C0725D1CD
:101B90004F4A1368580701D50029ACD013684C4C44
:101BA00023F019030B431360FFF732FB064623684B
:101BB0005B070DD561684FF47C3393FAA3F3B3FA56
:101BC00083F22B69934021F47C321343636022E754
:101BD000FFF71EFB801B0228E9D9A4E73C4C2368D1
:101BE00079B123F019030B432360FFF711FB06467D
:101BF00023685F07DED4FFF70BFB801B0228F7D9B1
:101C000091E723F001032360FFF702FB06462368F8
:101C100058077FF500AFFFF7FBFA801B0228F6D9C3
:101C200081E7EB692A4CEBB1236843F08003236022
:101C3000FFF7EEFA06462368DF050DD561684FF021
:101C4000F84393FAA3F3B3FA83F22B6A934021F09B
:101C5000F8421343636007E7FFF7DAFA801B0228B4
:101C6000E9D960E7236823F080032360FFF7D0FA07
:101C700006462368D8057FF5F7AEFFF7C9FA801B43
:101C80000228F6D94FE76B69114C83B1636F43F0BB
:101C900001036367FFF7BCFA0646636F9B073FF5D6
:101CA000E7AEFFF7B5FA801B0228F6D93BE7636F72
:101CB00023F001036367FFF7ABFA0646636F9F07E4
:101CC0007FF5D6AEFFF7A4FA801B0228F6D92AE7E3
:101CD0000044025800480258AB696E4C83B1236837
:101CE00043F480532360FFF793FA06462368980471
:101CF0003FF5C2AEFFF78CFA801B0228F6D912E737
:101D0000236823F480532360FFF782FA0646236892
:101D100099047FF5B1AEFFF77BFA801B0228F6D954
:101D200001E7FFF775FA801B64287FF6B0AEFAE68C
:101D3000B3B9236F41F2883723F001032367236F80
:101D400023F004032367FFF763FA0646236F98071F
:101D50007FF5B4AEFFF75CFA801BB842F6D9E2E635
:101D6000052B236F03D143F00403236798E623F088
:101D700001032367236F23F0040394E6FFF748FA77
:101D8000C01BA0427FF696AECDE6424C236903F01D
:101D90003803182B3FF4AFAE2368022A23F0807378
:101DA000236069D1FFF734FA0646236899015DD4B0
:101DB000A36AAA6A23F47C7323F003031343EA6A39
:101DC00043EA0213A3626B6BAA6B013B013A5B020D
:101DD00012049BB202F4FE0213432A6B013AC2F3CF
:101DE00008021343EA6B013A120602F0FE42134363
:101DF00023634FF6F873626B93FAA3F3B3FA83F19C
:101E000022F47F42AB6C22F0F8028B4013436363F1
:101E1000E36A2A6C23F00C031343E362E36A6A6CFF
:101E200023F002031343E362E36A43F48033E36283
:101E3000E36A43F40033E362E36A43F48023E3623A
:101E4000E36A43F00103E362236843F08073236095
:101E5000FFF7DEF90F4C054623689A013FF532AED5
:101E6000FFF7D6F9401B0228F6D95CE6FFF7D0F958
:101E7000801B022899D956E6FFF7CAF90546236860
:101E80009B017FF51FAEFFF7C3F9401B0228F6D96F
:101E900049E600BF00440258484B1A6902F0380274
:101EA000102A10B50ED0182A0ED0002A40F08480D7
:101EB0001A68434812F0200F7FD01B68C3F3C10398
:101EC000D84010BD3F4810BD9C6A986AD96A5A6BC9
:101ED000C0F3051001F00101DFED3B5AC2F3CC0263
:101EE000514304F0030207EE901A012AB8EEE76AA4
:101EF000F7EE007A02D00ED3022A4CD01B6B334A85
:101F0000C3F3080307EE103AB8EEC77AA6EE257AB7
:101F100037EE277A4BE01A6812F0200F284A26D0B5
:101F200019681B6BC1F3C101C3F30803CA40B2FBBC
:101F3000F0F207EE102AF8EEC76A07EE103AB8EE94
:101F4000C77AA6EE257A37EE277A66EE877A1B4B9C
:101F50001B6BC3F34623013307EE103AF8EEC76A52
:101F600087EEA67AFCEEC77A17EE900A10BD1B6BBF
:101F7000C3F3080307EE103AB8EEC77AB2FBF0F3EA
:101F8000A6EE257A37EE277A07EE903AF8EEE77A52
:101F900067EE277ADBE71B6B0A4AC3F3080307EEF9
:101FA000103AB8EEC77AA6EE257A37EE277AB2FB5A
:101FB000F0F207EE902AE9E7044810BD0044025809
:101FC0000090D00300127A000000003900093D00A3
:101FD000684A136803F007038B422DE9F041044679
:101FE0000D4642D3226897074CD4D60752D4614A93
:101FF000136803F007039D42C0F0A88022685507CC
:1020000000F1AF80100706D55B496069CB6923F00A
:1020100070030343CB61D10606D55749A069CB694C
:1020200023F4E0630343CB61930606D5524AE1698A
:10203000136A23F070030B431362FFF72DFF4E4B1F
:102040004FF480729B6992FAA2F2B2FA82F203F420
:102050007063D340494AD35CD840494B1860002094
:1020600002F002FC0020BDE8F081136823F00703B2
:102070000B431360136803F007039942B2D00120A9
:10208000BDE8F0813C49E0688B6923F00F0303430E
:102090008B61AAE7384BA1689A6922F470620A43FF
:1020A0009A6161681A6802291DD112F4003FE6D0D6
:1020B0001A6941F28838304F22F007020A431A6148
:1020C000FFF7A6F863680646022B19D13B6903F0B7
:1020D0003803102B8BD0FFF79BF8801B4045F5D9B8
:1020E0000320BDE8F081032902D112F0007FDEE772
:1020F000012902D112F4807FD9E712F0040FD6E74C
:10210000032B0BD13B6903F03803182B3FF46FAF5F
:10211000FFF77EF8801B4045F4D9E1E7012B10D191
:102120003B6903F03803082B3FF461AFFFF770F809
:10213000801B4045F4D9D3E7FFF76AF8801B404580
:10214000CED83B6913F0380FF6D150E7136823F06F
:1021500007032B431360136803F007039D428ED1DE
:102160004CE7054920698B6923F0700303438B61B9
:1021700048E700BF0020005200440258A653000860
:102180000800002008B500F093FD084B01229B6970
:1021900092FAA2F2B2FA82F203F00F03D340044A99
:1021A000D35CD840034B186008BD00BF0044025800
:1021B000A65300080C00002008B5FFF7E3FF074B0B
:1021C0004FF48072DB6992FAA2F2B2FA82F203F45F
:1021D000E063D340024AD35CD84008BD00440258B3
:1021E000A65300083F230360114B1A6902F007024F
:1021F00042609A6902F4706282609A6902F00F028A
:10220000C2609A6902F070020261DA6902F070023B
:102210004261DA6902F4E06282611B6A03F07003D2
:10222000C361044B1B6803F007030B60704700BFDA
:102230000044025800200052F8B5314C06460D46C5
:10224000A36A03F00303032B58D0236823F08063B1
:102250002360FEF7DDFF074623681A013AD4A36A1C
:10226000326823F47C3343EA0233A362B368F26832
:10227000013B013A5B0212049BB202F4FE021343DB
:102280007268013AC2F3080213433269013A120636
:1022900002F0FE421343A363E36A726923F0C003B2
:1022A0001343E362E36AB26923F020031343E3625A
:1022B000E36AB5B943F40023E362114C236843F0A9
:1022C00080632360FEF7A4FF054623681B010FD53A
:1022D0000020F8BDFEF79CFFC01B0228BCD90320DC
:1022E000F8BD012D0CBF43F4801343F40013E3E762
:1022F000FEF78EFF401B0228E7D9F0E70120F8BD6A
:1023000000440258F8B5314C06460D46A36A03F066
:102310000303032B58D0236823F080532360FEF778
:1023200077FF074623689A003AD4A36A326823F0FD
:102330007C7343EA0253A362B368F268013B013A3B
:102340005B0212049BB202F4FE0213437268013A6C
:10235000C2F3080213433269013A120602F0FE4248
:1023600013432364E36A726923F440631343E36213
:10237000E36AB26923F400731343E362E36AB5B915
:1023800043F48003E362114C236843F080532360DD
:10239000FEF73EFF054623689B000FD50020F8BDE1
:1023A000FEF736FFC01B0228BCD90320F8BD012D63
:1023B0000CBF43F4000343F08073E3E7FEF728FF0C
:1023C000401B0228E7D9F0E70120F8BD004402587D
:1023D0002DE9F8430468054614F0006014D06B6ED4
:1023E000B3F5801F18D002D883B101241BE0B3F5E8
:1023F000001F23D0B3F5401FF7D1A64A696E136DB5
:1024000023F440130B43136500240CE0A14AD36A64
:1024100043F40033D362F0E70221281DFFF70CFFDD
:1024200004460028E9D02B68DE053CD56B6D042BF3
:1024300034D8DFE803F009102D0E0E00022105F15B
:102440002400FFF75FFFEBE7924AD36A43F40033BF
:10245000D362264604E00021281DFFF7EDFE064664
:10246000EEB98C4A696D136D23F007030B431365B6
:102470002B68980527D5AB6D802B43D015D8002B42
:1024800034D0402B38D0012644EA0600C4B21AE00A
:10249000002105F12400FFF735FFE0E7012644EABB
:1024A0000600C4B2E4E72646E2E7C02B02D0B3F54B
:1024B000807FE8D1002EE7D1764AA96D136D23F411
:1024C000E0730B4313652B68590531D5D5F8A4305B
:1024D000B3F5800F4BD01BD8002B3CD0B3F5001FB9
:1024E0003FD0012644EA0600C4B221E0694AD36A1B
:1024F00043F40033D362DDE70021281DFFF79CFE83
:102500000646D7E7002105F12400FFF7FBFEF7E7B9
:10251000B3F5C00F02D0B3F5000FE2D1002EE1D128
:102520005C4AD5F8A410936D23F460030B439365C4
:102530002B681A0531D5D5F8A830B3F1007F45D006
:102540001BD8002B36D0B3F1807F39D0012644EA66
:102550000600C4B221E04F4AD36A43F40033D36289
:10256000DCE70021281DFFF767FE0646D6E70021BD
:1025700005F12400FFF7C6FEF7E7B3F1407F02D074
:10258000B3F1806FE2D1002EE1D1424AD5F8A81014
:10259000936D23F0E0630B4393652B689B0128D573
:1025A000AB6C102B37D017D8D3B1012644EA060004
:1025B000C4B21EE0374AD36A43F40033D362E2E781
:1025C0000021281DFFF738FE0646DCE7002105F153
:1025D0002400FFF797FEF7E7202B22D0302BE4D121
:1025E000002EE3D12B4AA96CD36C23F030030B43AC
:1025F000D3642B68DF0429D5EB6DB3F5005F42D0BF
:1026000015D8002B33D0B3F5805F36D0012644EACD
:102610000600C4B21AE01F4AD36A43F40033D362FF
:10262000DEE70221281DFFF707FE0646D8E7B3F5CF
:10263000405F02D0B3F5804FE8D1002EE7D1154AB4
:10264000E96D136D23F4E0430B4313652B68980485
:1026500034D52B6EB3F5003F48D01DD82BB3B3F55E
:10266000803F3DD0012644EA0600C4B226E0094A74
:10267000D36A43F40033D362DFE70021281DFFF75C
:10268000DBFD0646D9E7002105F12400FFF73AFEFD
:10269000F7E700BF00440258B3F5802F05D0B3F52B
:1026A000A02F02D0B3F5403FDCD1002EDBD1A04AF1
:1026B000296E136D23F4E0230B4313652B68590433
:1026C0002DD5D5F8AC30B3F1005F4CD014D8E3B1C0
:1026D000B3F1805F41D0012644EA0600C4B21EE097
:1026E0000121281DFFF7A8FD0646DEE7012105F1BF
:1026F0002400FFF707FEF7E7B3F1804F05D0B3F1F1
:10270000A04F02D0B3F1405FE5D1002EE4D1884A5A
:10271000D5F8AC10936D23F0E0430B4393652B6821
:102720001A040FD5EB6EB3F1805F22D0B3F1005FD6
:1027300025D053BB56BB7E4AE96E136D23F0405340
:102740000B4313652B68DB0132D56B6C032B00F256
:102750008A80DFE803F0241F82240121281DFFF76F
:102760006BFD0646D1E7012105F12400FFF7CAFD04
:10277000F7E76F4AD36A43F40033D362DAE7012103
:10278000281DFFF759FD0646D4E7012644EA060056
:10279000C4B2D7E7664AD36A43F40033D362002E4B
:1027A00062D1634A696CD36C23F003030B43D36497
:1027B0002B685F0242D55F4F3B6843F480733B60F8
:1027C000FEF726FD80463B68D80551D5002E56D130
:1027D000574BD5F8B0001A6F424012F4407F0BD02F
:1027E0001A6F196F22F4407241F480311967196F22
:1027F00021F4803119671A67B0F5807F08D1FEF7A0
:1028000007FD4B4F804641F288393B6F99073AD517
:10281000D5F8B030464903F44072B2F5407F3DD15F
:102820000869454A20F47C5002EA131202430A6107
:10283000C3F30B033E4A116F0B4313672B68DA0790
:102840003FD5AB6F102B4DD02CD88BB3082B43D07A
:10285000012644EA0600C4B233E00221281DFFF736
:10286000EBFC06469BE7012644EA0600C4B29FE75C
:10287000FEF7CEFCA0EB08006428A4D9032644EAA6
:102880000600C4B2DAE7FEF7C3FCA0EB0800484537
:10289000BBD944F003000326C4B2CFE70A6922F48F
:1028A0007C52C4E7202B03D0282B01D0182BCFD18A
:1028B000002ECED11E4AA96F536D23F038030B436F
:1028C00053652B689B0720D56B6F052B36D8DFE847
:1028D00003F0140F281414140121281DFFF7ACFC79
:1028E0000646E5E7012105F12400FFF70BFDF7E7B8
:1028F0000121281DFFF7A0FC064606BB0C4A696FA4
:10290000536D23F007030B4353652B685F0728D5EE
:10291000D5F89030052B3CD8DFE803F01A15351AAE
:102920001A1A012105F12400FFF7ECFCE4E700BFCF
:102930000044025800480258CFFFFF00012644EA35
:102940000600C4B2E1E70121281DFFF775FC064629
:1029500006BB994AD5F89010936D23F007030B43FB
:1029600093652B6898062CD5D5F88C30B3F1005FB1
:102970003FD013D8DBB1B3F1805F34D0012644EAF5
:102980000600C4B21DE0012105F12400FFF7BAFCE6
:10299000DDE7012644EA0600C4B2E2E7B3F1804F66
:1029A00005D0B3F1A04F02D0B3F1405FE6D1002EC5
:1029B000E5D1814AD5F88C10536D23F0E0430B43E9
:1029C00053652B6859062DD5D5F89830B3F5006FAF
:1029D00042D014D8E3B1B3F5806F37D0012644EA72
:1029E0000600C4B21EE00021281DFFF725FC0646A4
:1029F000DDE7022105F12400FFF784FCF7E7B3F5DA
:102A0000805F05D0B3F5A05F02D0B3F5406FE5D18C
:102A1000002EE4D1684AD5F89810936D23F4E05362
:102A20000B4393652B681A062FD5D5F89C30B3F568
:102A3000804F00F0958015D8EBB1B3F5005F00F042
:102A40008980012644EA0600C4B21EE00021281D48
:102A5000FFF7F2FB0646DBE7022105F12400FFF752
:102A600051FCF7E7B3F5004F05D0B3F5204F02D086
:102A7000B3F5C04FE5D1002EE4D14F4AD5F89C10F4
:102A8000936D23F460430B4393652B681B070BD5B1
:102A9000D5F88010B1F5805F68D1022105F12400DE
:102AA000FFF730FC0443E4B22B68DF060BD5D5F802
:102AB0009410B1F5807F60D1022105F12400FFF769
:102AC00021FC0443E4B22B68180317D5D5F8A010F5
:102AD000B1F5803F58D0B1F5003F05D0002959D15C
:102AE000281DFFF7A9FB0646002E54D1324AD5F81F
:102AF000A010936D23F440330B4393652B68590367
:102B000019D5D5F88430B3F5001F48D0B3F5401F70
:102B100007D0B3F5801F49D1274AD36A43F4003365
:102B2000D362002E43D1244AD5F88410536D23F488
:102B300040130B4353652B68DA034DD5EB6C002B28
:102B40003CD0B3F5803F00F09980012644EA0600AE
:102B5000C4B241E00021281DFFF76EFB06468AE75C
:102B6000022105F12400FFF7CDFBF7E7124A536D70
:102B700023F440530B43536596E70F4A936D23F4B8
:102B800040730B4393659EE7022105F12400FFF794
:102B9000B9FBA8E7012644EA0600C4B2AEE701216A
:102BA00005F12400FFF7AEFB0646BAE7012644EA2A
:102BB0000600C4B2BFE700BF004402583B4AD36AD4
:102BC00043F40033D362002EC0D1384AE96CD36C91
:102BD00023F480330B43D3642B689B0006D502217A
:102BE00005F12400FFF78EFB0443E4B22B689F033A
:102BF0000ED5E96FB1F5807F51D045D8002949D174
:102C0000002E48D12948426D22F440720A434265A1
:102C1000DE0206D52549286F0A6D22F000420243E4
:102C20000A65D80007D52149D5F8B4000A6922F40D
:102C3000804202430A61990206D51C49A86E0A6DBA
:102C400022F0807202430A655A0009D5174A1169B9
:102C500021F4004111611169D5F8B80001431161F7
:102C6000002B06DA114A296DD36C23F040530B4335
:102C7000D364201C18BF0120BDE8F8830221281D61
:102C8000FFF7DAFA06469EE7B1F5007FB8D0B1F556
:102C9000407FB5D0012644EA0600C4B2B8E7034835
:102CA000C26A42F40032C262AAE700BF004402587E
:102CB00008B5FFF7F1F8084B4FF480729B6992FA60
:102CC000A2F2B2FA82F203F47063D340034AD35CF7
:102CD000D840034B186008BD00440258A6530008B2
:102CE00008000020704702680020D36843F0010309
:102CF000D36013889BB243F0010313807047704781
:102D000070477047704703681A69910710B5044609
:102D10000FD5DA6892070CD56FF002021A61012212
:102D20009B690277990700F08580FFF7E9FF002390
:102D3000237723681A69520710D5DA6850070DD532
:102D40006FF0040220461A6102229B69227713F475
:102D5000407F75D0FFF7D4FF0023237723681A69DB
:102D600011070FD5DA6812070CD56FF0080220465C
:102D70001A610422DB6922779B0767D0FFF7C0FF47
:102D80000023237723681A69D00610D5DA68D106A4
:102D90000DD56FF0100220461A610822DB692277F8
:102DA00013F4407F58D0FFF7ABFF0023237723684D
:102DB0001A69D20708D5DA68D00705D56FF0010285
:102DC00020461A6101F004FD23681A69110608D52E
:102DD000DA68120605D56FF0800220461A6100F00D
:102DE000C6F823681A69D00508D5DA68110605D532
:102DF0006FF0800220461A6100F0B9F823681A6962
:102E0000520608D5DA68500605D56FF04002204614
:102E10001A61FFF777FF23681A69910622D5DA68ED
:102E200092061FD56FF0200220461A61BDE81040BF
:102E300000F09CB8FFF763FF2046FFF762FF76E7DC
:102E4000FFF75DFF2046FFF75CFF85E7FFF757FFC1
:102E50002046FFF756FF93E7FFF751FF2046FFF7A5
:102E600050FFA2E710BD0000314A038890429BB298
:102E700012D0B0F1804F0FD0A2F57C4290420BD01F
:102E800002F58062904207D002F58062904203D042
:102E900002F57842904219D14A6823F07003134337
:102EA000234A90421DD0B0F1804F1AD0A2F57C4247
:102EB000904216D002F58062904212D002F58062F4
:102EC00090420ED002F5784290420AD0194A9042C0
:102ED00007D002F58062904203D002F580629042F2
:102EE00003D123F44073CA6813434A6923F0800373
:102EF00013439BB203808B68C3620B8803850C4B22
:102F000098420FD003F5806398420BD003F57053BD
:102F1000984207D003F58063984203D003F580639D
:102F2000984201D10B8A038601234361704700BF99
:102F3000000001400040014010B50446A0B190F8E7
:102F40003D3003F0FF021BB980F83C20FFF7CAFEBA
:102F500002232068211D84F83D30FFF785FF0123FF
:102F6000002084F83D3010BD012010BD704770472F
:102F700008B500F0D1FB002008BD30B5B0F908401D
:102F800085B0028A0B46842C90E8220014BF0334DB
:102F9000002403A800940190284600F0EDFA0128CF
:102FA0000CBF0398002005B030BD002808BF0120E9
:102FB00008B500F007FD002008BD08B500F09EFD33
:102FC000012803D0BDE8084000F00CB908BD00F1AD
:102FD00008034FF0FF324360C36003610023826047
:102FE0000360704700230361704743689A684B6031
:102FF0008A609A68516099600368086101330360D0
:1030000070470A68531C30B50AD103695A684A6090
:1030100091608B605960036808610133036030BDC3
:1030200000F108035C682568AA42EFD32346F9E75C
:103030004168826803698A60826851605968884281
:1030400008BF5A6000220261186801381860704792
:103050000C4B1B6801330AD04FF0500372B683F358
:103060001188BFF36F8FBFF34F8F62B6FEE74FF04B
:10307000500372B683F31188BFF36F8FBFF34F8F86
:1030800062B6FEE70400002006480068006880F38E
:10309000088862B661B6BFF34F8FBFF36F8F00DF52
:1030A00000BF000008ED00E0DFF80C00016841F40B
:1030B000700101607047000088ED00E04FF0807300
:1030C00021F0010140F8202C44380364034BC16314
:1030D00083636FF002030362704700BF5130000842
:1030E000074B19680868B0E8F04F80F30988BFF310
:1030F0006F8F4FF0000080F311887047AFF30080AE
:10310000AC3D00204FF0500372B683F31188BFF33B
:103110006F8FBFF34F8F62B60B4A13680133012BD9
:1031200013600FD1094B1B6813F0FF0F0AD04FF04B
:10313000500372B683F31188BFF36F8FBFF34F8FC5
:1031400062B6FEE7704700BF0400002004ED00E017
:10315000094A136853B94FF0500372B683F31188CC
:10316000BFF36F8FBFF34F8F62B6FEE7013B136073
:103170000BB983F3118870470400002000000000A1
:10318000EFF30980BFF36F8F154B1A681EF0100F15
:1031900008BF20ED108A20E9F04F10604DF8043D83
:1031A0004FF0500072B680F31188BFF34F8FBFF31A
:1031B0006F8F62B600F066FC4FF0000080F311885C
:1031C00008BC19680868B0E8F04F1EF0100F08BF7F
:1031D000B0EC108A80F30988BFF36F8F704700BF8F
:1031E000AC3D002008B54FF0500372B683F3118850
:1031F000BFF36F8FBFF34F8F62B600F0D5FA18B1EF
:103200004FF08052024B1A60002383F3118808BDEF
:1032100004ED00E0064B4FF47A721B68B3FBF2F347
:10322000044A013B13600722034B1A60704700BF3A
:103230000800002014E000E010E000E0234B13B58C
:103240001A780021D2B20192FF221A701B78204A0C
:10325000DBB28DF803309DF8033003F05003137098
:1032600007221C4B1A609DF80300541E000623D44D
:1032700001B11A601A68120202F4E0621A60019B3E
:10328000124ADBB21370144B1A6842F470021A60CF
:103290001A6842F070421A60FFF7BCFF00220F4B21
:1032A0001A60FFF701FF0E4A136843F040431360B2
:1032B000FFF7EAFEFFF7CCFE9DF803200121520044
:1032C000D2B28DF803202246CDE700BF00E400E033
:1032D0008C0100209001002020ED00E0040000207F
:1032E00034EF00E00F4B10B51A68824218D35C68C7
:1032F0001919884201BF4168184609195960446884
:1033000001198A4207D1084909688A421FBF5168DA
:103310001268091941609842026018BF186010BD18
:103320001346E1E7A43D0020940100202DE9F0417F
:10333000044600F031FA4049404D0B680BBB404A4F
:103340005607404E1BBFD01D02F570534FF470530B
:1033500020F007001CBF02461B1A002013443260F5
:103360007060083B23F0070318605860981A0B60E0
:103370001360354B50601860344B18604FF00043B9
:103380002B602F68274216D1002C42D004F108038D
:1033900058071CBF23F00703083363B12B4A166894
:1033A0009046B34207D8274A15686868834204D814
:1033B00009688D4207D100242BE02C68002CF7D03F
:1033C0002A462546F1E7296814681160C21A102AB6
:1033D00011D9E81841070AD04FF0500372B683F3B1
:1033E0001188BFF36F8FBFF34F8F62B6FEE7426065
:1033F0006B60FFF777FF6B6808341349F61A1F43B9
:1034000008680023C8F8006086426F602B6038BFF0
:103410000E6000F05DFA63070AD04FF0500372B6F9
:1034200083F31188BFF36F8FBFF34F8F62B6FEE750
:103430002046BDE8F08100BF94010020983D0020A7
:1034400098010020A43D0020A03D00209C3D0020CC
:1034500010B50446002832D0194A50F8043C1268CE
:1034600013420AD14FF0500372B683F31188BFF3B1
:103470006F8FBFF34F8F62B6FEE750F8081C51B153
:103480004FF0500372B683F31188BFF36F8FBFF311
:103490004F8F62B6FEE723EA020340F8043C00F0D7
:1034A0007BF9084A54F8043CA4F1080011680B4465
:1034B0001360FFF717FFBDE8104000F009BA10BD18
:1034C000983D00209C3D0020064A13681968064B71
:1034D00019B94FF0FF321A6070471268D268D2688B
:1034E0005268F8E7B03D0020883E0020F8B51B4B3D
:1034F00004461B4E0F461D6830680430FFF798FDE8
:10350000334640B931680120164EC96A3268884096
:1035100022EA00023260621C07D137B119681248F2
:103520000431BDE8F840FFF760BD2C441A68A5429D
:10353000546007D90D4A10681968BDE8F840043195
:10354000FFF75FBD0A4A106819680431FFF759FD9B
:10355000084B1A68944200D21C60F8BDD03E00208F
:10356000AC3D0020583E0020A83E0020B43D002085
:10357000B03D0020883E00202DE9F84F4FEA820A36
:1035800080460F46994650460B9EFFF7CFFE0546F4
:10359000002800F096805420FFF7C8FE044600285B
:1035A00000F08C80AAF1040A05637B1E00F134024E
:1035B00055440F3725F0070A597802F8011B13F814
:1035C000011F09B1BB42F7D10A9D4FF0000B271D27
:1035D000062D84F843B03846C4F848B028BF062505
:1035E000E5626564C5F10705FFF7FCFC04F118000E
:1035F000FFF7F8FCC4F84CB024614A46A561414687
:103600006462504684F850B0FFF758FD206006B160
:103610003460FFF777FD324B324E1A68DFF8F080E6
:1036200001321A603568002D4ED134601B68012BC1
:103630001DD108EB05001435FFF7C9FC8C2DF8D11E
:10364000DFF8D090284D4846FFF7C1FC2846FFF729
:10365000BEFC2648FFF7BBFC2548FFF7B8FC254811
:10366000FFF7B5FC244BC3F80090244B1D60244A9F
:10367000012524491368086801331360E26A05FADA
:1036800002F3034314200B60394600FB0280FFF76E
:10369000ACFCFFF75DFD1C4B1B6863B13368DA6A55
:1036A000E36A9A4207D24FF08052184B1A60BFF378
:1036B0004F8FBFF36F8F2846BDE8F88F2846FFF77E
:1036C000C7FE4FF0FF35F6E70F4B1B68002BCED13E
:1036D0003368DA6AE36A9A42C9D83460C7E700BF40
:1036E000443E0020AC3D0020703E0020903E002073
:1036F000BC3E0020A83E0020B03D0020B43D00208C
:10370000543E0020583E0020A43E002004ED00E07E
:10371000B83D00205C3E002013B5194B00248022E8
:1037200018490193234600941748FFF725FF012805
:1037300016D14FF0500372B683F31188BFF36F8F29
:10374000BFF34F8F62B64FF0FF32104B1A60104B31
:103750001860104B1C6002B0BDE81040FFF76EBD52
:1037600001300AD14FF0500372B683F31188BFF3D2
:103770006F8FBFF34F8F62B6FEE702B010BD00BF80
:10378000843E002088530008113A0008883E00203B
:10379000A43E0020D03E0020024A1368013313608B
:1037A000704700BF503E00202DE9F84F3D4B1B688D
:1037B000002B55D13C4B1C6801341C60CCB93B4BF1
:1037C0001A68126852B14FF0500372B683F3118831
:1037D000BFF36F8FBFF34F8F62B6FEE7344A1968AD
:1037E000106818601160334A136801331360FFF7E3
:1037F0006BFE314D4FF0000B304F2B689C423ED397
:10380000DFF8A880DFF8C490D8F80020126872BBF7
:103810004FF0FF322A6032E006F1040A5046FFF70B
:1038200007FCB16A19B106F11800FFF701FCF06A54
:103830000122D9F800304FF0140E02FA00F11943BA
:103840001F4BC9F8001051460EFB0030FFF7CDFBAF
:103850003868F16AC26A914228BF4FF0010BD3E782
:10386000184A4FF0000B13680133136011E0D8F8C9
:103870000020D268D66871688C42CDD229603A683F
:103880000F4BD16A14224A439A58022A28BF4FF09C
:10389000010B0D4A1268002A18BF4FF0010B584661
:1038A000BDE8F88F503E0020D03E0020B03D002003
:1038B000B43D00208C3E0020883E0020AC3D00201E
:1038C000B83D00204C3E0020D43E0020583E002051
:1038D0002DE9F843324C236853B94FF0500372B6C8
:1038E00083F31188BFF36F8FBFF34F8F62B6FEE78C
:1038F000FFF708FC2368013B236024682CB10024F7
:10390000FFF726FC2046BDE8F883264B1B68002BFA
:10391000F5D0DFF8A890244FDFF8A480D9F8003064
:10392000E3B90CB1FFF7D0FD204D2C6844B1204E17
:103930000127FFF739FF00B13760013CF9D12C6056
:103940001B4B1B68002BDAD04FF08052194B1A60CA
:10395000BFF34F8FBFF36F8F0124D1E7D9F80C303D
:103960000125DC68261D04F11800FFF761FB3046D5
:10397000FFF75EFBE26A3968142005FA02F300FBE8
:1039800002800B4331463B60FFF72FFB0A4BE26A94
:103990001B68DB6A9A42C1D3054B1D60BEE700BFBE
:1039A000503E0020443E0020583E00204C3E002067
:1039B000D43E002004ED00E0AC3D0020903E00200D
:1039C000B83D002008B540B94FF080520E4B1A6048
:1039D000BFF34F8FBFF36F8F08BD0C4B196851B108
:1039E0004FF0500372B683F31188BFF36F8FBFF3AC
:1039F0004F8F62B6FEE7FFF7CFFEFFF777FDFFF7C9
:103A000067FF0028E0D008BD04ED00E0503E002034
:103A1000174E08B5174C236863B9174B1B68012B69
:103A2000F8D94FF08052154B1A60BFF34F8FBFF398
:103A30006F8FEFE7FFF7B0FE3568FFF749FF002D06
:103A4000E9D0FFF75FFBF368DD68281DFFF7F0FAA8
:103A50000B4A1368013B13602368013B2360FFF7A7
:103A600077FB286BFFF7F4FC2846FFF7F1FCD2E761
:103A7000BC3E0020483E0020B83D002004ED00E0A0
:103A8000443E0020184B1A68184B10B512B10122A1
:103A90001A6010BD1A60164B1B68B3FA83F3DBB2D1
:103AA00014221449C3F11F035A438C58881854B97F
:103AB0004FF0500372B683F31188BFF36F8FBFF3DB
:103AC0004F8F62B6FEE74468083264680A44944245
:103AD000446004BF62684260142202FB03135B6807
:103AE000DA68054BD4E700BF503E0020D43E0020EA
:103AF000583E0020B83D0020AC3D0020054B1B681F
:103B000033B1054B1B68002B0CBF0220002070470F
:103B100001207047A43E0020503E002080B483B0B6
:103B200000AF786000BF0C37BD465DF8047B70477E
:103B300080B400AF00231846BD465DF8047B704793
:103B400080B483B000AF87ED010AD7ED017AFAFEA9
:103B5000677AB0EE670A0C37BD465DF8047B7047A4
:103B600080B588B000AF0346B9607A60FB73FFF799
:103B7000DFFF0346FB61FFF7DBFF0246FB69D21A5A
:103B8000BB689A4234BF01230023DBB2002B2DD047
:103B9000194B1B68002B02D10120FFF7BFFF174B09
:103BA0001B68012B03D0144B1B68002BE3D1134B74
:103BB00000221A600023FB7507F117030122194642
:103BC000052000F03DF80346BB61FA7DFB7B134006
:103BD000DBB2002BCFD0BB69012BCCD17B68002B93
:103BE00002D0FA7D7B681A70012300E0002318469A
:103BF0002037BD4680BD00BF2401002020010020E9
:103C000080B586B000AF0346B9607A60FB730B4B9A
:103C10001B687B61094B00221A60FB7B7A68B968DC
:103C20001846FFF79DFF0346FB74044A7B69136047
:103C3000FB7C18461837BD4680BD00BF240100201C
:103C400080B58AB000AF0346B9607A60FB73FB7B36
:103C5000062B1FDDFB7B0F2B02DDFB7B112B19DD00
:103C6000FB7B132B02DDFB7B232B13DDFB7B262B46
:103C700002DDFB7B2A2B0DDDFB7B2F2B02DDFB7B8B
:103C8000472B07DDFB7B4D2B02DDFB7B882B01DD0A
:103C900000234FE07B6807EE903AF8EEE77AB3EE48
:103CA000047AC7EE876AB0EE660AFFF749FFF0EEC6
:103CB000407AFDEEE77A17EE903AFB6101233B6212
:103CC00000237B627A6AFB699A4232DA7A6A134687
:103CD0009B0013449B00BB61BB69DAB2FB7B1344BE
:103CE000DBB2FB757B6A5A1CFB699A420DD0BB693B
:103CF000BA681A4407F117001423012100F00AFAE8
:103D000002463B6A13403B620FE0BB69BA68D118B8
:103D10007A68BB69D31A07F117000A46012100F03F
:103D2000F9F902463B6A13403B627B6A01337B62CE
:103D3000C8E73B6A18462837BD4680BD2DE9F04FDD
:103D40008FB000AFB9617A613B610346FB776B4688
:103D50007B603B6E0133142B04DDE622434944486B
:103D600000F092FA7B690133142B04DDE7223F490E
:103D70003F4800F089FAFB7FAF2B02DDFB7FBB2BB6
:103D800007DDFB7FBF2B02DDFB7FC82B01DD00239E
:103D900064E07A697A63134601334FF00004E1006E
:103DA000F960F96841EA5371F960DB00BB601346C2
:103DB00001334FF000044FEAC40B4BEA537B4FEA48
:103DC000C30A134601330733DB08DB00ADEB030DF9
:103DD0006B4600333B633B6BFA7F1A703B6B0133DE
:103DE0007A69B969184600F017FE3A6EFA6213460E
:103DF00001334FF000044FEAC40949EA53794FEA0E
:103E0000C308134601334FF00004E60046EA537638
:103E1000DD00134601330733DB08DB00ADEB030D98
:103E20006B460033BB62386B7B69591CBA6A3B6EC8
:103E3000013300F06FF9034687F8273097F82730F1
:103E4000002B02D197F8273008E0BB6A01333A6EA5
:103E50001946386900F0E0FDBB6A1B78D7F804D03A
:103E600018463C37BD46BDE8F08F00BF004B000848
:103E7000204B00082DE9F04F91B002AF3A61FB6092
:103E80000346FB820B467B756B461E467B7DAF2B44
:103E900002DD7B7DBB2B07DD7B7DBF2B02DD7B7DC8
:103EA000C82B01DD0023D1E000237B63FB68591C94
:103EB00039630B4601331A464FF00003D80078608F
:103EC000786840EA52707860D3003B600B4601335B
:103ED0001A464FF000034FEAC30B4BEA527B4FEAFE
:103EE000C20A0B4601330733DB08DB00ADEB030DE1
:103EF00002AB0033FB62FB6A00221A70FB6A7A7D18
:103F00005A70FB6A0233FA683969184600F084FD7A
:103F1000F96AFB689A1C002300930023B220FFF784
:103F20000DFF03467B637B6B002B01D17B6B8DE028
:103F3000FB8ADBB23B77FB8A1B12DBB27B77082361
:103F4000BB770023FB7607F11B03012219460520EE
:103F5000FFF776FE07F11C010023009300230322E4
:103F6000B320FFF7EBFE03467B637B6B002B01D195
:103F70007B6B6BE007F11B031A464FF47A7111203B
:103F8000FFF73EFE0346002B5FD0FB7E03F00103EC
:103F9000002B01D0002359E007F118030322194632
:103FA0008220FFF74DFE3B7E9AB27B7E9BB21B02C6
:103FB0009BB213447B85BB7E87F829307A8DFB8AC0
:103FC0009A4240D197F829207B6E01339A423AD128
:103FD0006B469A46796E79620B4601331A464FF06A
:103FE00000034FEAC30949EA52794FEAC2080B4677
:103FF00001331A464FF00003DD0045EA5275D40044
:104000000B4601330733DB08DB00ADEB030D02ABDE
:1040100000333B623A6A7B6E01331946104600F06A
:104020001BF803467B637B6B002B01D17B6B08E0A5
:104030003B6A01337A6E1946386E00F0EDFC3B6A3C
:104040001B78D54602E0002300E00823B546184659
:104050003C37BD46BDE8F08F80B58AB002AF7860CE
:1040600039603B68642B01DD00234EE013237B6144
:104070003B6807EE903AB8EEE77A7B6907EE903A34
:10408000F8EEE77AC7EE276AB0EE660AFFF758FD4A
:10409000F0EE407AFDEEE77A17EE903A3B610023AE
:1040A000BB61BA693B699A422EDABB69DAB27B69B5
:1040B000DBB212FB03F3DBB23B73BB695A1C3B69F7
:1040C0009A4203D07B69DBB27B730BE03B68DAB2C8
:1040D000BB69D9B27B69DBB211FB03F3DBB2D31A44
:1040E000DBB27B733B7B1A467B6813447A7B07F118
:1040F0000C0100920222B420FFF720FE0346FB6170
:10410000BB690133BB61CCE7FB6918462037BD466C
:1041100080BD000080B58CB004AFF860B9607A60F3
:104120003B60BB68012B02D0022B19D036E0FB6844
:104130001B7899B23B689BB24FF0FF320292019319
:104140007B68009301230A4696211748FDF750FB30
:104150000346002B0CBF01230023DBB2FB771EE0DC
:10416000FB681B88BB61BB695BBA7B617B6999B2E9
:104170003B689BB24FF0FF32029201937B68009341
:1041800002230A4696210848FDF732FB0346002B1E
:104190000CBF01230023DBB2FB7700E0FEE7FB7FCF
:1041A00018462037BD4680BDDC3E002080B586B075
:1041B00002AFB9607A603B600346FB73BB8B002B98
:1041C00009D1F87BBB6900933B687A68B968FFF74F
:1041D000B5FD03460AE0F97BB88BBB6901933B68E8
:1041E00000937B68BA68FFF745FE03461846103710
:1041F000BD4680BD80B586B002AF78600B46FB70CF
:1042000013463B807B68002B05DC4FF431721C4960
:104210001C4800F039F87B68042B05DD40F2C5220C
:104220001749184800F030F8FB78012B08D0FB78CC
:10423000002B05D040F2C6221149124800F024F8A4
:104240007B680333012202FA03F35AB2F9787B68E0
:10425000013B01FA03F35BB213435BB2DBB2FB73C6
:1042600007F10F013B8801930023009300230122F3
:10427000B120FFF79BFF034618461037BD4680BDAF
:104280002C4B00085452000880B485B000AFF86091
:10429000B9607A6000BF1437BD465DF8047B704793
:1042A00080B582B002AF064B019301230093002337
:1042B000C82204490448FFF75FF900BFBD4680BD2E
:1042C000800100206C530008CD42000880B584B006
:1042D00000AF786003222F490020FFF7B1FC0346AE
:1042E000002B0CBF01230023DBB2002B06D00122E0
:1042F0004FF480412848FDF707F941E0254B1B7832
:10430000432B05D1012280212348FDF7FDF837E03A
:10431000204B1B78002B1AD10023FB60FB68092B74
:104320002EDC01224FF480411B48FDF7EDF864209C
:10433000FCF774FF00224FF480411748FDF7E4F8C2
:104340006420FCF76BFFFB680133FB60E6E70023AA
:10435000BB60BB68092B13DC012280210E48FDF7EE
:10436000D3F86420FCF75AFF002280210A48FDF7A9
:10437000CBF86420FCF752FFBB680133BB60E8E771
:10438000002201210420FFF735FF6420FFF71AFB0C
:10439000F6E700BF840100200004025880B483B017
:1043A00000AF0346FB80FB88282B03D1074B01227B
:1043B0001A6005E0FB88282B02D1044B01221A6009
:1043C00000BF0C37BD465DF8047B7047200100201C
:1043D00008B50120FEF7E9FDFBE7000030B5084D08
:1043E00087B00FCD01AC0FC42B68002101A823605A
:1043F000FEF7C3FD034B1860FFF752FF07B030BD57
:1044000074530008D83E0020814B4FF48141D3F80B
:10441000E02042F004022DE9F04FC3F8E0208FB015
:10442000D3F8E0200024DFF8FC81022502F004022A
:10443000784E40460B2701924FF4005A019AD3F868
:10444000E020DFF8E49142F08002DFF8E0B1C3F849
:10445000E020D3F8E02002F080020292029AD3F822
:10446000E02042F00102C3F8E020D3F8E02002F09F
:1044700001020392039AD3F8E02042F02002C3F82D
:10448000E020D3F8E02002F020020492049AD3F84E
:10449000E02042F01002C3F8E020D3F8E02002F060
:1044A00010020592059AD3F8E02042F00202C3F808
:1044B000E020D3F8E02002F002020692069AD3F838
:1044C000E02042F00802C3F8E020D3F8E02002F038
:1044D00008020792079AD3F8E02042F04002C3F89E
:1044E000E0200022D3F8E03003F040030893089B5B
:1044F000FDF70AF8002230464021FDF705F8322387
:1045000009A9454809930A950B940C940D97FCF75B
:1045100011FF862309A948460A9509930B940C9428
:104520000D97FCF707FF4FF4004309A93B48099397
:10453000CDF828B00B94FCF7FDFECDF828B009A902
:10454000DFF8ECB0CDF824A058460B94FCF7F2FE4F
:104550000F2309A958460D930A950B940C94FCF768
:10456000E9FE09A94046CDF824A04FF0010A0A95BA
:104570000B940C940D97FCF7DDFE4FF4814309A9D1
:104580004046CDF828A009930B940C94FCF7D2FE7A
:104590004FF4407309A92248099307230A950D9304
:1045A0000B940C94FCF7C6FE402309A93046CDF8C5
:1045B00028A009930B940C94FCF7BCFE802309A956
:1045C00030460A9409930B94FCF7B4FE4FF4E85379
:1045D00009A948460A9509930A230B940D930C9454
:1045E000FCF7A8FE4FF4205309A930460A95099319
:1045F0000B940C940D97FCF79DFE22460521282074
:10460000FCF730FE2820FCF765FE0FB0BDE8F08F08
:1046100000440258001802580008025800140258BA
:10462000000C02580004025800000258000011114A
:104630000010025808B515480122154B1549C260F3
:1046400080E80A0000238360036143618361C361E2
:104650000362FDF77CF818B14C210F4800F0C2F856
:1046600000210A48FDF782F918B153210A4800F0E9
:10467000B9F800210548FDF79FF928B15A210648ED
:10468000BDE8084000F0AEB808BD00BFDC3E002029
:10469000EC9C901000540040995300087FB50268CC
:1046A000114B9A421CD14FF44073104801931223CE
:1046B0000293012303930223049304230DEB0301CC
:1046C0000593FCF737FE0A4BD3F8E82042F40012BA
:1046D000C3F8E820D3F8E83003F400130093009BFC
:1046E00007B05DF804FB00BF00540040000402580E
:1046F000004402582D4BDA6822F0040230B5DA602B
:10470000CDB0002201929A6922F4404242F48042E4
:104710009A619A6902F440420192019A9A6992045C
:10472000FCD510220A210223042401250E921691A1
:1047300000220C210AA80A930D9513931492159444
:104740001793189419931A911B931C92FDF75AF919
:1047500000B1FEE73F23049005902946029303230E
:10476000069007900890099002A80393FDF730FC8B
:1047700000B1FEE708233D901DA81D93FDF728FE1C
:10478000054600B1FEE70A4B18684FF47A73B0FB98
:10479000F3F0FCF7ADFD2046FCF7C0FD2A460F21E3
:1047A0004FF0FF30FCF75EFD4DB030BD00480258C1
:1047B0000800002008B5FCF70FFDFFF79BFFFFF78F
:1047C00023FEFFF737FFFFF709FEFEF7D1FBFEE7F9
:1047D0000268034B9A4201D1FCF70EBD704700BF3F
:1047E00000000140FEE700001E4B07B5D3F8F4209F
:1047F000032042F00202C3F8F420D3F8F43003F0AF
:1048000002030193019BFCF71BFD00226FF00B00DC
:104810001146FCF727FD00226FF00A001146FCF755
:1048200021FD00226FF009001146FCF71BFD00225C
:104830006FF004001146FCF715FD00226FF0030035
:104840001146FCF70FFD00220F216FF00100FCF76D
:1048500009FD00220F214FF0FF30FCF703FD03B0EC
:104860005DF804FB0044025810B501468AB00022EE
:104870001920FCF7F7FC1920FCF72CFD154B6946B5
:1048800002A8D3F8F020144C42F00102C3F8F02043
:10489000D3F8F03003F001030193019BFDF7A2FC74
:1048A000FDF78AFC0D4B236040F2E733E3600C4BCD
:1048B000B0FBF3F001380023606020462361A36061
:1048C000FEF73AFB20B92046FEF70DFA0AB010BDFC
:1048D0000120FBE700440258283F0020000001406F
:1048E00040420F007047FEE7FEE7FEE7FEE7704735
:1048F000FEF763BB0148FEF706BA00BF283F002061
:1049000008B54FF40050FCF705FE4FF40040BDE839
:104910000840FCF7FFBD000014491548D1F8883065
:1049200043F4700310B5C1F88830124B1A6842F096
:1049300001021A6000221A611C68204018609A6106
:10494000DA611A629A62DA621A635A639A63DA6304
:104950001A645A64186820F4802018601A660122CC
:10496000054B1A604FF000638B6010BD00ED00E056
:104970007FEDF6EA0044025808810051DFF834D098
:10498000002103E00C4B5B58435004310B480C4BA7
:1049900042189A42F6D30B4A02E0002342F8043B45
:1049A000094B9A42F9D3FFF7B7FF00F011F8FFF770
:1049B00001FF704700000220505500080000002051
:1049C00004010020040100206C3F0020FEE70000ED
:1049D00070B50D4E0D4CA41BA4100025A54209D1A5
:1049E0000B4E0C4C00F080F8A41BA4100025A5422F
:1049F00005D170BD56F8253098470135EEE756F8D9
:104A0000253098470135F2E7485500084855000819
:104A1000485500084C55000810B5431E0A44914201
:104A200000D110BD11F8014B03F8014FF7E708B5AD
:104A3000062000F02BF8012000F054F81F2938B5AB
:104A400004460D4604D9162303604FF0FF3038BDED
:104A5000426C12B152F821304BB9204600F030F8C8
:104A60002A4601462046BDE8384000F017B8012B21
:104A70000AD0591C03D116230360012038BD00243D
:104A800042F8254028469847002038BD024B014691
:104A90001868FFF7D3BF00BF1000002038B5074CDF
:104AA0000023054608461146236000F013F8431C16
:104AB00002D1236803B12B6038BD00BF683F0020DE
:104AC00000F000B8024B58221A604FF0FF307047D8
:104AD000683F0020024B58221A604FF0FF307047A9
:104AE000683F0020FEE70000F8B500BFF8BC08BC36
:104AF0009E467047F8B500BFF8BC08BC9E4670479C
:104B00002E2E5C5372635C4C6962726172696573CC
:104B10005C506F7A79785F636F72652E6370700096
:104B200072656746756E6374696F6E002E2E5C53F6
:104B300072635C4C69627261726965735C506F7A12
:104B400079785F6C69622E63707000004572726FD5
:104B5000723A20636F756C64206E6F7420636F6EA1
:104B60006E65637420776974682074686520506F7F
:104B70007A7978206465766963650000000000003A
:104B80004572726F7220307830313A204572726F00
:104B9000722077726974696E6720746F2061207269
:104BA00065676973746572207468726F75676820D1
:104BB0007468652049324320627573004572726FD4
:104BC0007220307830323A20506F7A7978206361E1
:104BD0006E6E6F742068616E646C6520616C6C2011
:104BE0007468652049324320636F6D6D616E647334
:104BF000206174206F6E6365000000004572726F63
:104C00007220307830333A2043616E6E6F742061C9
:104C1000646420616E63686F7220746F20746865CD
:104C200020696E7465726E616C2064657669636577
:104C3000206C6973740000004572726F72203078C6
:104C400030343A20436F6D6D756E69636174696FBE
:104C50006E2071756575652069732066756C6C2CA6
:104C600020746F6F206D616E7920555742206D65FD
:104C700073736167657300004572726F72203078DC
:104C800030353A204572726F722072656164696EC8
:104C9000672066726F6D2061207265676973746545
:104CA000722066726F6D20746865204932432062FD
:104CB000757300004572726F7220307830363A207A
:104CC00043616E6E6F74206368616E6765207468FF
:104CD000652055574220636F6E666967757261740F
:104CE000696F6E004572726F7220307830373A20EB
:104CF000506F7A79782063616E6E6F742068616E90
:104D0000646C6520616C6C20746865206F706572DE
:104D10006174696F6E73206174206F6E636500004B
:104D20004572726F7220307830383A20496E74655F
:104D3000726E616C20627573206572726F72000012
:104D40004572726F7220307830393A20466C617348
:104D500068206D656D6F727920697320636F727260
:104D60007570746564206F7220696E76616C696419
:104D7000000000004572726F7220307830413A2096
:104D80004E6F7420656E6F75676820616E63686F23
:104D9000727320617661696C61626C6520666F7206
:104DA00020706F736974696F6E696E670000000030
:104DB0004572726F7220307830423A204572726FBD
:104DC0007220647572696E67207468652044697327
:104DD000636F766572792070726F6365737300001C
:104DE0004572726F7220307830433A204572726F8C
:104DF0007220647572696E672074686520617574CD
:104E00006F2063616C6962726174696F6E20707289
:104E10006F636573730000004572726F72203078A3
:104E200030443A20496E76616C69642066756E6321
:104E300074696F6E20706172616D65746572732044
:104E4000666F722074686520726567697374657235
:104E50002066756E6374696F6E0000004572726F34
:104E60007220307830453A2054686520636F6F7245
:104E700064696E61746573206F6620616E20616E77
:104E800063686F7220617265206E6F7420666F7543
:104E90006E6400004572726F7220307830463A209E
:104EA000466C617368206572726F72004572726F32
:104EB0007220307831303A204D656D6F72792065FF
:104EC00072726F72000000004572726F722030784B
:104ED00031313A2052616E67696E67206661696C94
:104EE000656400004572726F7220307831323A206A
:104EF00052616E67696E672074696D656F757400C5
:104F00004572726F7220307831333A2052616E6789
:104F1000696E672074696D656F7574004572726F94
:104F20007220307831343A20547820776173206CC5
:104F3000617465004572726F7220307831353A20A5
:104F40005557422069732062757379004572726FFC
:104F50007220307831363A20506F736974696F6E01
:104F6000696E67206661696C656400004572726FE6
:104F70007220307831373A204E6F2041636B6E6F6C
:104F8000776C656467652072656365697665640042
:104F90004572726F7220307846313A2043616E6EEE
:104FA0006F7420637265617465207461736B0000B7
:104FB0004572726F7220307846453A2048617264BB
:104FC00077617265206E6F74207265636F676E69BA
:104FD0007A65642E20506C6561736520636F6E7412
:104FE00061637420737570706F727440706F7A793A
:104FF000782E696F000000004572726F7220307861
:1050000046463A2047656E6572616C206572726F24
:1050100072000000556E6B6E6F776E206572726F56
:10502000720000001C1D1E1F6765745265616400DC
:10503000736574557064617465496E7465727661E8
:105040006C00000073657452616E67696E67507220
:105050006F746F636F6C0000676574436F6E666991
:10506000674D6F64654750494F00000067657443A2
:105070006F6E66696750756C6C4750494F00000051
:10508000736574436F6E6669674750494F0000004F
:10509000736574506F736974696F6E46696C74657B
:1050A00072000000736574506F736974696F6E41AC
:1050B0006C676F726974686D0000000073657453EB
:1050C000656C656374696F6E4F66416E63686F727D
:1050D000730000007365744E6574776F726B49647A
:1050E0000000000067657455574253657474696E1B
:1050F0006773000073657455574253657474696E25
:105100006773000073657455574253657474696E14
:1051100067734578636570744761696E00000000CD
:105120007365745557424368616E6E656C0000008C
:105130006765745557424368616E6E656C00000088
:105140007365745478506F776572000067657454A6
:1051500078506F77657200007365744F7065726187
:1051600074696F6E4D6F6465000000007365745361
:10517000656E736F724D6F64650000006765744102
:105180006C6C53656E736F72446174610000000053
:1051900067657450726573737572655F5061000066
:1051A000676574416363656C65726174696F6E5F96
:1051B0006D6700006765744D61676E657469635F54
:1051C00075540000676574416E67756C6172566551
:1051D0006C6F636974795F64707300006765744510
:1051E000756C6572416E676C65735F64656700001E
:1051F0006765745175617465726E696F6E00000049
:105200006765744C696E656172416363656C657254
:105210006174696F6E5F6D670000000067657447B9
:10522000726176697479566563746F725F6D670039
:1052300067657454656D70657261747572655F63DE
:10524000000000006765744750494F00736574475C
:1052500050494F007365744C65640000646F52617F
:105260006E67696E67000000646F52656D6F7465EC
:1052700052616E67696E6700646F506F736974691D
:105280006F6E696E67000000646F52656D6F7465C4
:10529000506F736974696F6E696E670073657450DF
:1052A0006F736974696F6E696E67416E63686F7260
:1052B00049647300676574506F736974696F6E69D0
:1052C0006E67416E63686F7249647300676574440A
:1052D0006576696365496473000000006765744121
:1052E0006E63686F724964730000000067657454F0
:1052F0006167496473000000646F446973636F768B
:1053000065727900646F416E63686F7243616C69A6
:1053100062726174696F6E00676574446576696373
:1053200065436F6F7264696E61746573000000009D
:1053300067657444657669636552616E6765496E39
:10534000666F0000636F6E666967496E746572729E
:1053500075707450696E000073617665436F6E6698
:10536000696775726174696F6E000000706F7A7999
:10537000780000008D530008D143000800000000B1
:10538000000000008000000049444C450064656650
:1053900061756C745461736B002E2E5C5372635C88
:1053A0006932632E63000000000001020304010261
:0853B0000304060708090000D0
:1053B80007970181B0B008840000000005970181BB
:1053C800B0B008840000000009970181B0B00884DB
:1053D8000000000007970181B0B0088400000000B9
:1053E80007970181B0B0088400000000039701818D
:1053F800B0B008840000000003970181B0B00884B1
:105408000000000003970181B0B00884000000008C
:1054180008B10181B0B000840000000008B101812A
:08542800B0B000840000000098
:10543000B0AEFF7F0100000044AFFF7FB0A9028043
:10544000DCAFFF7FB0B0A8802CB0FF7F0100000070
:1054500038B0FF7FB0B0AA8070B0FF7FAE71B2806D
:1054600040B1FF7F010000003CB1FF7FAB3F3880BF
:1054700094B1FF7F01000000A0B1FF7FB0B0AA800F
:10548000DCB1FF7F0100000090B2FF7FAB0EB28065
:10549000F8B2FF7FB0AF0A80C0B5FF7F0100000007
:1054A000C4B5FF7FAB3F048004B8FF7F010000005C
:1054B000E0B9FF7F00840480F4B9FF7F01000000A1
:1054C000F0B9FF7FB0AD0480B8BCFF7FB0A8038007
:1054D000D8BCFF7F44FFFF7FDCBCFF7F48FFFF7F1E
:1054E000E8BCFF7F0100000078E6FF7FCCFEFF7F75
:1054F00010E7FF7FD0FEFF7F48E7FF7FD4FEFF7FEE
:105500003CE8FF7FAF0E978050EBFF7FD0FEFF7F20
:1055100004ECFF7FD4FEFF7F94ECFF7FD8FEFF7F7B
:10552000D4ECFF7FDCFEFF7F60EDFF7F0100000019
:1055300070EDFF7F0884978094EDFF7FD0FEFF7FA2
:085540005CEEFF7F010000009A
:04554800C502000890
:04554C00A1020008B0
:1055500001000000AAAAAAAA0090D0030090D003DC
:105560001400002000000000000000000000000007
:10557000000000000000000000000000000000002B
:10558000000000000000000000000000000000001B
:10559000000000000000000000000000000000000B
:1055A00000000000000000000000000000000000FB
:1055B00000000000000000000000000000000000EB
:1055C00000000000000000000000000000000000DB
:1055D00000000000000000000000000000000000CB
:1055E00000000000000000000000000000000000BB
:1055F00000000000000000000000000000000000AB
:10560000000000000000000000000000000000009A
:10561000000000000000000000000000000000008A
:10562000000000000000000000000000000000007A
:10563000000000000000000000000000000000006A
:10564000000000000000000000000000000000005A
:045650000000000056
:040000050800497D29
:00000001FF
