:020000040800F2
:10000000000002200D1D00088D1C00088F1C000838
:10001000911C0008931C0008951C000800000000BB
:1000200000000000000000000000000001110008B6
:10003000971C000800000000A1110008991C00088E
:100040005D1D00085D1D00085D1D00085D1D0008A8
:100050005D1D00085D1D00085D1D00085D1D000898
:100060005D1D00085D1D00085D1D00085D1D000888
:100070005D1D00085D1D00085D1D00085D1D000878
:100080005D1D00085D1D00085D1D00085D1D000868
:100090005D1D00085D1D00085D1D00085D1D000858
:1000A0005D1D00085D1D00085D1D00085D1D000848
:1000B0005D1D00085D1D00085D1D00085D1D000838
:1000C0005D1D00085D1D00085D1D00085D1D000828
:1000D0005D1D00085D1D00085D1D00085D1D000818
:1000E0005D1D00085D1D0008000000005D1D00088A
:1000F0005D1D00085D1D00085D1D00085D1D0008F8
:100100005D1D00085D1D00085D1D00085D1D0008E7
:100110005D1D00085D1D00085D1D00085D1D0008D7
:100120005D1D00085D1D00085D1D00085D1D0008C7
:100130005D1D00085D1D00085D1D00085D1D0008B7
:1001400000000000000000000000000000000000AF
:100150005D1D00085D1D00085D1D00085D1D000897
:100160005D1D00085D1D00085D1D00085D1D000887
:100170005D1D00085D1D00085D1D000800000000F9
:100180005D1D00085D1D00085D1D00085D1D000867
:100190005D1D00085D1D00085D1D00085D1D000857
:1001A0005D1D00085D1D00085D1D00085D1D000847
:1001B0005D1D00085D1D00085D1D00085D1D000837
:1001C0005D1D00085D1D00085D1D00085D1D000827
:1001D0005D1D00085D1D00085D1D00085D1D000817
:1001E0005D1D00085D1D00085D1D00085D1D000807
:1001F0005D1D00085D1D00085D1D00085D1D0008F7
:100200005D1D00085D1D00085D1D00085D1D0008E6
:100210005D1D00085D1D00085D1D00085D1D0008D6
:100220005D1D00085D1D00085D1D00080000000048
:100230005D1D00085D1D0008000000005D1D000838
:100240005D1D00085D1D00085D1D00085D1D0008A6
:100250005D1D00085D1D00085D1D00085D1D000896
:100260005D1D00085D1D00085D1D00085D1D000886
:100270005D1D00085D1D00085D1D000800000000F8
:100280005D1D0008000000005D1D0008000000006A
:08029000000000005D1D0008E4
:1002A00010B5054C237833B9044B13B10448AFF3B0
:1002B00000800123237010BD10000020000000000A
:1002C000A81D000808B5034B1BB103490348AFF351
:1002D000008008BD0000000014000020A81D0008D8
:1002E00038B50E4B05460E4A18784FF47A73B3FBB7
:1002F000F0F31068B0FBF3F000F082F8044658B950
:100300000F2D09D8024629464FF0FF3000F040F883
:10031000044B20461D6038BD012038BD0000002080
:100320000C0000200400002010B5032000F01EF88F
:100330000F20FFF7D5FF044618B901F067FC2046EF
:1003400010BD0124FBE70000034A044B11681B7831
:100350000B441360704700BF2C00002000000020F9
:10036000014B1868704700BF2C000020074A0002AC
:10037000D36800F4E06023F4E0631B041B0C43F03B
:10038000BF6343F400330343D360704700ED00E0E4
:10039000194B30B5DC68C4F30224C4F10703251DF2
:1003A000042B28BF0423062D4FF001058CBF033C0E
:1003B000002405FA03F3002803F1FF3301EA0301E7
:1003C00001FA04F105FA04F404F1FF3402EA04022C
:1003D00042EA01024FEA021207DB00F16040D2B2AA
:1003E00000F5614080F8002330BD00F00F00D2B26C
:1003F000024B1A5430BD00BF00ED00E014ED00E0E8
:100400000138B0F1807F0AD2064BF021064A5860CD
:10041000002082F82310072298601A60704701209C
:10042000704700BF10E000E000ED00E0044B04283E
:100430001A680CBF42F0040222F004021A607047EE
:1004400010E000E02DE9F04F0B6885B0DFF8C081C7
:100450004FF0B04901930023DFF8B8C10127019A9A
:100460009F4007EA0205AF4240F0B7804A6822F099
:100470001006022E16D14FEAD30A03F0070B4FF0F5
:100480000F0E00EB8A0A4FEA8B0BDAF820400EFAC7
:100490000BFE24EA0E0E0C6904FA0BF444EA0E0477
:1004A000CAF820404FEA430A0324D0F800B002F013
:1004B000030E04FA0AF4013E0EFA0AFEE443012E8A
:1004C0000BEA040B4EEA0B0EC0F800E010D8866869
:1004D00006EA040BCE6806FA0AFE4EEA0B068660B0
:1004E000466826EA0707C2F300169E403743476076
:1004F000C66834408E6806FA0AF63443C460D400F5
:100500006BD5D8F8F44023F0030603F003074FF04F
:100510000F0E44F0020406F1B046BF00C8F8F440E4
:1005200006F58066D8F8F44004F002040394039CB6
:100530000EFA07F4D6F808A02AEA040E334CA042BB
:1005400052D004F58064A04250D004F58064A042EB
:100550004ED004F58064A0424CD004F58064A042E3
:100560004AD004F58064A04248D004F58064A042DB
:1005700046D004F58064A04244D004F58064A042D3
:1005800042D004F58064A04214BF0A240924BC4070
:10059000D70344EA0E04B4606FEA0506DCF80040B5
:1005A00054BF34402C439703CCF80040DCF804409F
:1005B00054BF34402C43D7024FF0B047CCF804402E
:1005C000D9F8004054BF34402C4392023C607C6810
:1005D00054BF34402C43C9F804400133102B7FF43E
:1005E0003DAF05B0BDE8F08F0024D0E70124CEE791
:1005F0000224CCE70324CAE70424C8E70524C6E79D
:100600000624C4E70724C2E70824C0E70000025814
:1006100000440258800000580AB1018370474183AA
:1006200070470000F8B503680546D8075CD42B680E
:10063000990700F1AF802B68D90625D5AC4B1A6914
:1006400002F03802082A0BD01A6902F03802182A80
:1006500040F0F7809B6A03F00303012B40F0F18028
:10066000A34B1A68D20502D5EA69802A53D158688B
:100670004FF0F84292FAA2F2B2FA82F12A6A8A4064
:1006800020F0F8410A435A602B68190700F10B81EA
:100690002B689A0600F130812B685C071ED5954CBB
:1006A000236843F480732360FFF75AFE06462368ED
:1006B000DA0540F14681AB688D4C012B40F0488152
:1006C000236F43F00103236741F28834FFF748FEAC
:1006D000874E0746336F9B0740F160816A6A002AA4
:1006E00040F063810020F8BD814B1A6902F03802A6
:1006F000102A09D01A6902F03802182A0DD19B6A13
:1007000003F00303022B08D1794B1B689A038ED5A3
:100710006B68002B8BD10120F8BD6B68744CB3F56E
:10072000803F12D1236843F480332360FFF718FE23
:100730006F4C064623689B033FF579AFFFF710FE29
:10074000801B6428F6D90320F8BDA3B9236823F4DD
:1007500080332360236823F480232360FFF700FEA7
:10076000064623689F037FF562AFFFF7F9FD801B04
:100770006428F6D9E7E7B3F5A02F236803D143F443
:1007800080232360CEE723F480332360236823F49F
:100790008023CAE7564BE9681A6912F0380F07D070
:1007A0001A6902F03802182A28D19B6A9C0725D1C1
:1007B0004F4A1368580701D50029ACD013684C4C38
:1007C00023F019030B431360FFF7CAFD06462368A5
:1007D0005B070DD561684FF47C3393FAA3F3B3FA4A
:1007E00083F22B69934021F47C321343636022E748
:1007F000FFF7B6FD801B0228E9D9A4E73C4C23682B
:1008000079B123F019030B432360FFF7A9FD0646D6
:1008100023685F07DED4FFF7A3FD801B0228F7D90A
:1008200091E723F001032360FFF79AFD0646236852
:1008300058077FF500AFFFF793FD801B0228F6D91C
:1008400081E7EB692A4CEBB1236843F08003236016
:10085000FFF786FD06462368DF050DD561684FF07A
:10086000F84393FAA3F3B3FA83F22B6A934021F08F
:10087000F8421343636007E7FFF772FD801B02280D
:10088000E9D960E7236823F080032360FFF768FD60
:1008900006462368D8057FF5F7AEFFF761FD801B9C
:1008A0000228F6D94FE76B69114C83B1636F43F0AF
:1008B00001036367FFF754FD0646636F9B073FF52F
:1008C000E7AEFFF74DFD801B0228F6D93BE7636FCB
:1008D00023F001036367FFF743FD0646636F9F073D
:1008E0007FF5D6AEFFF73CFD801B0228F6D92AE73C
:1008F0000044025800480258AB696E4C83B123682B
:1009000043F480532360FFF72BFD064623689804C9
:100910003FF5C2AEFFF724FD801B0228F6D912E78F
:10092000236823F480532360FFF71AFD06462368EB
:1009300099047FF5B1AEFFF713FD801B0228F6D9AD
:1009400001E7FFF70DFD801B64287FF6B0AEFAE6E5
:10095000B3B9236F41F2883723F001032367236F74
:1009600023F004032367FFF7FBFC0646236F980779
:100970007FF5B4AEFFF7F4FC801BB842F6D9E2E68F
:10098000052B236F03D143F00403236798E623F07C
:1009900001032367236F23F0040394E6FFF7E0FCD1
:1009A000C01BA0427FF696AECDE6424C236903F011
:1009B0003803182B3FF4AFAE2368022A23F080736C
:1009C000236069D1FFF7CCFC0646236899015DD40A
:1009D000A36AAA6A23F47C7323F003031343EA6A2D
:1009E00043EA0213A3626B6BAA6B013B013A5B0201
:1009F00012049BB202F4FE0213432A6B013AC2F3C3
:100A000008021343EA6B013A120602F0FE42134356
:100A100023634FF6F873626B93FAA3F3B3FA83F18F
:100A200022F47F42AB6C22F0F8028B4013436363E5
:100A3000E36A2A6C23F00C031343E362E36A6A6CF3
:100A400023F002031343E362E36A43F48033E36277
:100A5000E36A43F40033E362E36A43F48023E3622E
:100A6000E36A43F00103E362236843F08073236089
:100A7000FFF776FC0F4C054623689A013FF532AE2E
:100A8000FFF76EFC401B0228F6D95CE6FFF768FC16
:100A9000801B022899D956E6FFF762FC05462368B9
:100AA0009B017FF51FAEFFF75BFC401B0228F6D9C8
:100AB00049E600BF00440258484B1A6902F0380268
:100AC000102A10B50ED0182A0ED0002A40F08480CB
:100AD0001A68434812F0200F7FD01B68C3F3C1038C
:100AE000D84010BD3F4810BD9C6A986AD96A5A6BBD
:100AF000C0F3051001F00101DFED3B5AC2F3CC0257
:100B0000514304F0030207EE901A012AB8EEE76A97
:100B1000F7EE007A02D00ED3022A4CD01B6B334A78
:100B2000C3F3080307EE103AB8EEC77AA6EE257AAB
:100B300037EE277A4BE01A6812F0200F284A26D0A9
:100B400019681B6BC1F3C101C3F30803CA40B2FBB0
:100B5000F0F207EE102AF8EEC76A07EE103AB8EE88
:100B6000C77AA6EE257A37EE277A66EE877A1B4B90
:100B70001B6BC3F34623013307EE103AF8EEC76A46
:100B800087EEA67AFCEEC77A17EE900A10BD1B6BB3
:100B9000C3F3080307EE103AB8EEC77AB2FBF0F3DE
:100BA000A6EE257A37EE277A07EE903AF8EEE77A46
:100BB00067EE277ADBE71B6B0A4AC3F3080307EEED
:100BC000103AB8EEC77AA6EE257A37EE277AB2FB4E
:100BD000F0F207EE902AE9E7044810BD00440258FD
:100BE0000090D00300127A000000003900093D0097
:100BF000684A136803F007038B422DE9F04104466D
:100C00000D4642D3226897074CD4D60752D4614A86
:100C1000136803F007039D42C0F0A88022685507BF
:100C200000F1AF80100706D55B496069CB6923F0FE
:100C300070030343CB61D10606D55749A069CB6940
:100C400023F4E0630343CB61930606D5524AE1697E
:100C5000136A23F070030B431362FFF72DFF4E4B13
:100C60004FF480729B6992FAA2F2B2FA82F203F414
:100C70007063D340494AD35CD840494B18600F2079
:100C8000FFF72EFB0020BDE8F081136823F0070377
:100C90000B431360136803F007039942B2D001209D
:100CA000BDE8F0813C49E0688B6923F00F03034302
:100CB0008B61AAE7384BA1689A6922F470620A43F3
:100CC0009A6161681A6802291DD112F4003FE6D0CA
:100CD0001A6941F28838304F22F007020A431A613C
:100CE000FFF73EFB63680646022B19D13B6903F010
:100CF0003803102B8BD0FFF733FB801B4045F5D911
:100D00000320BDE8F081032902D112F0007FDEE765
:100D1000012902D112F4807FD9E712F0040FD6E73F
:100D2000032B0BD13B6903F03803182B3FF46FAF53
:100D3000FFF716FB801B4045F4D9E1E7012B10D1EA
:100D40003B6903F03803082B3FF461AFFFF708FB62
:100D5000801B4045F4D9D3E7FFF702FB801B4045D9
:100D6000CED83B6913F0380FF6D150E7136823F063
:100D700007032B431360136803F007039D428ED1D2
:100D80004CE7054920698B6923F0700303438B61AD
:100D900048E700BF0020005200440258E51D00084B
:100DA0000C00002008B500F0D5FB002008BD30B5D0
:100DB000B0F9084085B0028A0B46842C90E82200E6
:100DC00014BF0334002403A800940190284600F0C7
:100DD000F1FA01280CBF0398002005B030BD0028AF
:100DE00008BF012008B500F00BFD002008BD08B5C4
:100DF00000F0A2FD012803D0BDE8084000F002BACF
:100E000008BD00000F4B10B51A68824218D35C6809
:100E10001919884201BF4168184609195960446888
:100E200001198A4207D1084909688A421FBF5168DF
:100E30001268091941609842026018BF186010BD1D
:100E40001346E1E7403C0020300000202DE9F0414E
:100E5000044600F0BFFB4049404D0B680BBB404AC5
:100E60005607404E1BBFD01D02F570534FF4705310
:100E700020F007001CBF02461B1A002013443260FA
:100E80007060083B23F0070318605860981A0B60E5
:100E90001360354B50601860344B18604FF00043BE
:100EA0002B602F68274216D1002C42D004F1080392
:100EB00058071CBF23F00703083363B12B4A166899
:100EC0009046B34207D8274A15686868834204D819
:100ED00009688D4207D100242BE02C68002CF7D044
:100EE0002A462546F1E7296814681160C21A102ABB
:100EF00011D9E81841070AD04FF0500372B683F3B6
:100F00001188BFF36F8FBFF34F8F62B6FEE7426069
:100F10006B60FFF777FF6B6808341349F61A1F43BD
:100F200008680023C8F8006086426F602B6038BFF5
:100F30000E6000F0EBFB63070AD04FF0500372B66F
:100F400083F31188BFF36F8FBFF34F8F62B6FEE755
:100F50002046BDE8F08100BF30000020343C002076
:100F600034000020403C00203C3C0020383C002065
:100F700010B50446002832D0194A50F8043C1268D3
:100F800013420AD14FF0500372B683F31188BFF3B6
:100F90006F8FBFF34F8F62B6FEE750F8081C51B158
:100FA0004FF0500372B683F31188BFF36F8FBFF316
:100FB0004F8F62B6FEE723EA020340F8043C00F0DC
:100FC00009FB084A54F8043CA4F1080011680B44DA
:100FD0001360FFF717FFBDE8104000F097BB10BD8E
:100FE000343C0020383C002000F108034FF0FF3271
:100FF0004360C36003610023826003607047002385
:101000000361704743689A684B608A609A685160D0
:101010009960036808610133036070470A68531CD4
:1010200030B50AD103695A684A6091608B60596093
:10103000036808610133036030BD00F108035C6898
:101040002568AA42EFD32346F9E74168826803691D
:101050008A60826851605968884208BF5A600022DD
:101060000261186801381860704700000C4B1B685B
:1010700001330AD04FF0500372B683F31188BFF3E7
:101080006F8FBFF34F8F62B6FEE74FF0500372B61B
:1010900083F31188BFF36F8FBFF34F8F62B6FEE704
:1010A0000800002006480068006880F3088862B6DF
:1010B00061B6BFF34F8FBFF36F8F00DF00BF00003B
:1010C00008ED00E0DFF80C00016841F470010160F8
:1010D0007047000088ED00E04FF0807321F00101BF
:1010E00040F8202C44380364034BC16383636FF0E2
:1010F00002030362704700BF6D100008000000008B
:10110000074B19680868B0E8F04F80F30988BFF30F
:101110006F8F4FF0000080F311887047AFF30080AD
:10112000503C00204FF0500372B683F31188BFF398
:101130006F8FBFF34F8F62B60B4A13680133012BD9
:1011400013600FD1094B1B6813F0FF0F0AD04FF04B
:10115000500372B683F31188BFF36F8FBFF34F8FC5
:1011600062B6FEE7704700BF0800002004ED00E013
:10117000094A136853B94FF0500372B683F31188CC
:10118000BFF36F8FBFF34F8F62B6FEE7013B136073
:101190000BB983F31188704708000020000000009D
:1011A000EFF30980BFF36F8F154B1A681EF0100F15
:1011B00008BF20ED108A20E9F04F10604DF8043D83
:1011C0004FF0500072B680F31188BFF34F8FBFF31A
:1011D0006F8F62B600F074FB4FF0000080F311884F
:1011E00008BC19680868B0E8F04F1EF0100F08BF7F
:1011F000B0EC108A80F30988BFF36F8F704700BF8F
:10120000503C002008B54FF0500372B683F31188AC
:10121000BFF36F8FBFF34F8F62B600F0E3F918B1E1
:101220004FF08052024B1A60002383F3118808BDEF
:1012300004ED00E0064B4FF47A721B68B3FBF2F347
:10124000044A013B13600722034B1A60704700BF3A
:101250000C00002014E000E010E000E0234B13B588
:101260001A780021D2B20192FF221A701B78204A0C
:10127000DBB28DF803309DF8033003F05003137098
:1012800007221C4B1A609DF80300541E000623D44D
:1012900001B11A601A68120202F4E0621A60019B3E
:1012A000124ADBB21370144B1A6842F470021A60CF
:1012B0001A6842F070421A60FFF7BCFF00220F4B21
:1012C0001A60FFF7FFFE0E4A136843F040431360B5
:1012D000FFF7E8FEFFF7CAFE9DF803200121520048
:1012E000D2B28DF803202246CDE700BF00E400E033
:1012F000483C00204C3C002020ED00E0080000208D
:1013000034EF00E0064A13681968064B19B94FF02C
:10131000FF321A6070471268D268D2685268F8E7E4
:10132000543C00202C3D0020F8B51B4B04461B4EBE
:101330000F461D6830680430FFF787FE334640B91A
:1013400031680120164EC96A3268884022EA0002DC
:101350003260621C07D137B1196812480431BDE808
:10136000F840FFF74FBE2C441A68A542546007D9D5
:101370000D4A10681968BDE8F8400431FFF74EBE09
:101380000A4A106819680431FFF748FE084B1A68CA
:10139000944200D21C60F8BD743D0020503C0020F7
:1013A000FC3C00204C3D0020583C0020543C0020D8
:1013B0002C3D00202DE9F84F4FEA820A80460F4667
:1013C000994650460B9EFFF741FD0546002800F068
:1013D00096805420FFF73AFD0446002800F08C80E8
:1013E000AAF1040A05637B1E00F1340255440F374D
:1013F00025F0070A597802F8011B13F8011F09B1FB
:10140000BB42F7D10A9D4FF0000B271D062D84F833
:1014100043B03846C4F848B028BF0625E562656485
:10142000C5F10705FFF7EBFD04F11800FFF7E7FD35
:10143000C4F84CB024614A46A561414664625046F6
:1014400084F850B0FFF748FE206006B13460FFF723
:1014500069FE324B324E1A68DFF8F08001321A60B2
:101460003568002D4ED134601B68012B1DD108EB6F
:1014700005001435FFF7B8FD8C2DF8D1DFF8D090BA
:10148000284D4846FFF7B0FD2846FFF7ADFD26483A
:10149000FFF7AAFD2548FFF7A7FD2548FFF7A4FDA4
:1014A000244BC3F80090244B1D60244A0125244995
:1014B0001368086801331360E26A05FA02F3034314
:1014C00014200B60394600FB0280FFF79BFDFFF7FD
:1014D0004FFE1C4B1B6863B13368DA6AE36A9A42B9
:1014E00007D24FF08052184B1A60BFF34F8FBFF3F3
:1014F0006F8F2846BDE8F88F2846FFF739FD4FF07B
:10150000FF35F6E70F4B1B68002BCED13368DA6A44
:10151000E36A9A42C9D83460C7E700BFE83C0020BC
:10152000503C0020143D0020343D0020603D002050
:101530004C3D0020543C0020583C0020F83C00204A
:10154000FC3C0020483D002004ED00E05C3C002015
:10155000003D002013B5194B002480221849019347
:10156000234600941748FFF725FF012816D14FF0B6
:10157000500372B683F31188BFF36F8FBFF34F8FA1
:1015800062B64FF0FF32104B1A60104B1860104BD0
:101590001C6002B0BDE81040FFF760BE01300AD108
:1015A0004FF0500372B683F31188BFF36F8FBFF310
:1015B0004F8F62B6FEE702B010BD00BF283D00208D
:1015C000D41D00084D1800082C3D0020483D002087
:1015D000743D0020024A136801331360704700BF56
:1015E000F43C00202DE9F84F3D4B1B68002B55D1F2
:1015F0003C4B1C6801341C60CCB93B4B1A68126828
:1016000052B14FF0500372B683F31188BFF36F8F5E
:10161000BFF34F8F62B6FEE7344A1968106818604E
:101620001160334A136801331360FFF76BFE314DCD
:101630004FF0000B304F2B689C423ED3DFF8A88060
:10164000DFF8C490D8F80020126872BB4FF0FF3268
:101650002A6032E006F1040A5046FFF7F6FCB16A50
:1016600019B106F11800FFF7F0FCF06A0122D9F871
:1016700000304FF0140E02FA00F119431F4BC9F865
:10168000001051460EFB0030FFF7BCFC3868F16AD1
:10169000C26A914228BF4FF0010BD3E7184A4FF0BE
:1016A000000B13680133136011E0D8F80020D268F2
:1016B000D66871688C42CDD229603A680F4BD16AE6
:1016C00014224A439A58022A28BF4FF0010B0D4AB0
:1016D0001268002A18BF4FF0010B5846BDE8F88F7A
:1016E000F43C0020743D0020543C0020583C002075
:1016F000303D00202C3D0020503C00205C3C002070
:10170000F03C0020783D0020FC3C00202DE9F8430F
:10171000324C236853B94FF0500372B683F31188EB
:10172000BFF36F8FBFF34F8F62B6FEE7FFF7FAFC90
:101730002368013B236024682CB10024FFF718FDC7
:101740002046BDE8F883264B1B68002BF5D0DFF858
:10175000A890244FDFF8A480D9F80030E3B90CB189
:10176000FFF7D0FD204D2C6844B1204E0127FFF734
:1017700039FF00B13760013CF9D12C601B4B1B686D
:10178000002BDAD04FF08052194B1A60BFF34F8F05
:10179000BFF36F8F0124D1E7D9F80C300125DC6845
:1017A000261D04F11800FFF750FC3046FFF74DFCF2
:1017B000E26A3968142005FA02F300FB02800B4349
:1017C00031463B60FFF71EFC0A4BE26A1B68DB6A8E
:1017D0009A42C1D3054B1D60BEE700BFF43C002018
:1017E000E83C0020FC3C0020F03C0020783D00203C
:1017F00004ED00E0503C0020343D00205C3C002023
:1018000008B540B94FF080520E4B1A60BFF34F8FAE
:10181000BFF36F8F08BD0C4B196851B14FF05003E7
:1018200072B683F31188BFF36F8FBFF34F8F62B629
:10183000FEE7FFF7CFFEFFF777FDFFF767FF002812
:10184000E0D008BD04ED00E0F43C0020174E08B5E0
:10185000174C236863B9174B1B68012BF8D94FF05D
:101860008052154B1A60BFF34F8FBFF36F8FEFE7B6
:10187000FFF7B0FE3568FFF749FF002DE9D0FFF70D
:1018800051FCF368DD68281DFFF7DFFB0B4A136886
:10189000013B13602368013B2360FFF769FC286B61
:1018A000FFF766FB2846FFF763FBD2E7603D0020A9
:1018B000EC3C00205C3C002004ED00E0E83C002013
:1018C000184B1A68184B10B512B101221A6010BDDE
:1018D0001A60164B1B68B3FA83F3DBB21422144967
:1018E000C3F11F035A438C58881854B94FF0500362
:1018F00072B683F31188BFF36F8FBFF34F8F62B659
:10190000FEE74468083264680A449442446004BFB5
:1019100062684260142202FB03135B68DA68054BBD
:10192000D4E700BFF43C0020783D0020FC3C0020C0
:101930005C3C0020503C0020054B1B6833B1054B3C
:101940001B68002B0CBF022000207047012070474D
:10195000483D0020F43C002008B50120FFF73FFA85
:10196000FBE7000030B5074D87B00FCD01AC0FC4C9
:101970002B68002101A82360FFF719FA024B1860B9
:1019800007B030BDC01D00087C3D0020674B4FF400
:101990008141D3F8E02042F004022DE9F047C3F87A
:1019A000E0208CB0D3F8E0200024DFF890814FF4E1
:1019B000005A02F004025E4E4046DFF88491019224
:1019C0000225019A0B27D3F8E02042F08002C3F8E9
:1019D000E020D3F8E02002F080020292029AD3F8CD
:1019E000E02042F00102C3F8E020D3F8E02002F04A
:1019F00001020392039AD3F8E02042F00202C3F8F6
:101A0000E020D3F8E02002F002020492049AD3F816
:101A1000E02042F00802C3F8E020D3F8E02002F012
:101A200008020592059AD3F8E02042F04002C3F87C
:101A3000E0200022D3F8E03003F040030693069B39
:101A4000FEF7EAFD002230464021FEF7E5FD394B66
:101A500007A94846CDF81CA008930994FEF7F2FCAC
:101A6000322307A94846A9F5006907930895099408
:101A70000A940B97FEF7E6FC862307A948460895CB
:101A8000079309940A940B97FEF7DCFC07A94046DC
:101A9000CDF81CA04FF0010A089509940A940B9701
:101AA000FEF7D0FC4FF4814307A94046CDF820A0B3
:101AB000079309940A94FEF7C5FC4FF4407307A9F5
:101AC0001D480793072308950B9309940A94FEF782
:101AD000B9FC402307A93046CDF820A0079309940C
:101AE0000A94FEF7AFFC802307A9304608940793B9
:101AF0000994FEF7A7FC4FF4E85307A94846089558
:101B000007930A2309940B930A94FEF79BFC4FF466
:101B1000205307A930460895079309940A940B9718
:101B2000FEF790FC0CB0BDE8F08700BF00440258FF
:101B30000018025800001111000C0258000402584D
:101B400000080258294BDA6822F0040230B5DA6046
:101B50009DB0002200929A6922F4404242F48042F1
:101B60009A619A6902F440420092009A9A6992043A
:101B7000FCD510220A210223042401250D9215917F
:101B800000220C2109A809930C9512931392149426
:101B900016931794189319911A931B92FEF742FD0E
:101BA00000B1FEE73F2303900490294601930323ED
:101BB000059006900790089001A80293FFF718F887
:101BC000054600B1FEE70A4B18684FF47A73B0FB84
:101BD000F3F0FEF715FC2046FEF728FC2A460F21FD
:101BE0004FF0FF30FEF7D4FB1DB030BD0048025867
:101BF0000C00002008B5FEF797FBFFF7A3FFFFF7E7
:101C0000C5FEFFF7AFFEFFF7CDF8FEE71E4B07B5A9
:101C1000D3F8F420032042F00202C3F8F420D3F8F2
:101C2000F43003F002030193019BFEF79FFB0022B7
:101C30006FF00B001146FEF7ABFB00226FF00A00BD
:101C40001146FEF7A5FB00226FF009001146FEF7D2
:101C50009FFB00226FF004001146FEF799FB002263
:101C60006FF003001146FEF793FB00220F216FF087
:101C70000100FEF78DFB00220F214FF0FF30FEF731
:101C800087FB03B05DF804FB004402587047FEE791
:101C9000FEE7FEE7FEE7704708B5FEF755FBBDE837
:101CA0000840FFF7A4B8000014491548D1F888305F
:101CB00043F4700310B5C1F88830124B1A6842F033
:101CC00001021A6000221A611C68204018609A61A3
:101CD000DA611A629A62DA621A635A639A63DA63A1
:101CE0001A645A64186820F4802018601A66012269
:101CF000054B1A604FF000638B6010BD00ED00E0F3
:101D00007FEDF6EA0044025808810051DFF834D034
:101D1000002103E00C4B5B58435004310B480C4B43
:101D200042189A42F6D30B4A02E0002342F8043BE1
:101D3000094B9A42F9D3FFF7B7FF00F011F8FFF70C
:101D400059FF704700000220001E0008000000201C
:101D50001000002010000020803D0020FEE7000061
:101D600070B50D4E0D4CA41BA4100025A54209D141
:101D70000B4E0C4C00F018F8A41BA4100025A54233
:101D800005D170BD56F8253098470135EEE756F875
:101D9000253098470135F2E7F81D0008F81D0008C6
:101DA000F81D0008FC1D0008F8B500BFF8BC08BC11
:101DB0009E467047F8B500BFF8BC08BC9E46704709
:101DC000D91D00085919000800000000000000009B
:101DD0008000000049444C450064656661756C7480
:101DE0005461736B00000000000102030401020350
:081DF0000406070809000000C9
:041DF800C502000818
:041DFC00A102000838
:101E00000100000010000000AAAAAAAA0090D003B6
:0400000508001D0DC5
:00000001FF
