:020000040800F2
:10000000000002200D2E00088D2D00088F2D000805
:10001000912D0008932D0008952D00080000000088
:1000200000000000000000000000000001200008A7
:10003000972D000800000000A1200008992D00085D
:100040005D2E00085D2E00085D2E00085D2E000864
:100050005D2E00085D2E00085D2E00085D2E000854
:100060005D2E00085D2E00085D2E00085D2E000844
:100070005D2E00085D2E00085D2E00085D2E000834
:100080005D2E00085D2E00085D2E00085D2E000824
:100090005D2E00085D2E00085D2E00085D2E000814
:1000A0005D2E00089D2D00085D2E00085D2E0008C5
:1000B0005D2E00085D2E00085D2E00085D2E0008F4
:1000C0005D2E00085D2E00085D2E00085D2E0008E4
:1000D0005D2E00085D2E00085D2E00085D2E0008D4
:1000E0005D2E00085D2E0008000000005D2E000857
:1000F0005D2E00085D2E00085D2E00085D2E0008B4
:100100005D2E00085D2E00085D2E00085D2E0008A3
:100110005D2E00085D2E00085D2E00085D2E000893
:100120005D2E00085D2E00085D2E00085D2E000883
:100130005D2E00085D2E00085D2E00085D2E000873
:1001400000000000000000000000000000000000AF
:100150005D2E00085D2E00085D2E00085D2E000853
:100160005D2E00085D2E00085D2E00085D2E000843
:100170005D2E00085D2E00085D2E000800000000C6
:100180005D2E00085D2E00085D2E00085D2E000823
:100190005D2E00085D2E00085D2E00085D2E000813
:1001A0005D2E00085D2E00085D2E00085D2E000803
:1001B0005D2E00085D2E00085D2E00085D2E0008F3
:1001C0005D2E00085D2E00085D2E00085D2E0008E3
:1001D0005D2E00085D2E00085D2E00085D2E0008D3
:1001E0005D2E00085D2E00085D2E00085D2E0008C3
:1001F0005D2E00085D2E00085D2E00085D2E0008B3
:100200005D2E00085D2E00085D2E00085D2E0008A2
:100210005D2E00085D2E00085D2E00085D2E000892
:100220005D2E00085D2E00085D2E00080000000015
:100230005D2E00085D2E0008000000005D2E000805
:100240005D2E00085D2E00085D2E00085D2E000862
:100250005D2E00085D2E00085D2E00085D2E000852
:100260005D2E00085D2E00085D2E00085D2E000842
:100270005D2E00085D2E00085D2E000800000000C5
:100280005D2E0008000000005D2E00080000000048
:08029000000000005D2E0008D3
:1002A00010B5054C237833B9044B13B10448AFF3B0
:1002B00000800123237010BD10000020000000000A
:1002C000A82E000808B5034B1BB103490348AFF340
:1002D000008008BD0000000014000020A82E0008C7
:1002E00010B5032000F01EF8002002F011FD0446B6
:1002F00018B902F0CDFC204610BD0124FBE7000038
:10030000034A044B11681B780B441360704700BF0D
:100310002C00002000000020014B1868704700BF2F
:100320002C000020074A0002D36800F4E06023F4A8
:10033000E0631B041B0C43F0BF6343F4003303432F
:10034000D360704700ED00E0194B30B5DC68C4F3B2
:100350000224C4F10703251D042B28BF0423062D06
:100360004FF001058CBF033C002405FA03F300287D
:1003700003F1FF3301EA030101FA04F105FA04F481
:1003800004F1FF3402EA040242EA01024FEA0212D7
:1003900007DB00F16040D2B200F5614080F8002335
:1003A00030BD00F00F00D2B2024B1A5430BD00BF76
:1003B00000ED00E014ED00E0002808DB4209012315
:1003C00000F01F0003FA00F0014B43F822007047D1
:1003D00000E100E00138B0F1807F0AD2064BF02145
:1003E000064A5860002082F82310072298601A609D
:1003F00070470120704700BF10E000E000ED00E012
:10040000044B04281A680CBF42F0040222F00402D4
:100410001A60704710E000E02DE9F04F0B6885B0DE
:10042000DFF8C0814FF0B04901930023DFF8B8C175
:100430000127019A9F4007EA0205AF4240F0B780CA
:100440004A6822F01006022E16D14FEAD30A03F0B2
:10045000070B4FF00F0E00EB8A0A4FEA8B0BDAF80E
:1004600020400EFA0BFE24EA0E0E0C6904FA0BF47F
:1004700044EA0E04CAF820404FEA430A0324D0F8A5
:1004800000B002F0030E04FA0AF4013E0EFA0AFE6E
:10049000E443012E0BEA040B4EEA0B0EC0F800E019
:1004A00010D8866806EA040BCE6806FA0AFE4EEA01
:1004B0000B068660466826EA0707C2F300169E40D0
:1004C00037434760C66834408E6806FA0AF63443FC
:1004D000C460D4006BD5D8F8F44023F0030603F0D1
:1004E00003074FF00F0E44F0020406F1B046BF00C0
:1004F000C8F8F44006F58066D8F8F44004F0020429
:100500000394039C0EFA07F4D6F808A02AEA040E16
:10051000334CA04252D004F58064A04250D004F580
:100520008064A0424ED004F58064A0424CD004F513
:100530008064A0424AD004F58064A04248D004F50B
:100540008064A04246D004F58064A04244D004F503
:100550008064A04242D004F58064A04214BF0A2403
:100560000924BC40D70344EA0E04B4606FEA0506D0
:10057000DCF8004054BF34402C439703CCF80040D3
:10058000DCF8044054BF34402C43D7024FF0B0474E
:10059000CCF80440D9F8004054BF34402C439202B8
:1005A0003C607C6854BF34402C43C9F8044001339C
:1005B000102B7FF43DAF05B0BDE8F08F0024D0E7ED
:1005C0000124CEE70224CCE70324CAE70424C8E7C9
:1005D0000524C6E70624C4E70724C2E70824C0E7C9
:1005E0000000025800440258800000580AB10183FC
:1005F00070474183704710B5044600284AD090F8F0
:10060000413003F0FF021BB980F8402002F08EFA5F
:100610002423E16884F84130012923681A6822F014
:1006200001021A60626822F070621A619A6822F40C
:1006300000429A60A26824D142F400429A605A684B
:100640000020616942F0007242F400425A60DA68A8
:1006500022F40042DA6022690A43A16942EA0122D7
:10066000216ADA60E2690A431A601A6842F00102FC
:100670001A602023606484F84130206384F84200CB
:1006800010BD42F4044202299A60D8D14FF40062AE
:100690005A60D4E7012010BD90F84120D2B2202A40
:1006A00010B51DD190F84030012B19D0242380F8CB
:1006B000413003681C6824F001041C601C6824F4A9
:1006C00080541C601C6821431960196841F00101C5
:1006D0001960002380F8412080F84030184610BD92
:1006E000022010BD10B590F84140E4B2202C1CD17E
:1006F00090F84030012B18D0242380F84130036853
:100700001A6822F001021A601A6822F4706242EA42
:10071000012119601A6842F001021A60002380F872
:10072000414080F84030184610BD022010BD000046
:10073000F8B503680546D8075CD42B68990700F123
:10074000AF802B68D90625D5AC4B1A6902F0380268
:10075000082A0BD01A6902F03802182A40F0F780F4
:100760009B6A03F00303012B40F0F180A34B1A684E
:10077000D20502D5EA69802A53D158684FF0F84271
:1007800092FAA2F2B2FA82F12A6A8A4020F0F84183
:100790000A435A602B68190700F10B812B689A06EF
:1007A00000F130812B685C071ED5954C236843F41B
:1007B00080732360FFF7B0FD06462368DA0540F139
:1007C0004681AB688D4C012B40F04881236F43F08C
:1007D0000103236741F28834FFF79EFD874E0746E9
:1007E000336F9B0740F160816A6A002A40F06381A1
:1007F0000020F8BD814B1A6902F03802102A09D096
:100800001A6902F03802182A0DD19B6A03F003031B
:10081000022B08D1794B1B689A038ED56B68002B8D
:100820008BD10120F8BD6B68744CB3F5803F12D1B9
:10083000236843F480332360FFF76EFD6F4C064658
:1008400023689B033FF579AFFFF766FD801B6428A3
:10085000F6D90320F8BDA3B9236823F480332360BD
:10086000236823F480232360FFF756FD06462368A0
:100870009F037FF562AFFFF74FFD801B6428F6D919
:10088000E7E7B3F5A02F236803D143F48023236067
:10089000CEE723F480332360236823F48023CAE760
:1008A000564BE9681A6912F0380F07D01A6902F03E
:1008B0003802182A28D19B6A9C0725D14F4A136811
:1008C000580701D50029ACD013684C4C23F019030C
:1008D0000B431360FFF720FD064623685B070DD529
:1008E00061684FF47C3393FAA3F3B3FA83F22B6974
:1008F000934021F47C321343636022E7FFF70CFD41
:10090000801B0228E9D9A4E73C4C236879B123F085
:1009100019030B432360FFF7FFFC064623685F07BC
:10092000DED4FFF7F9FC801B0228F7D991E723F00A
:1009300001032360FFF7F0FC0646236858077FF5A4
:1009400000AFFFF7E9FC801B0228F6D981E7EB69CD
:100950002A4CEBB1236843F080032360FFF7DCFCF3
:1009600006462368DF050DD561684FF0F84393FA1A
:10097000A3F3B3FA83F22B6A934021F0F8421343B6
:10098000636007E7FFF7C8FC801B0228E9D960E72E
:10099000236823F080032360FFF7BEFC064623682C
:1009A000D8057FF5F7AEFFF7B7FC801B0228F6D914
:1009B0004FE76B69114C83B1636F43F001036367C9
:1009C000FFF7AAFC0646636F9B073FF5E7AEFFF70C
:1009D000A3FC801B0228F6D93BE7636F23F00103D9
:1009E0006367FFF799FC0646636F9F077FF5D6AEF6
:1009F000FFF792FC801B0228F6D92AE70044025830
:100A000000480258AB696E4C83B1236843F48053AD
:100A10002360FFF781FC0646236898043FF5C2AEC9
:100A2000FFF77AFC801B0228F6D912E7236823F42B
:100A300080532360FFF770FC0646236899047FF516
:100A4000B1AEFFF769FC801B0228F6D901E7FFF77A
:100A500063FC801B64287FF6B0AEFAE6B3B9236F5F
:100A600041F2883723F001032367236F23F0040347
:100A70002367FFF751FC0646236F98077FF5B4AE56
:100A8000FFF74AFC801BB842F6D9E2E6052B236F3C
:100A900003D143F00403236798E623F0010323679F
:100AA000236F23F0040394E6FFF736FCC01BA0423B
:100AB0007FF696AECDE6424C236903F03803182B3F
:100AC0003FF4AFAE2368022A23F08073236069D11C
:100AD000FFF722FC0646236899015DD4A36AAA6A3F
:100AE00023F47C7323F003031343EA6A43EA0213FB
:100AF000A3626B6BAA6B013B013A5B0212049BB2CF
:100B000002F4FE0213432A6B013AC2F308021343B4
:100B1000EA6B013A120602F0FE42134323634FF6DA
:100B2000F873626B93FAA3F3B3FA83F122F47F4272
:100B3000AB6C22F0F8028B4013436363E36A2A6CC8
:100B400023F00C031343E362E36A6A6C23F00203AD
:100B50001343E362E36A43F48033E362E36A43F4FA
:100B60000033E362E36A43F48023E362E36A43F021
:100B70000103E362236843F080732360FFF7CCFB3B
:100B80000F4C054623689A013FF532AEFFF7C4FBD0
:100B9000401B0228F6D95CE6FFF7BEFB801B02284B
:100BA00099D956E6FFF7B8FB054623689B017FF508
:100BB0001FAEFFF7B1FB401B0228F6D949E600BF84
:100BC00000440258484B1A6902F03802102A10B546
:100BD0000ED0182A0ED0002A40F084801A684348AC
:100BE00012F0200F7FD01B68C3F3C103D84010BDA3
:100BF0003F4810BD9C6A986AD96A5A6BC0F30510C9
:100C000001F00101DFED3B5AC2F3CC02514304F085
:100C1000030207EE901A012AB8EEE76AF7EE007AAF
:100C200002D00ED3022A4CD01B6B334AC3F3080305
:100C300007EE103AB8EEC77AA6EE257A37EE277A95
:100C40004BE01A6812F0200F284A26D019681B6B57
:100C5000C1F3C101C3F30803CA40B2FBF0F207EECF
:100C6000102AF8EEC76A07EE103AB8EEC77AA6EE79
:100C7000257A37EE277A66EE877A1B4B1B6BC3F318
:100C80004623013307EE103AF8EEC76A87EEA67ADC
:100C9000FCEEC77A17EE900A10BD1B6BC3F3080376
:100CA00007EE103AB8EEC77AB2FBF0F3A6EE257A5B
:100CB00037EE277A07EE903AF8EEE77A67EE277A72
:100CC000DBE71B6B0A4AC3F3080307EE103AB8EEE2
:100CD000C77AA6EE257A37EE277AB2FBF0F207EE56
:100CE000902AE9E7044810BD004402580090D00360
:100CF00000127A000000003900093D00684A1368BC
:100D000003F007038B422DE9F04104460D4642D320
:100D1000226897074CD4D60752D4614A136803F06F
:100D200007039D42C0F0A8802268550700F1AF80FC
:100D3000100706D55B496069CB6923F07003034354
:100D4000CB61D10606D55749A069CB6923F4E0638E
:100D50000343CB61930606D5524AE169136A23F037
:100D600070030B431362FFF72DFF4E4B4FF480725D
:100D70009B6992FAA2F2B2FA82F203F47063D34052
:100D8000494AD35CD840494B1860002001F0C0FFAD
:100D90000020BDE8F081136823F007030B431360C4
:100DA000136803F007039942B2D00120BDE8F08137
:100DB0003C49E0688B6923F00F0303438B61AAE78A
:100DC000384BA1689A6922F470620A439A6161689B
:100DD0001A6802291DD112F4003FE6D01A6941F2C7
:100DE0008838304F22F007020A431A61FFF794FA5D
:100DF00063680646022B19D13B6903F03803102BB8
:100E00008BD0FFF789FA801B4045F5D90320BDE858
:100E1000F081032902D112F0007FDEE7012902D11F
:100E200012F4807FD9E712F0040FD6E7032B0BD121
:100E30003B6903F03803182B3FF46FAFFFF76CFAF0
:100E4000801B4045F4D9E1E7012B10D13B6903F049
:100E50003803082B3FF461AFFFF75EFA801B404573
:100E6000F4D9D3E7FFF758FA801B4045CED83B6949
:100E700013F0380FF6D150E7136823F007032B4324
:100E80001360136803F007039D428ED14CE70549B8
:100E900020698B6923F0700303438B6148E700BF2F
:100EA0000020005200440258F22E000808000020E2
:100EB00008B500F093FD084B01229B6992FAA2F25B
:100EC000B2FA82F203F00F03D340044AD35CD84055
:100ED000034B186008BD00BF00440258F22E000802
:100EE0000C00002008B5FFF7E3FF074B4FF48072BA
:100EF000DB6992FAA2F2B2FA82F203F4E063D34021
:100F0000024AD35CD84008BD00440258F22E0008C3
:100F10003F230360114B1A6902F0070242609A698D
:100F200002F4706282609A6902F00F02C2609A69EC
:100F300002F070020261DA6902F070024261DA695D
:100F400002F4E06282611B6A03F07003C361044B28
:100F50001B6803F007030B60704700BF0044025892
:100F600000200052F8B5314C06460D46A36A03F046
:100F70000303032B58D0236823F080632360FFF71B
:100F8000CBF9074623681A013AD4A36A326823F4DE
:100F90007C3343EA0233A362B368F268013B013A4F
:100FA0005B0212049BB202F4FE0213437268013A20
:100FB000C2F3080213433269013A120602F0FE42FC
:100FC0001343A363E36A726923F0C0031343E3622C
:100FD000E36AB26923F020031343E362E36AB5B91D
:100FE00043F40023E362114C236843F080632360E1
:100FF000FFF792F9054623681B010FD50020F8BDC5
:10100000FFF78AF9C01B0228BCD90320F8BD012DC7
:101010000CBF43F4801343F40013E3E7FFF77CF9BC
:10102000401B0228E7D9F0E70120F8BD0044025830
:10103000F8B5314C06460D46A36A03F00303032BB3
:1010400058D0236823F080532360FFF765F90746E3
:1010500023689A003AD4A36A326823F07C7343EA87
:101060000253A362B368F268013B013A5B021204C7
:101070009BB202F4FE0213437268013AC2F3080203
:1010800013433269013A120602F0FE42134323640D
:10109000E36A726923F440631343E362E36AB2696B
:1010A00023F400731343E362E36AB5B943F48003A6
:1010B000E362114C236843F080532360FFF72CF95F
:1010C000054623689B000FD50020F8BDFFF724F9E3
:1010D000C01B0228BCD90320F8BD012D0CBF43F46E
:1010E000000343F08073E3E7FFF716F9401B022883
:1010F000E7D9F0E70120F8BD004402582DE9F84394
:101100000468054614F0006014D06B6EB3F5801FC0
:1011100018D002D883B101241BE0B3F5001F23D0FF
:10112000B3F5401FF7D1A64A696E136D23F440133F
:101130000B43136500240CE0A14AD36A43F4003347
:10114000D362F0E70221281DFFF70CFF04460028B8
:10115000E9D02B68DE053CD56B6D042B34D8DFE875
:1011600003F009102D0E0E00022105F12400FFF7F7
:101170005FFFEBE7924AD36A43F40033D36226461B
:1011800004E00021281DFFF7EDFE0646EEB98C4A6B
:10119000696D136D23F007030B4313652B689805E6
:1011A00027D5AB6D802B43D015D8002B34D0402BE6
:1011B00038D0012644EA0600C4B21AE0002105F145
:1011C0002400FFF735FFE0E7012644EA0600C4B239
:1011D000E4E72646E2E7C02B02D0B3F5807FE8D1F2
:1011E000002EE7D1764AA96D136D23F4E0730B430B
:1011F00013652B68590531D5D5F8A430B3F5800FA8
:101200004BD01BD8002B3CD0B3F5001F3FD001269C
:1012100044EA0600C4B221E0694AD36A43F40033C9
:10122000D362DDE70021281DFFF79CFE0646D7E7C5
:10123000002105F12400FFF7FBFEF7E7B3F5C00F2F
:1012400002D0B3F5000FE2D1002EE1D15C4AD5F80F
:10125000A410936D23F460030B4393652B681A0568
:1012600031D5D5F8A830B3F1007F45D01BD8002B7D
:1012700036D0B3F1807F39D0012644EA0600C4B2EB
:1012800021E04F4AD36A43F40033D362DCE7002104
:10129000281DFFF767FE0646D6E7002105F124006A
:1012A000FFF7C6FEF7E7B3F1407F02D0B3F1806FDE
:1012B000E2D1002EE1D1424AD5F8A810936D23F077
:1012C000E0630B4393652B689B0128D5AB6C102B17
:1012D00037D017D8D3B1012644EA0600C4B21EE0C5
:1012E000374AD36A43F40033D362E2E70021281D72
:1012F000FFF738FE0646DCE7002105F12400FFF782
:1013000097FEF7E7202B22D0302BE4D1002EE3D13B
:101310002B4AA96CD36C23F030030B43D3642B68A6
:10132000DF0429D5EB6DB3F5005F42D015D8002B53
:1013300033D0B3F5805F36D0012644EA0600C4B24C
:101340001AE01F4AD36A43F40033D362DEE7022176
:10135000281DFFF707FE0646D8E7B3F5405F02D029
:10136000B3F5804FE8D1002EE7D1154AE96D136D32
:1013700023F4E0430B4313652B68980434D52B6E9C
:10138000B3F5003F48D01DD82BB3B3F5803F3DD017
:10139000012644EA0600C4B226E0094AD36A43F4AF
:1013A0000033D362DFE70021281DFFF7DBFD06468F
:1013B000D9E7002105F12400FFF73AFEF7E700BF67
:1013C00000440258B3F5802F05D0B3F5A02F02D00A
:1013D000B3F5403FDCD1002EDBD1A04A296E136D5E
:1013E00023F4E0230B4313652B6859042DD5D5F85E
:1013F000AC30B3F1005F4CD014D8E3B1B3F1805FEF
:1014000041D0012644EA0600C4B21EE00121281D95
:10141000FFF7A8FD0646DEE7012105F12400FFF7EE
:1014200007FEF7E7B3F1804F05D0B3F1A04F02D02C
:10143000B3F1405FE5D1002EE4D1884AD5F8AC1075
:10144000936D23F0E0430B4393652B681A040FD58B
:10145000EB6EB3F1805F22D0B3F1005F25D053BBB8
:1014600056BB7E4AE96E136D23F040530B43136560
:101470002B68DB0132D56B6C032B00F28A80DFE82E
:1014800003F0241F82240121281DFFF76BFD06466F
:10149000D1E7012105F12400FFF7CAFDF7E76F4A04
:1014A000D36A43F40033D362DAE70121281DFFF742
:1014B00059FD0646D4E7012644EA0600C4B2D7E740
:1014C000664AD36A43F40033D362002E62D1634A82
:1014D000696CD36C23F003030B43D3642B685F0266
:1014E00042D55F4F3B6843F480733B60FEF714FFC7
:1014F00080463B68D80551D5002E56D1574BD5F8BC
:10150000B0001A6F424012F4407F0BD01A6F196F6F
:1015100022F4407241F480311967196F21F480314F
:1015200019671A67B0F5807F08D1FEF7F5FE4B4FBB
:10153000804641F288393B6F99073AD5D5F8B030EB
:10154000464903F44072B2F5407F3DD10869454AEF
:1015500020F47C5002EA131202430A61C3F30B0326
:101560003E4A116F0B4313672B68DA073FD5AB6F09
:10157000102B4DD02CD88BB3082B43D0012644EA36
:101580000600C4B233E00221281DFFF7EBFC06463B
:101590009BE7012644EA0600C4B29FE7FEF7BCFEC3
:1015A000A0EB08006428A4D9032644EA0600C4B2CC
:1015B000DAE7FEF7B1FEA0EB08004845BBD944F0DE
:1015C00003000326C4B2CFE70A6922F47C52C4E7C1
:1015D000202B03D0282B01D0182BCFD1002ECED119
:1015E0001E4AA96F536D23F038030B4353652B68D4
:1015F0009B0720D56B6F052B36D8DFE803F0140F5F
:10160000281414140121281DFFF7ACFC0646E5E759
:10161000012105F12400FFF70BFDF7E70121281D4B
:10162000FFF7A0FC064606BB0C4A696F536D23F01A
:1016300007030B4353652B685F0728D5D5F8903017
:10164000052B3CD8DFE803F01A15351A1A1A0121C8
:1016500005F12400FFF7ECFCE4E700BF004402586A
:1016600000480258CFFFFF00012644EA0600C4B23A
:10167000E1E70121281DFFF775FC064606BB994AE4
:10168000D5F89010936D23F007030B4393652B68F7
:1016900098062CD5D5F88C30B3F1005F3FD013D825
:1016A000DBB1B3F1805F34D0012644EA0600C4B256
:1016B0001DE0012105F12400FFF7BAFCDDE701265A
:1016C00044EA0600C4B2E2E7B3F1804F05D0B3F1BB
:1016D000A04F02D0B3F1405FE6D1002EE5D1814AA0
:1016E000D5F88C10536D23F0E0430B4353652B6802
:1016F00059062DD5D5F89830B3F5006F42D014D8DF
:10170000E3B1B3F5806F37D0012644EA0600C4B2D6
:101710001EE00021281DFFF725FC0646DDE702211B
:1017200005F12400FFF784FCF7E7B3F5805F05D0EF
:10173000B3F5A05F02D0B3F5406FE5D1002EE4D140
:10174000684AD5F89810936D23F4E0530B439365E2
:101750002B681A062FD5D5F89C30B3F5804F00F0D2
:10176000958015D8EBB1B3F5005F00F089800126B4
:1017700044EA0600C4B21EE00021281DFFF7F2FB78
:101780000646DBE7022105F12400FFF751FCF7E7ED
:10179000B3F5004F05D0B3F5204F02D0B3F5C04FDD
:1017A000E5D1002EE4D14F4AD5F89C10936D23F477
:1017B00060430B4393652B681B070BD5D5F880104E
:1017C000B1F5805F68D1022105F12400FFF730FCFC
:1017D0000443E4B22B68DF060BD5D5F89410B1F5BD
:1017E000807F60D1022105F12400FFF721FC044332
:1017F000E4B22B68180317D5D5F8A010B1F5803FD7
:1018000058D0B1F5003F05D0002959D1281DFFF768
:10181000A9FB0646002E54D1324AD5F8A010936D8C
:1018200023F440330B4393652B68590319D5D5F83E
:101830008430B3F5001F48D0B3F5401F07D0B3F58F
:10184000801F49D1274AD36A43F40033D362002E64
:1018500043D1244AD5F88410536D23F440130B432D
:1018600053652B68DA034DD5EB6C002B3CD0B3F5F8
:10187000803F00F09980012644EA0600C4B241E0AE
:101880000021281DFFF76EFB06468AE7022105F1BD
:101890002400FFF7CDFBF7E7124A536D23F44053C2
:1018A0000B43536596E70F4A936D23F440730B4344
:1018B00093659EE7022105F12400FFF7B9FBA8E735
:1018C000012644EA0600C4B2AEE7012105F1240076
:1018D000FFF7AEFB0646BAE7012644EA0600C4B2AB
:1018E000BFE700BF004402583B4AD36A43F40033C9
:1018F000D362002EC0D1384AE96CD36C23F4803314
:101900000B43D3642B689B0006D5022105F124000C
:10191000FFF78EFB0443E4B22B689F030ED5E96FFB
:10192000B1F5807F51D045D8002949D1002E48D14A
:101930002948426D22F440720A434265DE0206D510
:101940002549286F0A6D22F0004202430A65D8003B
:1019500007D52149D5F8B4000A6922F48042024330
:101960000A61990206D51C49A86E0A6D22F08072A0
:1019700002430A655A0009D5174A116921F400414A
:1019800011611169D5F8B80001431161002B06DA25
:10199000114A296DD36C23F040530B43D364201CB0
:1019A00018BF0120BDE8F8830221281DFFF7DAFAED
:1019B00006469EE7B1F5007FB8D0B1F5407FB5D0BF
:1019C000012644EA0600C4B2B8E70348C26A42F4FA
:1019D0000032C262AAE700BF0044025808B5FFF710
:1019E000F1F8084B4FF480729B6992FAA2F2B2FAB6
:1019F00082F203F47063D340034AD35CD840034BB4
:101A0000186008BD00440258F22E000808000020AB
:101A1000704702680020D36843F00103D360138845
:101A20009BB243F0010313807047704770477047C3
:101A3000704703681A69910710B504460FD5DA6834
:101A400092070CD56FF002021A6101229B6902779E
:101A5000990700F08580FFF7E9FF002323772368CB
:101A60001A69520710D5DA6850070DD56FF00402D5
:101A700020461A6102229B69227713F4407F75D0B9
:101A8000FFF7D4FF0023237723681A6911070FD5C6
:101A9000DA6812070CD56FF0080220461A6104229A
:101AA000DB6922779B0767D0FFF7C0FF002323770E
:101AB00023681A69D00610D5DA68D1060DD56FF003
:101AC000100220461A610822DB69227713F4407F56
:101AD00058D0FFF7ABFF0023237723681A69D2079A
:101AE00008D5DA68D00705D56FF0010220461A61E3
:101AF00001F0C2F823681A69110608D5DA681206DF
:101B000005D56FF0800220461A6100F0C6F8236800
:101B10001A69D00508D5DA68110605D56FF080027C
:101B200020461A6100F0B9F823681A69520608D5F0
:101B3000DA68500605D56FF0400220461A61FFF7BB
:101B400077FF23681A69910622D5DA6892061FD5B5
:101B50006FF0200220461A61BDE8104000F09CB8EA
:101B6000FFF763FF2046FFF762FF76E7FFF75DFFB1
:101B70002046FFF75CFF85E7FFF757FF2046FFF79A
:101B800056FF93E7FFF751FF2046FFF750FFA2E70C
:101B900010BD0000314A038890429BB212D0B0F1D0
:101BA000804F0FD0A2F57C4290420BD002F58062AC
:101BB000904207D002F58062904203D002F578424D
:101BC000904219D14A6823F070031343234A90428C
:101BD0001DD0B0F1804F1AD0A2F57C42904216D0B1
:101BE00002F58062904212D002F5806290420ED0DF
:101BF00002F5784290420AD0194A904207D002F585
:101C00008062904203D002F58062904203D123F4B7
:101C10004073CA6813434A6923F0800313439BB29D
:101C200003808B68C3620B8803850C4B98420FD0EE
:101C300003F5806398420BD003F57053984207D0A8
:101C400003F58063984203D003F58063984201D185
:101C50000B8A038601234361704700BF00000140E7
:101C60000040014010B50446A0B190F83D3003F0AB
:101C7000FF021BB980F83C20FFF7CAFE0223206850
:101C8000211D84F83D30FFF785FF0123002084F8F3
:101C90003D3010BD012010BD7047704708B500F001
:101CA000D9FB002008BD30B5B0F9084085B0028AE4
:101CB0000B46842C90E8220014BF0334002403A8B0
:101CC00000940190284600F0F5FA01280CBF039813
:101CD000002005B030BD002808BF012008B500F085
:101CE0000FFD002008BD08B500F0A6FD012803D0B7
:101CF000BDE8084000F006BA08BD00000F4B10B563
:101D00001A68824218D35C681919884201BF416879
:101D1000184609195960446801198A4207D10849CF
:101D200009688A421FBF51681268091941609842C8
:101D3000026018BF186010BD1346E1E7403C002068
:101D4000300000202DE9F041044600F0C3FB40497B
:101D5000404D0B680BBB404A5607404E1BBFD01D81
:101D600002F570534FF4705320F007001CBF024679
:101D70001B1A0020134432607060083B23F00703F5
:101D800018605860981A0B601360354B50601860EB
:101D9000344B18604FF000432B602F68274216D158
:101DA000002C42D004F1080358071CBF23F007039E
:101DB000083363B12B4A16689046B34207D8274AC6
:101DC00015686868834204D809688D4207D10024E9
:101DD0002BE02C68002CF7D02A462546F1E729682D
:101DE00014681160C21A102A11D9E81841070AD0E4
:101DF0004FF0500372B683F31188BFF36F8FBFF3B8
:101E00004F8F62B6FEE742606B60FFF777FF6B684B
:101E100008341349F61A1F4308680023C8F8006005
:101E200086426F602B6038BF0E6000F0EFFB6307E7
:101E30000AD04FF0500372B683F31188BFF36F8F4F
:101E4000BFF34F8F62B6FEE72046BDE8F08100BFCA
:101E500030000020343C002034000020403C0020B2
:101E60003C3C0020383C002010B50446002832D00D
:101E7000194A50F8043C126813420AD14FF050033B
:101E800072B683F31188BFF36F8FBFF34F8F62B6C3
:101E9000FEE750F8081C51B14FF0500372B683F3BF
:101EA0001188BFF36F8FBFF34F8F62B6FEE723EA4F
:101EB000020340F8043C00F00DFB084A54F8043CCF
:101EC000A4F1080011680B441360FFF717FFBDE889
:101ED000104000F09BBB10BD343C0020383C00207B
:101EE00000F108034FF0FF324360C3600361002339
:101EF00082600360704700230361704743689A68FB
:101F00004B608A609A685160996003680861013388
:101F1000036070470A68531C30B50AD103695A68D8
:101F20004A6091608B605960036808610133036007
:101F300030BD00F108035C682568AA42EFD3234650
:101F4000F9E74168826803698A608268516059686C
:101F5000884208BF5A600022026118680138186080
:101F6000704700000C4B1B6801330AD04FF0500340
:101F700072B683F31188BFF36F8FBFF34F8F62B6D2
:101F8000FEE74FF0500372B683F31188BFF36F8FF3
:101F9000BFF34F8F62B6FEE70400002006480068DA
:101FA000006880F3088862B661B6BFF34F8FBFF355
:101FB0006F8F00DF00BF000008ED00E0DFF80C00CD
:101FC000016841F4700101607047000088ED00E095
:101FD0004FF0807321F0010140F8202C4438036455
:101FE000034BC16383636FF002030362704700BF5A
:101FF000651F000800000000000000000000000055
:10200000074B19680868B0E8F04F80F30988BFF300
:102010006F8F4FF0000080F311887047AFF300809E
:10202000503C00204FF0500372B683F31188BFF389
:102030006F8FBFF34F8F62B60B4A13680133012BCA
:1020400013600FD1094B1B6813F0FF0F0AD04FF03C
:10205000500372B683F31188BFF36F8FBFF34F8FB6
:1020600062B6FEE7704700BF0400002004ED00E008
:10207000094A136853B94FF0500372B683F31188BD
:10208000BFF36F8FBFF34F8F62B6FEE7013B136064
:102090000BB983F311887047040000200000000092
:1020A000EFF30980BFF36F8F154B1A681EF0100F06
:1020B00008BF20ED108A20E9F04F10604DF8043D74
:1020C0004FF0500072B680F31188BFF34F8FBFF30B
:1020D0006F8F62B600F074FB4FF0000080F3118840
:1020E00008BC19680868B0E8F04F1EF0100F08BF70
:1020F000B0EC108A80F30988BFF36F8F704700BF80
:10210000503C002008B54FF0500372B683F311889D
:10211000BFF36F8FBFF34F8F62B600F0E3F918B1D2
:102120004FF08052024B1A60002383F3118808BDE0
:1021300004ED00E0064B4FF47A721B68B3FBF2F338
:10214000044A013B13600722034B1A60704700BF2B
:102150000800002014E000E010E000E0234B13B57D
:102160001A780021D2B20192FF221A701B78204AFD
:10217000DBB28DF803309DF8033003F05003137089
:1021800007221C4B1A609DF80300541E000623D43E
:1021900001B11A601A68120202F4E0621A60019B2F
:1021A000124ADBB21370144B1A6842F470021A60C0
:1021B0001A6842F070421A60FFF7BCFF00220F4B12
:1021C0001A60FFF7FBFE0E4A136843F040431360AA
:1021D000FFF7E4FEFFF7C6FE9DF803200121520041
:1021E000D2B28DF803202246CDE700BF00E400E024
:1021F000483C00204C3C002020ED00E00400002082
:1022000034EF00E0064A13681968064B19B94FF01D
:10221000FF321A6070471268D268D2685268F8E7D5
:10222000543C00202C3D0020F8B51B4B04461B4EAF
:102230000F461D6830680430FFF783FE334640B90F
:1022400031680120164EC96A3268884022EA0002CD
:102250003260621C07D137B1196812480431BDE8F9
:10226000F840FFF74BBE2C441A68A542546007D9CA
:102270000D4A10681968BDE8F8400431FFF74ABEFE
:102280000A4A106819680431FFF744FE084B1A68BF
:10229000944200D21C60F8BD743D0020503C0020E8
:1022A000FC3C00204C3D0020583C0020543C0020C9
:1022B0002C3D00202DE9F84F4FEA820A80460F4658
:1022C000994650460B9EFFF73DFD0546002800F05D
:1022D00096805420FFF736FD0446002800F08C80DD
:1022E000AAF1040A05637B1E00F1340255440F373E
:1022F00025F0070A597802F8011B13F8011F09B1EC
:10230000BB42F7D10A9D4FF0000B271D062D84F824
:1023100043B03846C4F848B028BF0625E562656476
:10232000C5F10705FFF7E7FD04F11800FFF7E3FD2E
:10233000C4F84CB024614A46A561414664625046E7
:1023400084F850B0FFF744FE206006B13460FFF718
:1023500069FE324B324E1A68DFF8F08001321A60A3
:102360003568002D4ED134601B68012B1DD108EB60
:1023700005001435FFF7B4FD8C2DF8D1DFF8D090AF
:10238000284D4846FFF7ACFD2846FFF7A9FD264833
:10239000FFF7A6FD2548FFF7A3FD2548FFF7A0FDA1
:1023A000244BC3F80090244B1D60244A0125244986
:1023B0001368086801331360E26A05FA02F3034305
:1023C00014200B60394600FB0280FFF797FDFFF7F2
:1023D0004FFE1C4B1B6863B13368DA6AE36A9A42AA
:1023E00007D24FF08052184B1A60BFF34F8FBFF3E4
:1023F0006F8F2846BDE8F88F2846FFF735FD4FF070
:10240000FF35F6E70F4B1B68002BCED13368DA6A35
:10241000E36A9A42C9D83460C7E700BFE83C0020AD
:10242000503C0020143D0020343D0020603D002041
:102430004C3D0020543C0020583C0020F83C00203B
:10244000FC3C0020483D002004ED00E05C3C002006
:10245000003D002013B5194B002480221849019338
:10246000234600941748FFF725FF012816D14FF0A7
:10247000500372B683F31188BFF36F8FBFF34F8F92
:1024800062B64FF0FF32104B1A60104B1860104BC1
:102490001C6002B0BDE81040FFF760BE01300AD1F9
:1024A0004FF0500372B683F31188BFF36F8FBFF301
:1024B0004F8F62B6FEE702B010BD00BF283D00207E
:1024C000D42E00084D2700082C3D0020483D002058
:1024D000743D0020024A136801331360704700BF47
:1024E000F43C00202DE9F84F3D4B1B68002B55D1E3
:1024F0003C4B1C6801341C60CCB93B4B1A68126819
:1025000052B14FF0500372B683F31188BFF36F8F4F
:10251000BFF34F8F62B6FEE7344A1968106818603F
:102520001160334A136801331360FFF76BFE314DBE
:102530004FF0000B304F2B689C423ED3DFF8A88051
:10254000DFF8C490D8F80020126872BB4FF0FF3259
:102550002A6032E006F1040A5046FFF7F2FCB16A45
:1025600019B106F11800FFF7ECFCF06A0122D9F866
:1025700000304FF0140E02FA00F119431F4BC9F856
:10258000001051460EFB0030FFF7B8FC3868F16AC6
:10259000C26A914228BF4FF0010BD3E7184A4FF0AF
:1025A000000B13680133136011E0D8F80020D268E3
:1025B000D66871688C42CDD229603A680F4BD16AD7
:1025C00014224A439A58022A28BF4FF0010B0D4AA1
:1025D0001268002A18BF4FF0010B5846BDE8F88F6B
:1025E000F43C0020743D0020543C0020583C002066
:1025F000303D00202C3D0020503C00205C3C002061
:10260000F03C0020783D0020FC3C00202DE9F84300
:10261000324C236853B94FF0500372B683F31188DC
:10262000BFF36F8FBFF34F8F62B6FEE7FFF7FAFC81
:102630002368013B236024682CB10024FFF718FDB8
:102640002046BDE8F883264B1B68002BF5D0DFF849
:10265000A890244FDFF8A480D9F80030E3B90CB17A
:10266000FFF7D0FD204D2C6844B1204E0127FFF725
:1026700039FF00B13760013CF9D12C601B4B1B685E
:10268000002BDAD04FF08052194B1A60BFF34F8FF6
:10269000BFF36F8F0124D1E7D9F80C300125DC6836
:1026A000261D04F11800FFF74CFC3046FFF749FCEB
:1026B000E26A3968142005FA02F300FB02800B433A
:1026C00031463B60FFF71AFC0A4BE26A1B68DB6A83
:1026D0009A42C1D3054B1D60BEE700BFF43C002009
:1026E000E83C0020FC3C0020F03C0020783D00202D
:1026F00004ED00E0503C0020343D00205C3C002014
:1027000008B540B94FF080520E4B1A60BFF34F8F9F
:10271000BFF36F8F08BD0C4B196851B14FF05003D8
:1027200072B683F31188BFF36F8FBFF34F8F62B61A
:10273000FEE7FFF7CFFEFFF777FDFFF767FF002803
:10274000E0D008BD04ED00E0F43C0020174E08B5D1
:10275000174C236863B9174B1B68012BF8D94FF04E
:102760008052154B1A60BFF34F8FBFF36F8FEFE7A7
:10277000FFF7B0FE3568FFF749FF002DE9D0FFF7FE
:1027800051FCF368DD68281DFFF7DBFB0B4A13687B
:10279000013B13602368013B2360FFF769FC286B52
:1027A000FFF762FB2846FFF75FFBD2E7603D0020A2
:1027B000EC3C00205C3C002004ED00E0E83C002004
:1027C000184B1A68184B10B512B101221A6010BDCF
:1027D0001A60164B1B68B3FA83F3DBB21422144958
:1027E000C3F11F035A438C58881854B94FF0500353
:1027F00072B683F31188BFF36F8FBFF34F8F62B64A
:10280000FEE74468083264680A449442446004BFA6
:1028100062684260142202FB03135B68DA68054BAE
:10282000D4E700BFF43C0020783D0020FC3C0020B1
:102830005C3C0020503C0020054B1B6833B1054B2D
:102840001B68002B0CBF022000207047012070473E
:10285000483D0020F43C002008B50120FFF73BFA7A
:10286000FBE7000030B5074D87B00FCD01AC0FC4BA
:102870002B68002101A82360FFF715FA024B1860AE
:1028800007B030BDC02E00087C3D0020854B4FF4C2
:102890000041D3F8E02042F004022DE9F04FC3F8E4
:1028A000E02091B0D3F8E0200024DFF80CA202254C
:1028B00002F00402DFF804927B4E0B2703924FF0E4
:1028C0000108039AD3F8E020DFF8F4B142F0800267
:1028D000C3F8E020D3F8E02002F080020492049ACA
:1028E000D3F8E02042F00102C3F8E020D3F8E02062
:1028F00002F001020592059AD3F8E02042F020028E
:10290000C3F8E020D3F8E02002F020020692069AF5
:10291000D3F8E02042F01002C3F8E020D3F8E02022
:1029200002F010020792079AD3F8E02042F0020268
:10293000C3F8E020D3F8E02002F002020892089ADF
:10294000D3F8E02042F00802C3F8E020D3F8E020FA
:1029500002F008020992099AD3F8E02042F04002FE
:10296000C3F8E0200022D3F8E03003F040030A93DC
:102970000A9B4E4B18460193FDF738FE5046002245
:102980004FF40051FDF732FE484600224FF48141DA
:10299000FDF72CFE304600224021FDF727FE3222B3
:1029A0000BA943480B920C950D940E940F97FDF7CD
:1029B00033FD86220BA958460C950B920D940E946C
:1029C0000F97FDF729FD019B4FF400420BA9CDF8AD
:1029D000308018460B920D940E94FDF71DFD4FF4B8
:1029E00000530BA95046CDF830800B9301930D9402
:1029F0000E94FDF711FD0F220BA950460C950F9276
:102A00000D940E94FDF708FD019B0BA948460C950B
:102A10000B930D940E940F97FDF7FEFC4FF481433A
:102A20000BA94846CDF830800B930D940E94FDF71A
:102A3000F3FC4FF440730BA91E480B9307230C952E
:102A40000F930D940E94FDF7E7FC40230BA930463D
:102A5000CDF830800B930D940E94FDF7DDFC8023B0
:102A60000BA930460C940B930D94FDF7D5FC4FF455
:102A7000E8530BA958460C950B930A230D940F931A
:102A80000E94FDF7C9FC4FF420530BA930460C956A
:102A90000B930D940E940F97FDF7BEFC11B0BDE89B
:102AA000F08F00BF0044025800180258001402586A
:102AB00000080258000C0258001002580004025886
:102AC0000000025808B515480122154B1549C2608F
:102AD00080E80A0000238360036143618361C3616E
:102AE0000362FDF788FD18B14C210F4800F0CEF8C5
:102AF00000210A48FDF7D0FD18B153210A4800F023
:102B0000C5F800210548FDF7EDFD28B15A2106481A
:102B1000BDE8084000F0BAB808BD00BF803D002005
:102B2000EC9C901000540040E52E00087FB5026830
:102B3000104B9A421BD14FF440730F48019312235C
:102B4000029300230393049304230DEB03010593E5
:102B5000FDF762FC094BD3F8E82042F40012C3F8F9
:102B6000E820D3F8E83003F400130093009B07B08B
:102B70005DF804FB00540040000402580044025871
:102B80002D4BDA6822F0040230B5DA60CDB00022B5
:102B900001929A6922F4404242F480429A619A6911
:102BA00002F440420192019A9A699204FCD51022E3
:102BB0000A210223042401250E92169100220C21E1
:102BC0000AA80A930D9513931492159417931894C9
:102BD00019931A911B931C92FDF7AAFD00B1FEE711
:102BE0003F23049005902946029303230690079003
:102BF0000890099002A80393FEF780F800B1FEE761
:102C000008233D901DA81D93FEF778FA054600B1F4
:102C1000FEE70A4B18684FF47A73B0FBF3F0FDF748
:102C2000D9FB2046FDF7ECFB2A460F214FF0FF3081
:102C3000FDF78AFB4DB030BD004802580800002067
:102C400008B5FDF74DFBFFF79BFFFFF71FFEFFF7F2
:102C500039FF00224FF480410648FDF7C7FC0022EF
:102C600080210448FDF7C2FCFFF7FCFDFFF716F8D2
:102C7000FEE700BF000402580268034B9A4201D1EC
:102C8000FDF73EBB704700BF00000140FEE70000BB
:102C90001E4B07B5D3F8F420032042F00202C3F81C
:102CA000F420D3F8F43003F002030193019BFDF705
:102CB00039FB00226FF00B001146FDF745FB0022A7
:102CC0006FF00A001146FDF73FFB00226FF009008C
:102CD0001146FDF739FB00226FF004001146FDF7A5
:102CE00033FB00226FF003001146FDF72DFB00229D
:102CF0000F216FF00100FDF727FB00220F214FF09D
:102D0000FF30FDF721FB03B05DF804FB00440258DF
:102D100010B501468AB000221920FDF715FB1920D5
:102D2000FDF74AFB154B694602A8D3F8F020144C76
:102D300042F00102C3F8F020D3F8F03003F00103B1
:102D40000193019BFEF7E4F8FEF7CCF80D4B2360EE
:102D500040F2E733E3600C4BB0FBF3F001380023A3
:102D6000606020462361A360FEF77CFF20B9204607
:102D7000FEF74FFE0AB010BD0120FBE700440258E9
:102D8000CC3D00200000014040420F007047FEE7AC
:102D9000FEE7FEE7FEE77047FEF7A5BF0148FEF736
:102DA00048BE00BFCC3D002014491548D1F88830FA
:102DB00043F4700310B5C1F88830124B1A6842F022
:102DC00001021A6000221A611C68204018609A6192
:102DD000DA611A629A62DA621A635A639A63DA6390
:102DE0001A645A64186820F4802018601A66012258
:102DF000054B1A604FF000638B6010BD00ED00E0E2
:102E00007FEDF6EA0044025808810051DFF834D023
:102E1000002103E00C4B5B58435004310B480C4B32
:102E200042189A42F6D30B4A02E0002342F8043BD0
:102E3000094B9A42F9D3FFF7B7FF00F011F8FFF7FB
:102E4000FFFE7047000002200C2F00080000002049
:102E500010000020100000200C3E0020FEE70000C3
:102E600070B50D4E0D4CA41BA4100025A54209D130
:102E70000B4E0C4C00F018F8A41BA4100025A54222
:102E800005D170BD56F8253098470135EEE756F864
:102E9000253098470135F2E7042F0008042F000879
:102EA000042F0008082F0008F8B500BFF8BC08BCC4
:102EB0009E467047F8B500BFF8BC08BC9E467047F8
:102EC000D92E00085928000800000000000000006A
:102ED0008000000049444C450064656661756C746F
:102EE0005461736B002E2E5C5372635C6932632EE7
:102EF000630000000000010203040102030406074E
:042F000008090000BC
:042F0400C5020008FA
:042F0800A10200081A
:102F0C0001000000AAAAAAAA0090D0030090D00346
:0400000508002E0DB4
:00000001FF
