:020000040800F2
:1000000000000220D5560008355600083756000873
:10001000395600083B5600083D5600080000000015
:100020000000000000000000000000000137000890
:100030003F56000800000000A137000841560008A4
:1000400025570008255700082557000825570008A0
:100050002557000825570008255700082557000890
:100060002557000825570008255700082557000880
:100070002557000825570008255700082557000870
:100080002557000825570008255700082557000860
:100090002557000825570008255700082557000850
:1000A000255700084956000825570008255700081D
:1000B0002557000825570008255700082557000830
:1000C0002557000825570008255700082557000820
:1000D0002557000825570008255700082557000810
:1000E0005956000825570008000000002557000851
:1000F00025570008255700082557000825570008F0
:1001000025570008255700082557000825570008DF
:1001100025570008255700082557000825570008CF
:1001200025570008255700082557000825570008BF
:1001300025570008255700082557000825570008AF
:1001400000000000000000000000000000000000AF
:10015000255700082557000825570008255700088F
:10016000255700082557000825570008255700087F
:1001700025570008255700082557000800000000F3
:10018000255700082557000825570008255700085F
:10019000255700082557000825570008255700084F
:1001A000255700082557000825570008255700083F
:1001B000255700082557000825570008255700082F
:1001C000255700082557000825570008255700081F
:1001D000255700082557000825570008255700080F
:1001E00025570008255700082557000825570008FF
:1001F00025570008255700082557000825570008EF
:1002000025570008255700082557000825570008DE
:1002100025570008255700082557000825570008CE
:100220002557000825570008255700080000000042
:100230002557000825570008000000002557000832
:10024000255700082557000825570008255700089E
:10025000255700082557000825570008255700088E
:10026000255700082557000825570008255700087E
:1002700025570008255700082557000800000000F2
:100280002557000800000000255700080000000066
:080290000000000025570008E2
:1002A00010B5054C237833B9044B13B10448AFF3B0
:1002B00000800123237010BD040100200000000015
:1002C0004058000808B5034B1BB103490348AFF37E
:1002D000008008BD00000000080100204058000810
:1002E00003685A004CBF43F0004323F00043184416
:1002F000704700BF61B32DE9F84F01F1FF3A904616
:100300000646D146002707EB090404EBD4746410B9
:10031000E50071190846FFF7E3FFA245834605F1A2
:100320000800304409D0FFF7DBFFC34500F1FF3080
:1003300005D8404509D2671CE5E7C34505D9A74262
:1003400002D004F1FF39DEE700210846BDE8F88F4E
:1003500008467047012807D0022807D0044B002820
:100360000CBF18460020704702487047024870478B
:10037000590A00085D0A0008610A000830B5244BDC
:1003800083B004468D1E7BB301A92846AFF30080DD
:1003900020B301992A46FFF7ADFF0146F0B1FFF700
:1003A0009FFF4B68A064012B12D0002B01F10400C9
:1003B00020DBFFF795FF0023E06423650368002B33
:1003C0001CDBFFF78DFF00232061184603B030BD12
:1003D000002323610523184603B030BD00232361A9
:1003E0000923184603B030BD0A490B48091AC91041
:1003F0000191CFE70123E0642365DFE7C3F30360E6
:10040000FFF7A8FF0028206114BF00230923DCE7C1
:100410000000000064630008FC6100080368DA075C
:1004200010B5044606D49B0700F1480009D500F03A
:1004300051FC2368590709D51A070ED5DB0613D5D9
:1004400010BD00F03FFC23685907F5D404F1D0003B
:1004500000F048FC23681A07F0D404F5A87000F0F7
:1004600049FC2368DB06EBD404F5E870BDE81040D6
:1004700000F084BC036803B103441846704700BF12
:1004800009207047704700BF70B504460D4608E06C
:100490002B6C63612A46236921460120984708286E
:1004A00008D1296C2046FFF769FF06460028EFD0E7
:1004B00005F069F90728FBD13046296CFFF7E2FF08
:1004C000281D00F0F3FB00BF2DE9F0470C1D054689
:1004D00092460FCCADF5727D03AE0FC60FCC0FC6A2
:1004E0000FCC0FC694E80F0002ACD5F80C80D5F8FD
:1004F000189086E80F0000232846216C2360FFF740
:100500003DFFBAF1000F074614BF0A2609267FB146
:10051000A36B46F010018DE810022A4663640120A7
:100520002B46C04778BB38460DF5727DBDE8F08795
:10053000236C6B614FF4F07221467AA805F018F92C
:100540002B697AAA294630469847889B82468DE8CF
:100550001002314663642A462B460120C04790B9F9
:100560004FF4F0727AA9204605F002F9BAF1080FAB
:1005700006D1216C2846FFF701FF09260746C6E78A
:10058000BAF1070F05D0092738460DF5727DBDE891
:10059000F0873846216CFFF775FF03A800F086FB53
:1005A000406C7047F0B5CB6B0B640E1D0F460446D4
:1005B0000FCEF9B001AD0FC50FCE0FC50FCE0FC5D1
:1005C00096E80F004FF0FF3685E80F00009606E032
:1005D00023696A46214698470828054608D110999C
:1005E0002046FFF7CBFE0028F2D0092079B0F0BDFD
:1005F0006846FFF713FF062DF7D139462046FFF76F
:1006000043FF00BF30B4DD6BC160826119461D64D9
:10061000002230BC58E700BF70B5C66843690B6460
:1006200026B10122FFF750FF05F0ADF803690A4635
:1006300004460D46014602209847072807D008289F
:1006400003D129462046FFF71FFF05F09CF83046EE
:10065000296CFFF717FF281D00F028FBC2681AB1AC
:10066000CA6B0A6400222FE79CE700BF704700BFF7
:10067000836813B1014601201847704700B504296B
:1006800007D8DFE801F00309060909000BB90F2AB2
:1006900005D902205DF804FB01205DF804FB00EBA6
:1006A000820218465368019A13605DF804FB00BF8C
:1006B00010B584B0002303AC0A4600941946FFF736
:1006C000DDFF039804B010BD00B5042907D8DFE8AA
:1006D00001F00309060909000BB90F2A05D9022008
:1006E0005DF804FB01205DF804FB019900EB820238
:1006F0000968516018465DF804FB00BF10B584B06E
:1007000004AC002344F8042D0A4600941946FFF770
:10071000DBFF04B010BD00BFF0B5D36B1364151D33
:1007200007460E460FCDADF50F7D17AC0FC40FCDAC
:100730000FC40FCD0FC495E80F004FF0FF3584E8CC
:100740000F00169510E016A8FFF7D8FF314616A83F
:10075000B84716AA694678B9049B08209847052827
:1007600004460AD0092807D026996846FFF706FEF6
:100770006A460C210028E6D0092416A8FFF74EFE91
:1007800020460DF50F7DF0BD2DE9F04F0D46C96CEB
:100790008BB00C1D096807919146089400F0030B7B
:1007A0001E46002B60D10902032307918DF82560B6
:1007B0008DF824302B6DBBF1020F08BFAC6B13F02A
:1007C000010340D1019300F008030393D4F80080A3
:1007D000B8F1000F39D0022E43D0B4F800806788FA
:1007E0000434AB6C27F0010A0F2148469A44FFF706
:1007F0005FFF824533D828F001039A4450452CBF4F
:10080000002001207F0007F0020708F0010847EAF6
:100810000807012F3ED035D3022F1CD1236823F0C7
:1008200000420292BBF1000F76D128B10399002952
:100830007ED0002A00F0A680002B77DB029B0133DC
:1008400004EB8304C2E700230193022E3EDDFFF791
:1008500017FE002840D009200BB0BDE8F08F002023
:10086000D0E767680834BCE7022BA3DC0B0CDAB2D4
:1008700009048DF82530022304EB820407918DF8DA
:10088000243097E7BBF1000F02D0002840F0BD8074
:1008900004349BE7BBF1000F25D1A8B194E80C000C
:1008A000991C4FEAD272D6D005F158010133069156
:1008B00000F0A380201DFFF7DDFD06AB01462846B2
:1008C000AFF30080002877D108347FE707A94846B6
:1008D00000F0EEFA0028BED1019B002B5CD108206D
:1008E0000BB0BDE8F08F0D2148462F6AFFF7E0FE00
:1008F0008742E9D1AB6A9C42E6D12046FFF7F0FC83
:100900000F2102464846FFF7F9FE48462A460021D5
:10091000FFF7F4FE07209FE70D2148462F6AFFF7F7
:10092000C7FE874258D02368002B87DA043485E756
:10093000029B3BB305F15803271DCDF810B0DDF83D
:100940000C80DDF808A00596A3461C4602E0B245DF
:10095000B04616D038460694FFF78CFD06AB01462C
:1009600000222846AFF3008008F101060437002872
:10097000EDD0029B059E43455C46DDF810B0D2D118
:1009800000E05C4648460D21FFF792FE069B286278
:10099000AC626B6206205FE70F214846FFF788FED6
:1009A0000E2102464846FFF7A9FE4846294A0F2174
:1009B000FFF7A4FE07204FE707460D214846FFF743
:1009C00077FE022F28621DD12B46069A43F82C2F62
:1009D0006B62AC6206203FE7AB6A9C42A3D1042263
:1009E0000027A3180299A962EF622A636B63236848
:1009F000BB421DDB0123019320E748460D21FFF791
:100A000057FE2862069B6B62E3E72046FFF768FC0F
:100A100004340646AC632846AFF3008000283FF458
:100A20001AAF484632460F21FFF768FE072013E74A
:100A30000846013004EB8000FFF752FC0F2102460C
:100A40004846FFF75BFE48462A463946FFF756FE02
:100A5000072001E700000000002395E6012393E64C
:100A6000022391E6F0B50446C5B004290DD8DFE8AD
:100A700001F053030C310F00012B4FEA124695B2DF
:100A800062D17219102A40F29B80022045B0F0BD5D
:100A9000002BFAD1102AF8D82368D80600F1C680B6
:100AA00022AE3046019200F073F9A06B019A002348
:100AB000012505FA03F1114203D0016846F823101D
:100AC00004300133042BF4D1A063304600F056F912
:100AD0000020DBE7032BD8D1150C97B2EB19102BB4
:100AE000D3D823681E0700F1B58022AE304600F04F
:100AF00023F9ED00A36B4FB1043D711903EBC7005F
:100B000053F8042B41F8042F8342F9D13046A363F4
:100B100000F0F0F80020B9E7002BB6D1A56B97B232
:100B2000201D012606FA03F1394203F1010302D028
:100B3000296801600435102B00F10400F2D112F491
:100B400000503BD1A563A1E7052B9ED17719202F3B
:100B50009BD80F2E66D92F46002D3AD12A46002762
:100B6000002AA06B72DD00EBC202014644A800EB34
:100B7000C6008C3851F8045B40F8045F9142F9D10B
:100B8000084697B1102E324644A938BF102201EB17
:100B9000C202A2F5C4727900043A00EB810150F858
:100BA000045B42F8045F8842F9D1012B48D00F2E34
:100BB000A16333D917B102A800F094F8002065E7CB
:100BC0000F2E3FF662AF00272268D10717D4002FFF
:100BD00060D02268510745D4012B4DD00F2E06D886
:100BE00022A8019300F07AF8019B002FB6D002A84A
:100BF000019300F07BF8019BC6F11002B0E722F0F0
:100C00000101052B2160019320463BD022F0030215
:100C100040F8482B00F05AF8019BD8E722A800F0D2
:100C200059F8C7E7102FCED9103FCDE723F01003B6
:100C3000236004F5E870019200F0AAF8019A2FE70A
:100C40000431A16322A800F03DF8B7E7002F99D145
:100C50000146AAE723F00803236004F5A87000F01A
:100C60006BF842E7204622F0040240F8D02B0193B3
:100C700000F03CF8019BAFE722A8019300F026F8B2
:100C8000019BB9E741F0020140F8481B00F026F84B
:100C9000019B9CE7012B03D00F2E3FF65FAF9FE730
:100CA00022A8019300F012F8019B57E700F13401EC
:100CB00091E838009C46A6464CF8045D90E8FF0F8A
:100CC000E54600BD90EC210B704700BF80EC210B86
:100CD000704700BF90EC200B704700BF80EC200BEA
:100CE000704700BFD0EC200B704700BFC0EC200B5A
:100CF000704700BFF0EC0201F0EC0211F0EC0221B1
:100D0000F0EC0231F0EC0241F0EC0251F0EC026147
:100D1000F0EC0271F0EC0281F0EC0291F0EC02A137
:100D2000F0EC02B1F0EC02C1F0EC02D1F0EC02E127
:100D3000F0EC02F1704700BFE0EC0201E0EC0211C0
:100D4000E0EC0221E0EC0231E0EC0241E0EC025187
:100D5000E0EC0261E0EC0271E0EC0281E0EC029177
:100D6000E0EC02A1E0EC02B1E0EC02C1E0EC02D167
:100D7000E0EC02E1E0EC02F1704700BFB0FC018161
:100D8000B0FC0191B0FC01A1B0FC01B1704700BF03
:100D9000A0FC0181A0FC0191A0FC01A1A0FC01B17B
:100DA000704700BFEC4600B52DE900502DE9FF1F4C
:100DB0004FF000032DE90C0001A9FFF7F3FBDDF86C
:100DC00040E012B0704700BFEC4600B52DE900507E
:100DD0002DE9FF1F4FF000032DE90C0001A9FFF7DB
:100DE0001BFCDDF840E012B0704700BFEC4600B5D8
:100DF0002DE900502DE9FF1F4FF000032DE90C00F5
:100E000001A9FFF72BFCDDF840E012B0704700BFEE
:100E1000EC4600B52DE900502DE9FF1F4FF000030F
:100E20002DE90C0001ABFFF7EDFBDDF840E012B05F
:100E3000704700BFEC4600B52DE900502DE9FF1FBB
:100E40004FF000032DE90C0001AAFFF765FCDDF867
:100E500040E012B0704700BF027A1AB9437A43B932
:100E6000B02070470368013A02721A020260180E3D
:100E700070474268013B10B4437213680321141D8C
:100E800001721A02446002605DF8044B180E70474C
:100E900000B585B003AA0023009219460C22FFF783
:100EA000EDFB039805B05DF804FB00BFF0E700BF61
:100EB0002DE9F043064685B00F464FF0000838464E
:100EC000FFF7CAFFB028044623D0050627D4002325
:100ED0000DF10C09194685000D22CDF80090304621
:100EE000FFF7CCFBEDB2039BCDF80090600605F157
:100EF00004054CBF5D1BED18002319460D2230463A
:100F00000395FFF7E1FB3846FFF7A6FFB02804463C
:100F1000DBD1B8F1000F00F0958000201CE000F05C
:100F2000F003802B5DD0902B19D0A02B2CD0B02BB0
:100F30003FD0C02B6CD000F0F803D02B0BD100F0C9
:100F40000702013242F40022052301213046FFF757
:100F500089FD0028B3D0092005B0BDE8F08300F07A
:100F60000D030D2BF7D003AD002300F00F0219463F
:100F700000953046FFF782FB0023009519460D22AD
:100F80003046FFF7A1FB9AE7C24302F007034FF494
:100F90007F621A41010702F47F624FF0000348BFED
:100FA00042F4804219463046FFF75CFD0028D2D15A
:100FB00085E7B12857D0B22868D0B32800F09580D3
:100FC00000F0FC03B42BC6D000F00702013201236D
:100FD00042F4002219463046FFF744FD0028BAD1FA
:100FE0006DE73846FFF738FF24020443B4F5004F9D
:100FF000B1D024010023A2B219463046FFF732FDDA
:101000000028A8D114F4004F18BF4FF0010856E78C
:10101000C6287DD0C72800F0868000F0F803C02BDA
:1010200000F09480C82800F09F80C92893D13846EA
:10103000FFF712FF020300F00F0002F470220130EC
:10104000024381E703AC43460E22414600943046FA
:10105000FFF714FB0094304643460F224146FFF74A
:1010600033FB404678E73846FFF7F6FE00283FF4AA
:1010700072AF10F0F0037FF46EAF024619463046AF
:10108000FFF7F0FC00287FF466AF18E700230DF1AE
:101090000C090D221946CDF800903046FFF7EEFA04
:1010A0003846FFF7D9FE02064FF002040CD5039B29
:1010B00000F07F00A040034438460393FFF7CCFEC6
:1010C000030604F10704F2D4039BCDF8009000F06E
:1010D0007F02A24003F501740023144419460D2237
:1010E00030460394FFF7F0FAE9E63846FFF7B4FE1E
:1010F000010300F00F0001F47021421C01230A4398
:1011000030461946FFF7AEFC00287FF424AFD6E640
:101110003846FFF7A1FE010300F00F0001F4702133
:10112000421C0323EBE73846FFF796FE00283FF406
:1011300012AF10F0F0037FF40EAF024604213046E8
:10114000FFF790FC00287FF406AFB8E600F00F022E
:101150000132032342F4202219463046FFF782FC75
:1011600000287FF4F8AEAAE63846FFF775FE00F0D7
:10117000F00200F00F031032013343EA0232E3E6DB
:1011800010B5C36C84B05A6803208DF80C00DC796C
:101190008DF80D4012020833084601A9019202930E
:1011A000FFF786FE04B010BD08B5FFF77FFE806C28
:1011B00008BD00BF08B5FFF779FEC06CC37900EB2E
:1011C0008300083008BD00BF08B504F0DCFA00BF9A
:1011D00008B5FFF7F9FF00BF10B5032000F01EF8B7
:1011E000002004F0E7F910B10124204610BD0446A8
:1011F00004F09EF9F9E70000034B1B78034A1168DD
:101200000B441360704700BF00000020C80100209D
:10121000014B1868704700BFC80100200649CB6821
:1012200023F4E0631B041B0C000200F4E0600343A2
:10123000024A1A43CA60704700ED00E00000FA0558
:1012400030B4144BDB68C3F30223C3F10704042C4E
:1012500028BF04241D1D062D13D9033B012505FAC3
:1012600004F4013C2140994005FA03F3013B13408B
:101270001943002807DB0901C9B2074B195430BCD8
:1012800070470023EAE700F00F000901C9B2034BE1
:101290001954F4E700ED00E000E400E014ED00E094
:1012A000002808DB420900F01F00012303FA00F0C8
:1012B000014B43F82200704700E100E00138B0F133
:1012C000807F0AD2064B5860F021064A82F823102C
:1012D0000020986007221A6070470120704700BF05
:1012E00010E000E000ED00E0042805D0054A136896
:1012F00023F0040313607047024A136843F00403A9
:101300001360704710E000E0F0B583B000243BE0CC
:10131000092600E0002606FA0EF632430233704E2C
:1013200046F823206F4B1A68EB4302EA03064F6826
:1013300017F4803F01D045EA02066A4A16605668F3
:1013400003EA06024F6817F4003F01D045EA06029F
:10135000644E72604FF0B042126803EA02064F68B2
:1013600017F4801F01D045EA02064FF0B042166024
:10137000526813404E6816F4001F01D045EA02037C
:101380004FF0B042536001340F2C00F2A6800123CD
:10139000A3400A6803EA0205AB42F4D14A68122A64
:1013A00018BF022A12D14FEAD40E0EF1080E50F8DF
:1013B0002E2004F00706B6000F27B74022EA0702E6
:1013C0000F6907FA06F6324340F82E2006684FEA06
:1013D000440E032202FA0EF2D24316404F6807F081
:1013E000030707FA0EF73E4306604E68771E112E7C
:1013F00018BF012F01D9122E0FD186681640CF6871
:1014000007FA0EF73E438660466826EA03034E68F5
:10141000C6F30016A64033434360C3681A408B6886
:1014200003FA0EF31A43C2604B6813F0805FAAD030
:101430002D4BD3F8F42042F00202C3F8F420D3F885
:10144000F43003F002030193019BA3089E1C244A7D
:1014500052F8262004F003064FEA860E0F2606FAFD
:101460000EF622EA0602214FB8423FF453AF204E57
:10147000B04222D006F58066B04220D006F58066E4
:10148000B0421ED006F58066B0421CD006F58066DC
:10149000B0421AD006F58066B04218D006F58066D4
:1014A000B04216D006F58066B04214D006F58066CC
:1014B000B0423FF42DAF0A262DE701262BE7022686
:1014C00029E7032627E7042625E7052623E706263E
:1014D00021E707261FE708261DE703B0F0BD00BF80
:1014E00000040058800000580044025800000258D0
:1014F000000402580AB9418370470183704770475E
:1015000008B5054B9B68034200D108BD024B9860AB
:10151000FFF7F5FFF9E700BF8000005803689A69FC
:1015200012F0020F01D000229A6203689A6912F049
:10153000010F03D19A6942F001029A61704770B4B9
:10154000039D066870686C0D04F4806444F07F7439
:1015500044F4583444F47F7444F0030420EA040053
:10156000C1F3090141EA024119432943084370606C
:1015700070BC704770B504460D46164603689B69FB
:1015800013F0100F17D023689A6912F0200F14D1AE
:10159000B5F1FF3FF7D025B1FFF73AFE801B85423A
:1015A000F1D2202384F84130002384F8423084F8BB
:1015B0004030032070BD002070BD1022DA61236826
:1015C0002025DD612046FFF7A9FF2268536823F03C
:1015D000FF7323F48B3323F4FF7323F00103536071
:1015E0000423636484F84150002384F8423084F873
:1015F0004030012070BD70B504460D461646236884
:101600009B6913F0020F1CD1324629462046FFF792
:10161000B1FFC0B9B5F1FF3FF1D025B1FFF7F8FD3B
:10162000801B8542EBD2636C43F02003636420236C
:1016300084F84130002384F8423084F8403003209D
:1016400070BD002070BD012070BDF8B505460F4685
:1016500016461C462B689B6937EA03030CBF01231F
:101660000023B34213D1B4F1FF3FF3D02CB1FFF705
:10167000CFFD069BC01A8442ECD2202385F841306E
:10168000002385F8423085F840300320F8BD002063
:10169000F8BD000070B582B0044616461D461E4BCC
:1016A00000934FF08073EAB2FFF749FF079A06995B
:1016B0002046FFF7A0FF40B1636C042B03D0032347
:1016C000184602B070BD0123FAE7012D0DD0236842
:1016D000320A9A62079A06992046FFF78CFFB0B14A
:1016E000636C042B11D00323EAE72368F6B29E62F1
:1016F000079B0093069B002280212046FFF7A5FF51
:1017000003460028DCD00323DAE70123D8E7236867
:10171000F6B29E62ECE700BF00200080F0B583B017
:10172000054617461E46214B00930023F2B2FFF7F1
:1017300006FF099A08992846FFF75DFF40B16B6CD8
:10174000042B03D00323184603B0F0BD0123FAE7AE
:10175000012E0ED00024731E9C4215DA2B683A5DD0
:101760009A62099A08992846FFF745FF28B901347B
:10177000F1E72B683A789A620BE06B6C042B01D08E
:101780000323E0E70123DEE72B683E4416F8012C33
:101790009A62099B0093089B002240212846FFF78C
:1017A00054FF03460028CED00323CCE7002000805E
:1017B00070B505460C4616462B689B6913F0200F42
:1017C00019D1324621462846FFF7D4FEA8B924B1E4
:1017D000FFF71EFD801B8442EED26B6C43F02003AA
:1017E0006B64202385F84130002385F8423085F86A
:1017F0004030032070BD002070BD012070BD00008E
:10180000002857D010B5044690F84130002B41D045
:10181000242384F841302268136823F00103136005
:101820002268636823F0706313612268936823F46D
:1018300000439360E368012B31D02268A36843F42E
:1018400004439360E368022B2FD0226851681A4B3F
:101850000B4353602268D36823F40043D3602268AB
:10186000236961690B43A16943EA0123D3602268BC
:10187000E369216A0B4313602268136843F0010394
:10188000136000206064202384F84130206384F8D2
:10189000420010BD80F8403003F082FDB8E72268B6
:1018A000A36843F400439360CCE723684FF40062DD
:1018B0005A60CAE701207047008000022DE9F04716
:1018C00082B0BDF82C5090F84140E4B2202C04D0F6
:1018D0000223184602B0BDE8F0870A9C002D18BF0D
:1018E000002C00F0C98090F84040012C01D1022367
:1018F000EFE7984691460E4604464FF0010A80F8FD
:1019000040A0FFF785FC07460090192352464FF48C
:1019100000412046FFF799FE08B10323D9E72123B0
:1019200084F84130402384F84230002363640A9AEB
:1019300062626585636301970C9B009343464A4648
:1019400031462046FFF7A6FE60B1636C042B04D03D
:10195000002384F840300323BBE7002384F84030A1
:101960005346B6E7638D9BB2FF2B0AD9FF2222852F
:10197000002300934FF0807331462046FFF7DFFDD0
:1019800023E0628D92B22285002300934FF0007312
:10199000D2B231462046FFF7D2FD16E0636C042B2D
:1019A00001D0032395E7012393E7628D92B222854C
:1019B000002300934FF00073D2B231462046FFF768
:1019C000BEFD638D9BB2002B32D03A460C99204667
:1019D000FFF711FE0028E1D12268636A591C616299
:1019E0001B789362638D9BB2013B9BB26385238D11
:1019F000013B9BB22385002BE3D1638D9BB2002B6F
:101A0000DFD000970C9B002280212046FFF71DFEAF
:101A1000A0BB638D9BB2FF2BC7D9FF222285002379
:101A200000934FF0807331462046FFF788FDC8E7EA
:101A30003A460C992046FFF7BBFE034630B1636C73
:101A4000042B01D0032344E7012342E7226820212D
:101A5000D1612068426822F0FF7222F48B3222F4B6
:101A6000FF7222F00102426084F84110002284F8E3
:101A7000422084F840202CE701232AE7032328E7AB
:101A80002DE9F04782B0BDF82C5090F84140E4B207
:101A9000202C04D00223184602B0BDE8F0870A9C2F
:101AA000002D18BF002C00F0C48090F84040012C9D
:101AB00001D10223EFE7984691460E4604464FF0C7
:101AC000010A80F840A0FFF7A3FB07460090192306
:101AD00052464FF400412046FFF7B7FD08B10323FB
:101AE000D9E7222384F84130402384F84230002390
:101AF00063640A9A62626585636301970C9B009335
:101B000043464A4631462046FFF708FE60B1636C03
:101B1000042B04D0002384F840300323BBE70023C8
:101B200084F840305346B6E7638D9BB2FF2B0AD949
:101B3000FF222285424B00934FF0807331462046AE
:101B4000FFF7FDFC1CE0628D92B222853C4B0093B6
:101B50004FF00073D2B231462046FFF7F0FC0FE0A1
:101B6000628D92B22285002300934FF00073D2B2AF
:101B700031462046FFF7E3FC638D9BB2002B34D047
:101B800000970C9B002204212046FFF75EFD0028F1
:101B900051D1636A5A1C62622268526A1A70228D9D
:101BA000013A92B22285638D9BB2013B9BB2638561
:101BB000002AE1D1638D9BB2002BDDD000970C9BF6
:101BC00080212046FFF741FD002836D1638D9BB26E
:101BD000FF2BC5D9FF222285002300934FF080738D
:101BE00031462046FFF7ABFCC6E73A460C99204643
:101BF000FFF7DEFD034630B1636C042B01D00323F5
:101C000049E7012347E722682021D1612068426823
:101C100022F0FF7222F48B3222F4FF7222F00102D2
:101C2000426084F84110002284F8422084F8402069
:101C300031E701232FE703232DE703232BE700BF21
:101C40000024008090F84130DBB2202B01D002202C
:101C5000704790F84030012B20D0012380F84030AD
:101C6000242380F841300268136823F001031360D5
:101C70000268136823F480531360026813681943E1
:101C800011600268136843F001031360202380F899
:101C90004130002380F840301846704702207047DA
:101CA00090F84130DBB2202B01D00220704790F831
:101CB0004030012B1ED0012380F84030242380F8CF
:101CC00041300268136823F001031360026813684F
:101CD00023F4706343EA012111600268136843F042
:101CE00001031360202380F84130002380F8403046
:101CF000184670470220704738B50446036813F051
:101D0000010F3BD0AD4B1B6903F03803102B2CD0D7
:101D1000AA4B1B6903F03803182B20D06368B3F576
:101D2000803F55D0002B59D1A44B1A6822F4803241
:101D30001A601A6822F480221A606368002B64D04B
:101D4000FFF766FA05469D4B1B6813F4003F15D15B
:101D5000FFF75EFA401B6428F5D9032038BD974B86
:101D60009B6A03F00303022BD8D1944B1B6813F436
:101D7000003F03D06368002B00F07482236813F0E7
:101D8000020F00F084808D4B1B6913F0380F50D088
:101D90008A4B1B6903F03803182B45D0E368002BEE
:101DA00000F0AD8085490A6822F0190213430B60E8
:101DB000FFF72EFA0546814B1B6813F0040F40F025
:101DC0008E80FFF725FA401B0228F4D9032038BD86
:101DD0007A4A136843F480331360AEE7B3F5A02F5B
:101DE00009D0764B1A6822F480321A601A6822F4FD
:101DF00080221A60A1E7714B1A6842F480221A60AF
:101E00001A6842F480321A6097E7FFF701FA054634
:101E10006A4B1B6813F4003FB0D0FFF7F9F9401B81
:101E20006428F5D9032038BD644B9B6A13F0030F77
:101E3000B4D1624B1B6813F0040F03D0E368002B8E
:101E400000F012825D4A136823F01903E1680B4326
:101E50001360FFF7DDF90546584B1B6813F0040FBC
:101E600006D1FFF7D5F9401B0228F5D9032038BD6C
:101E70005248436823F47C3321694FF47C3292FA50
:101E8000A2F2B2FA82F201FA02F21343436023682B
:101E900013F0100F66D0494B1B6903F03803082B71
:101EA00047D0464B1B6903F03803182B3BD0E3693E
:101EB000002B00F08580414A136843F080031360D3
:101EC000FFF7A6F905463D4B1B6813F4807F64D1EC
:101ED000FFF79EF9401B0228F5D9032038BD37488B
:101EE000436823F47C3321694FF47C3292FAA2F2E6
:101EF000B2FA82F201FA02F213434360C7E72F4AB3
:101F0000136823F001031360FFF782F905462B4B9A
:101F10001B6813F0040FBAD0FFF77AF9401B0228B0
:101F2000F5D9032038BD254B9B6A03F00303012B31
:101F3000BDD1224B1B6813F4807F04D0E369802B52
:101F400001D0012038BD1D48436823F0F843216AC1
:101F50004FF0F84292FAA2F2B2FA82F201FA02F2D9
:101F600013434360236813F0080F51D06369002BBB
:101F70003AD0124A536F43F001035367FFF748F911
:101F800005460E4B5B6F13F0020F41D1FFF740F98E
:101F9000401B0228F5D9032038BD0848436823F0C8
:101FA000F843216A4FF0F84292FAA2F2B2FA82F2B2
:101FB00001FA02F213434360D4E700BF0044025821
:101FC000AC4A136823F080031360FFF721F905463C
:101FD000A84B1B6813F4807FC4D0FFF719F9401B8E
:101FE0000228F5D9032038BDA24A536F23F001031C
:101FF0005367FFF70DF905469E4B5B6F13F0020F19
:1020000006D0FFF705F9401B0228F5D9032038BD9B
:10201000236813F0200F29D0A3699BB1954A136858
:1020200043F480531360FFF7F3F80546914B1B68A8
:1020300013F4005F1AD1FFF7EBF8401B0228F5D923
:10204000032038BD8B4A136823F480531360FFF7D5
:10205000DFF80546874B1B6813F4005F06D0FFF7D7
:10206000D7F8401B0228F5D9032038BD236813F0A8
:10207000040F21D1636A002B00F0F8807D4A1269B9
:1020800002F03802182A00F0F380022B75D0794A4A
:10209000136823F080731360FFF7BAF80446754B9A
:1020A0001B6813F0007F00F0DB80FFF7B1F8001B26
:1020B0000228F4D9032038BD6F4A136843F48073B3
:1020C0001360FFF7A5F805466B4B1B6813F4807F80
:1020D00006D1FFF79DF8401B6428F5D9032038BDD1
:1020E000A368012B1CD00BBB624B1A6F22F00102BC
:1020F0001A671A6F22F004021A67A36863B3FFF726
:1021000087F805465B4B1B6F13F0020FB2D1FFF748
:102110007FF8401B41F288339842F3D9032038BD41
:10212000544A136F43F001031367E6E7052B09D008
:10213000504B1A6F22F001021A671A6F22F0040244
:102140001A67DAE74B4B1A6F42F004021A671A6FEC
:1021500042F001021A67D0E7FFF75AF80546454BEF
:102160001B6F13F0020F85D0FFF752F8401B41F2AE
:1021700088339842F3D9032038BD3E4A136823F0D0
:1021800080731360FFF744F805463A4B1B6813F061
:10219000007F06D0FFF73CF8401B0228F5D903204A
:1021A00038BD344B996A354A0A40A16AE06A41EA6F
:1021B00000110A439A62226B013AC2F30802616B72
:1021C0000139490289B20A43A16B0139090401F4BA
:1021D000FE010A43E16B0139090601F0FE410A43A1
:1021E0001A63596B264A0A40A06C4FF6F87191FAAF
:1021F000A1F1B1FA81F100FA01F10A435A63DA6AF6
:1022000022F00C02216C0A43DA62DA6A22F002023E
:10221000616C0A43DA62DA6A42F48032DA62DA6ABC
:1022200042F40032DA62DA6A42F48022DA62DA6A6E
:1022300042F00102DA621A6842F080721A60FEF718
:10224000E7FF04460B4B1B6813F0007F06D1FEF737
:10225000DFFF001B0228F5D9032038BD002038BD60
:10226000002038BD012038BD012038BD002038BD18
:10227000012038BD00440258004802580CFCFFFF02
:102280000700FFFF6D4B1B6903F03803102B00F0B4
:10229000D280182B10D00BB169487047674B1B6870
:1022A00013F0200F01D167487047644B1B68C3F3DC
:1022B000C1036448D8407047F0B4604DAC6A04F084
:1022C0000304AF6AC7F30517EE6A06F001066B6BED
:1022D000C3F3CC0303FB06F307EE903AF8EE677AFC
:1022E000012C60D0F4B1022C00F08980544BB3FB78
:1022F000F7F307EE103AB8EE477A504B1B6BC3F377
:102300000803DFED516A67EEA67A06EE903AF8EE22
:10231000666A76EEA77AF7EE006A77EEA67A27EE7F
:10232000277A5BE0454B1B6813F0200F1FD0434A10
:102330001368C3F3C1034348D840B0FBF7F307EE7B
:10234000103AB8EE477A136BC3F30803DFED3E6A29
:1023500067EEA67A06EE903AF8EE666A76EEA77A0F
:10236000F7EE006A77EEA67A27EE277A36E0354850
:10237000B0FBF7F307EE103AB8EE477A2F4B1B6B22
:10238000C3F30803DFED306A67EEA67A06EE903AF3
:10239000F8EE666A76EEA77AF7EE006A77EEA67A2E
:1023A00027EE277A1AE02649B1FBF7F307EE103A39
:1023B000B8EE477A214B1B6BC3F30803DFED226AAB
:1023C00067EEA67A06EE903AF8EE666A76EEA77A9F
:1023D000F7EE006A77EEA67A27EE277A174B1B6B8B
:1023E000C3F34623013307EE903AF8EE676AC7EE6F
:1023F000267AFCEEE77A17EE900AF0BC7047134A93
:10240000B2FBF7F307EE103AB8EE477A0B4B1B6BB3
:10241000C3F30803DFED0C6A67EEA67A06EE903A86
:10242000F8EE666A76EEA77AF7EE006A77EEA67A9D
:1024300027EE277AD2E70548704700BF00440258CC
:1024400000093D000090D0030000003900127A001E
:10245000774B1B6803F007038B420CD2744A136856
:1024600023F007030B431360136803F0070399423B
:1024700001D00120704770B5036813F0020F06D039
:102480006C4A936923F00F03C468234393610D469C
:102490000446036813F0010F72D0664A936923F46F
:1024A000706381680B4393614368022B27D0032B31
:1024B0002BD0012B30D05F4A126812F0040F00F0CD
:1024C000B5805C490A6922F0070213430B61FEF7ED
:1024D0009FFE06466368022B25D0032B32D0012BCA
:1024E0003FD0544B1B6913F0380F49D0FEF790FED4
:1024F000801B41F288339842F3D9032070BD1268E3
:1025000012F4003FDDD1012070BD4A4A126812F07A
:10251000007FD6D1012070BD464A126812F4807F38
:10252000CFD1012070BD434B1B6903F03803102B42
:1025300026D0FEF76DFE801B41F288339842F2D917
:10254000032070BD3B4B1B6903F03803182B17D0D9
:10255000FEF75EFE801B41F288339842F2D90320D9
:1025600070BD344B1B6903F03803082B08D0FEF70D
:102570004FFE801B41F288339842F2D9032070BD90
:102580002B4B1B6803F007039D420CD2284A1368AB
:1025900023F007032B431360136803F007039D42E6
:1025A00001D0012070BD236813F0040F06D0214A2A
:1025B000936923F0700321690B439361236813F03F
:1025C000080F06D01B4AD36923F0700361690B43DF
:1025D000D361236813F0100F06D0164AD36923F491
:1025E000E063A1690B43D361236813F0200F06D089
:1025F000104A136A23F07003E1690B431362FFF77B
:1026000041FE0C4B9B6903F470634FF4807292FAA5
:10261000A2F2B2FA82F2D340074AD35CD840074B09
:102620001860002002F0C6FF002070BD012070BDC0
:1026300000200052004402581461000808000020E5
:1026400008B500F0F5FD084B9B6903F00F0301226C
:1026500092FAA2F2B2FA82F2D340044AD35CD84092
:10266000034B186008BD00BF004402581461000805
:102670000C00002008B5FFF7E3FF074BDB6903F40C
:10268000E0634FF4807292FAA2F2B2FA82F2D3407F
:10269000024AD35CD84008BD0044025814610008C7
:1026A0003F230360114B1A6902F0070242609A69E6
:1026B00002F4706282609A6902F00F02C2609A6945
:1026C00002F070020261DA6902F070024261DA69B6
:1026D00002F4E06282611B6A03F07003C361044B81
:1026E0001B6803F007030B60704700BF00440258EB
:1026F00000200052384B9B6A03F00303032B69D080
:1027000070B50E460546344A136823F080631360A3
:10271000FEF77EFD0446304B1B6813F0006F06D0B9
:10272000FEF776FD001B0228F5D9032070BD2A4A6A
:10273000936A23F47C33296843EA013393626B681C
:10274000013BC3F30803A9680139490289B20B436D
:10275000E9680139090401F4FE010B4329690139D3
:10276000090601F0FE410B439363D36A23F0C003D3
:1027700069690B43D362D36A23F02003A9690B4331
:10278000D362BEB9D36A43F40023D362124A1368FA
:1027900043F080631360FEF73BFD04460E4B1B685D
:1027A00013F0006F14D1FEF733FD001B0228F5D99A
:1027B000032070BD012E05D0074AD36A43F40013ED
:1027C000D362E3E7044AD36A43F48013D362DDE7BC
:1027D000002070BD0120704700440258384B9B6AAE
:1027E00003F00303032B69D070B50E460546344A47
:1027F000136823F080531360FEF70AFD0446304B44
:102800001B6813F0005F06D0FEF702FD001B0228D4
:10281000F5D9032070BD2A4A936A23F07C73296896
:1028200043EA015393626B68013BC3F30803A96851
:102830000139490289B20B43E9680139090401F4FD
:10284000FE010B4329690139090601F0FE410B43E2
:102850001364D36A23F4406369690B43D362D36A78
:1028600023F40073A9690B43D362BEB9D36A43F45E
:102870008003D362124A136843F080531360FEF75B
:10288000C7FC04460E4B1B6813F0005F14D1FEF723
:10289000BFFC001B0228F5D9032070BD012E05D016
:1028A000074AD36A43F08073D362E3E7044AD36AEA
:1028B00043F40003D362DDE7002070BD01207047C0
:1028C00000440258F8B50446036813F0006F2BD09B
:1028D000436EB3F5801F19D010D9B3F5001F1BD07C
:1028E000B3F5401F1ED1002666BB934A136D23F437
:1028F0004013616E0B431365354617E093B98E4A5A
:10290000D36A43F40033D3620026EDE7022104309A
:10291000FFF7F0FE0646E7E702212430FFF75EFFEF
:102920000646E1E70126DFE700252E46236813F47B
:10293000807F16D0636D042B31D8DFE803F00523C8
:10294000290A0A003546F1E77B4AD36A43F400338B
:10295000D36236BB784A136D23F00703616D0B43D6
:102960001365236813F4007F32D0A36D802B43D00E
:102970001AD803B3402B1CD10021201DFFF7BAFE4B
:1029800006461DE00021201DFFF7B4FE0646E0E7E5
:10299000002104F12400FFF721FF0646D9E70126B4
:1029A000D7E73543EDB2DCE7C02B09D0B3F5807F24
:1029B00006D0012604E0604AD36A43F40033D362B0
:1029C0000EBB5D4A136D23F4E073A16D0B431365D9
:1029D000236813F4806F2FD0D4F8A430B3F5800FA0
:1029E0003ED013D8D3B1B3F5001F15D10021201D5F
:1029F000FFF780FE064616E0002104F12400FFF7F1
:102A0000EDFE0646DCE73543EDB2E1E7B3F5C00F76
:102A100009D0B3F5000F06D0012604E0464AD36A78
:102A200043F40033D36216BB434A936D23F460032F
:102A3000D4F8A4100B439365236813F4006F2FD0D0
:102A4000D4F8A830B3F1007F37D013D8D3B1B3F1A5
:102A5000807F15D10021201DFFF74CFE064616E0B1
:102A6000002104F12400FFF7B9FE0646DBE73543F9
:102A7000EDB2E1E7B3F1407F09D0B3F1806F06D04A
:102A8000012604E02C4AD36A43F40033D362DEB952
:102A9000294A936D23F0E063D4F8A8100B439365A3
:102AA000236813F0007F22D0A36C102B12D00ED914
:102AB000202B2FD0302B12D00AE0002104F124006B
:102AC000FFF78CFE0646E2E73543EDB2E8E733B1A7
:102AD000012604E0184AD36A43F40033D362FEB9F6
:102AE000154AD36C23F03003A16C0B43D3642368E5
:102AF00013F4805F30D0E36DB3F5005F73D012D86C
:102B0000E3B1B3F5805F14D10021201DFFF7F2FD82
:102B1000064618E00221201DFFF7ECFD0646DEE721
:102B20003543EDB2E3E7B3F5405F0CD0B3F5804F2A
:102B300009D0012607E000BF00440258954AD36A35
:102B400043F40033D362002E54D1924A136D23F420
:102B5000E043E16D0B431365236813F4005F16D067
:102B6000236EB3F5003F53D047D83BB1B3F5803F58
:102B70004CD10121201DFFF7BDFD0646002E4ED190
:102B8000844A136D23F4E023216E0B4313652368FD
:102B900013F4804F18D0D4F8AC30B3F1005F4CD0B0
:102BA00040D83BB1B3F1805F45D10121201DFFF733
:102BB000A1FD0646002E47D1764A936D23F0E043EF
:102BC000D4F8AC100B439365236813F4004F4BD03B
:102BD000E36EB3F1805F3AD0B3F1005F4FD0002BCA
:102BE0003AD0012638E0002104F12400FFF7F6FD79
:102BF0000646A8E73543EDB2AEE7B3F5802FBDD06A
:102C0000B3F5A02FBAD0B3F5403FB7D00126B5E752
:102C1000012104F12400FFF7E1FD0646AEE735434C
:102C2000EDB2B4E7B3F1804FC4D0B3F1A04FC1D03F
:102C3000B3F1405FBED00126BCE7012104F12400BE
:102C4000FFF7CCFD0646B5E73543EDB2BCE7514A88
:102C5000D36A43F40033D362BEB94E4A136D23F0F6
:102C60004053E16E0B431365236813F0807F1CD043
:102C7000636C032B43D8DFE803F0100B3C100121F9
:102C8000201DFFF737FD0646E6E73543EDB2EBE7DB
:102C9000404AD36A43F40033D36296BB3D4AD36CB7
:102CA00023F00303616C0B43D364236813F4800F98
:102CB0002AD1236813F0010F00F09E80A36F282B08
:102CC00000F2AD80DFE803F090ABABABABABABABEE
:102CD0008BABABABABABABABA4ABABABABABABAB6B
:102CE00090ABABABABABABAB90ABABABABABABAB6A
:102CF00090000221201DFFF7FDFC0646CDE70126CE
:102D0000CBE73543EDB2D0E7234A136843F4807331
:102D10001360FEF77DFA07461F4B1B6813F4807F94
:102D200005D1FEF775FAC01B6428F5D90326002EDD
:102D300052D1184B1B6FD4F8B020534013F4407F8E
:102D40000CD0144B1A6F22F44072196F41F4803189
:102D50001967196F21F4803119671A67D4F8B030F8
:102D6000B3F5807F1AD0002E33D1D4F8B03003F4FD
:102D70004072B2F5407F22D0064A136923F47C5397
:102D8000136104490B6FD4F8B020C2F30B02134354
:102D90000B678EE70044025800480258FEF738FAE5
:102DA0000746B74B1B6F13F0020FDCD1FEF730FA6A
:102DB000C01B41F288339842F3D90326D3E7B048C9
:102DC000026922F47C52AF4901EA131313430361F1
:102DD000D7E73543EDB26CE73543EDB269E7012142
:102DE000201DFFF787FC0646DEB9A54A536D23F088
:102DF0003803A16F0B435365236813F0020F20D0F3
:102E0000636F052B32D8DFE803F0140F2A14141473
:102E1000012104F12400FFF7E1FC0646E4E7012666
:102E2000E2E73543EDB2E7E70121201DFFF762FC41
:102E30000646EEB9924A536D23F00703616F0B43C8
:102E40005365236813F0040F25D0D4F89030052B78
:102E500000F2BB80DFE803F0140FB2141414012158
:102E600004F12400FFF7BAFC0646E2E70126E0E79A
:102E70003543EDB2E5E70121201DFFF73BFC064697
:102E8000002E40F0A4807E4A936D23F00703D4F80F
:102E900090100B439365236813F0200F1CD0D4F8D7
:102EA0008C30B3F1005F00F0A38000F2938043B157
:102EB000B3F1805F40F09A800021201DFFF71AFCDB
:102EC0000646002E40F09B806D4A536D23F0E04390
:102ED000D4F88C100B435365236813F0400F1CD0BB
:102EE000D4F89830B3F5006F00F09A8000F28A8031
:102EF00043B1B3F5806F40F091800021201DFFF7B2
:102F0000F9FB0646002E40F092805D4A936D23F453
:102F1000E053D4F898100B439365236813F0800FA7
:102F20001CD0D4F89C30B3F5804F00F08F8000F2B5
:102F3000818043B1B3F5005F40F086800021201D01
:102F4000FFF7D8FB0646002E40F087804C4A936D71
:102F500023F46043D4F89C100B439365236813F06B
:102F6000080F0AD0D4F88030B3F5805F78D0444998
:102F70004A6D22F4405213434B65236813F0100F3F
:102F80000AD0D4F89430B3F5807F71D03C498A6D73
:102F900022F4407213438B65236813F4002F00F072
:102FA0008180D4F8A030B3F5803F00F08C80B3F579
:102FB000003F6ED0002B67D001266AE0012104F1AA
:102FC0002400FFF70BFC06465AE7012658E7354375
:102FD000EDB260E7B3F1804F3FF473AFB3F1A04FB0
:102FE0003FF46FAFB3F1405F3FF46BAF012668E78A
:102FF000022104F12400FFF7F1FB064661E73543A7
:10300000EDB269E7B3F5805F3FF47CAFB3F5A05F45
:103010003FF478AFB3F5406F3FF474AF012671E72A
:10302000022104F12400FFF7D9FB06466AE7354385
:10303000EDB272E7B3F5004F85D0B3F5204F82D0E3
:10304000B3F5C04F3FF47FAF01267CE7022104F1C6
:103050002400FFF7C3FB064675E73543EDB27DE775
:10306000022104F12400FFF7B9FB0543EDB284E728
:10307000022104F12400FFF7B1FB0543EDB28BE719
:1030800000440258CFFFFF000021201DFFF732FB54
:103090000646FEB9654A936D23F44033D4F8A01078
:1030A0000B439365236813F4802F24D0D4F8843025
:1030B000B3F5001F2AD0B3F5401F13D0B3F5801F1E
:1030C0000BD001260EE0022104F12400FFF786FB5D
:1030D0000646DEE73543EDB2E4E7544AD36A43F4EB
:1030E0000033D362CEB9514A536D23F44013D4F860
:1030F00084100B435365236813F4803F1DD0E36CA9
:1031000073B1B3F5803F2CD001260EE0012104F10C
:103110002400FFF763FB0646E4E73543EDB2EAE738
:10312000424AD36A43F40033D36206BB3F4AD36CAE
:1031300023F48033E16C0B43D364236813F0005F06
:1031400018D1236813F4003F2DD0E36FB3F5807FCF
:103150001BD017D9B3F5007F1CD0B3F5407F12D137
:1031600018E00221201DFFF7C5FA0646DDE73543CA
:10317000EDB2E2E7022104F12400FFF72FFB054343
:10318000EDB2DEE733B1012604E0284AD36A43F406
:103190000033D362002E3DD1244A536D23F4407393
:1031A000E16F0B435365236813F4801F06D01F4A59
:1031B000136D23F00043216F0B431365236813F055
:1031C000805F07D0194A136923F48043D4F8B41000
:1031D0000B431361236813F4001F06D0134A136DC9
:1031E00023F08073A16E0B431365236813F0804FA7
:1031F00009D00E4B1A6922F400421A611A69D4F8F8
:10320000B8100A431A612368002B06DB05B10125BB
:103210002846F8BD3543EDB2C5E7044AD36C23F028
:103220004053216D0B43D364F0E700BF00440258C4
:1032300008B5FFF727F8084B9B6903F470634FF458
:10324000807292FAA2F2B2FA82F2D340034AD35CBD
:10325000D840034B186008BD0044025814610008B0
:103260000800002070470268D36843F00103D36070
:10327000026813889BB243F001031380002070475B
:10328000704770477047704710B5044603681A6965
:1032900012F0020F11D0DA6812F0020F0DD06FF0A9
:1032A00002021A610123037703689B6913F0030F7D
:1032B00079D0FFF7E6FF0023237723681A6912F01D
:1032C000040F12D0DA6812F0040F0ED06FF004026F
:1032D0001A610223237723689B6913F4407F68D027
:1032E0002046FFF7CEFF0023237723681A6912F0E8
:1032F000080F12D0DA6812F0080F0ED06FF0080233
:103300001A61042323772368DB6913F0030F57D076
:103310002046FFF7B6FF0023237723681A6912F0CF
:10332000100F12D0DA6812F0100F0ED06FF01002EA
:103330001A61082323772368DB6913F4407F46D0A2
:103340002046FFF79EFF0023237723681A6912F0B7
:10335000010F03D0DA6812F0010F3FD123681A6918
:1033600012F0800F03D0DA6812F0800F3DD123688D
:103370001A6912F4807F03D0DA6812F0800F3BD113
:1033800023681A6912F0400F03D0DA6812F0400F78
:1033900039D123681A6912F0200F03D0DA6812F0CD
:1033A000200F37D110BDFFF76BFF2046FFF76AFFF4
:1033B00081E72046FFF764FF2046FFF763FF92E7AF
:1033C0002046FFF75DFF2046FFF75CFFA3E720469E
:1033D000FFF756FF2046FFF755FFB4E76FF00102F5
:1033E0001A61204602F014F8B8E76FF080021A6103
:1033F000204600F0B3F8BAE76FF080021A61204669
:1034000000F0ACF8BCE76FF040021A612046FFF70D
:103410003AFFBEE76FF020021A61204600F09DF8E7
:10342000C0E7000070B403889BB2384DA84214BFB7
:1034300000250125B0F1804F14BF2A4645F0010256
:10344000AAB9334CA04214BF00240124314EB0422B
:103450000DD064B904F1804404F58234A04214BF55
:103460000024012406F50066B04200D01CB123F010
:1034700070034C68234312BB254A904214BF0022BC
:103480000122244CA0421AD0CAB902F1804202F5AE
:103490008232904214BF0022012204F50064A0424F
:1034A0000DD062B91C4A904214BF0022012204F5DB
:1034B0009A34A04203D012B9184A904203D123F49F
:1034C0004073CC68234323F080034A6913439BB2C3
:1034D00003808A68C2620A880285114B984214BF31
:1034E0002B4645F001035BB90B4B984214BF0023F8
:1034F00001230C4A904203D013B9084B984201D1E2
:103500000B8A03860123436170BC704700000140B1
:103510000008004000040040004401400048014011
:103520000004014000400140A8B110B5044690F8E5
:103530003D305BB1022384F83D30211D2068FFF748
:1035400071FF012384F83D30002010BD80F83C302D
:10355000FFF788FEEEE70120704770477047842828
:1035600001D0033070470020704708B500F05EFCC2
:10357000002008BDF0B585B00F46446805680669AF
:10358000B0F90800FFF7EBFF03AB019300903B4657
:10359000B2B22946204600F017FC012802D1039858
:1035A00005B0F0BD0020FBE708B5034600B90123D4
:1035B000184600F097FD002008BD08B500F04EFE4B
:1035C000012801D000F01EF908BD00F10803436096
:1035D0004FF0FF328260C3600361002303607047D5
:1035E00000230361704743684B609A688A609A6859
:1035F000516099600861036801330360704730B41B
:103600000D68B5F1FF3F02D000F1080202E0026947
:1036100004E01A4653681C68A542FAD253684B600E
:1036200099608A605160086103680133036030BCAF
:10363000704703694268816891608268416851609F
:103640005A68904205D0002202611868013818605B
:10365000704782685A60F6E70D4B1B68B3F1FF3F75
:103660000AD04FF0500372B683F31188BFF36F8F07
:10367000BFF34F8F62B6FEE74FF0500372B683F38D
:103680001188BFF36F8FBFF34F8F62B6FEE700BFA5
:103690000400002006480068006880F3088862B6CD
:1036A00061B6BFF34F8FBFF36F8F00DF00BF000025
:1036B00008ED00E0DFF80C00016841F470010160E2
:1036C0007047000088ED00E04FF0807340F8043C44
:1036D00021F0010140F8081C054B40F80C3C40F873
:1036E000202C6FF0020340F8243C4438704700BFA0
:1036F0005936000800000000000000000000000033
:10370000074B19680868B0E8F04F80F30988BFF3E9
:103710006F8F4FF0000080F311887047AFF3008087
:10372000EC3D00204FF0500372B683F31188BFF3D5
:103730006F8FBFF34F8F62B60B4A1368013313606C
:10374000012B0FD1094B1B6813F0FF0F0AD04FF06C
:10375000500372B683F31188BFF36F8FBFF34F8F9F
:1037600062B6FEE7704700BF0400002004ED00E0F1
:103770000A4B1B6853B94FF0500372B683F311889C
:10378000BFF36F8FBFF34F8F62B6FEE7013B034A73
:1037900013600BB983F31188704700BF0400002049
:1037A000EFF30980BFF36F8F154B1A681EF0100FEF
:1037B00008BF20ED108A20E9F04F10604DF8043D5D
:1037C0004FF0500072B680F31188BFF34F8FBFF3F4
:1037D0006F8F62B600F0F2FC4FF0000080F31188AA
:1037E00008BC19680868B0E8F04F1EF0100F08BF59
:1037F000B0EC108A80F30988BFF36F8F704700BF69
:10380000EC3D002008B54FF0500372B683F31188E9
:10381000BFF36F8FBFF34F8F62B600F051FB18B14B
:103820004FF08052024B1A60002383F3118808BDC9
:1038300004ED00E0064B1B68064AA2FB03239B092C
:10384000013B054A13600722044B1A60704700BF12
:1038500008000020D34D621014E000E010E000E00A
:1038600000B583B0224B1A78D2B20192FF221A70AF
:103870001B78DBB28DF803309DF8033003F0500362
:103880001C4A137007221C4B1A6009E01A4A13687D
:10389000013B13609DF803305B00DBB28DF8033011
:1038A0009DF8033013F0800FF0D1134A13681B0208
:1038B00003F4E0631360019BDBB20D4A13700F4BFE
:1038C0001A6842F470021A601A6842F070421A6074
:1038D000FFF7B0FF00220A4B1A60FFF7EBFE094A20
:1038E000136843F040431360FFF7D4FEFFF7B4FEC4
:1038F00000E400E0CC010020D001002020ED00E039
:103900000400002034EF00E0124A12F0070F1ED02E
:10391000D11D21F00701C1F5705313440A460E482A
:103920000260002141601344083B23F007030B4869
:10393000036059601960991A51601360084B19604F
:10394000084B19604FF00042074B1A6070474FF464
:103950007053E4E7D8010020E43D0020D4010020AA
:10396000E03D0020DC3D0020D83D002010B4134B8A
:103970001A6882421BD359685C18A04203D1406880
:1039800001445960184641684418A24213D10C4CB6
:103990002468A2420DD05268114441601A6812682E
:1039A0000260984200D018605DF8044B70471346DF
:1039B000DEE70460F5E70260F3E700BFE43D0020C6
:1039C000D401002070B5044600F072FA3D4B1B682C
:1039D000CBB13D4B1B681C4269D1BCB1083414F01B
:1039E000070F13D024F00704083404F007036BB169
:1039F0004FF0500372B683F31188BFF36F8FBFF39C
:103A00004F8F62B6FEE7FFF77FFFE2E7002C50D052
:103A10002E4B1B689C424ED82D4B1D6801E02B4657
:103A200015466A68944202D92A68002AF7D1254AC5
:103A30001268954241D01E6808362A681A606B6881
:103A40001B1B102B12D9281910F0070F0AD04FF0AA
:103A5000500372B683F31188BFF36F8FBFF34F8F9C
:103A600062B6FEE743606C60FFF780FF6A68174943
:103A70000B689B1A0B60174909688B4201D21549E4
:103A80000B60114B1B6813436B6000232B6000F02D
:103A9000A9FA16F0070F12D04FF0500372B683F355
:103AA0001188BFF36F8FBFF34F8F62B6FEE700261A
:103AB000EDE70026EBE70026E9E70026E7E73046DA
:103AC00070BD00BFD4010020D83D0020DC3D0020A7
:103AD000E43D0020E03D0020002834D038B5044605
:103AE000A0F1080550F8042C174909680A420AD1C8
:103AF0004FF0500372B683F31188BFF36F8FBFF39B
:103B00004F8F62B6FEE750F8080C50B14FF05003EB
:103B100072B683F31188BFF36F8FBFF34F8F62B616
:103B2000FEE722EA010244F8042C00F0C1F954F83F
:103B3000041C064A13680B4413602846FFF716FF5F
:103B400000F050FA38BD7047D83D0020DC3D002021
:103B50000A4B1B681B684BB901234BB9074B1B6809
:103B6000DB68DB685A68064B1A6070470023F4E78D
:103B70004FF0FF32024B1A60704700BFF03D00204B
:103B8000C83E002010B50446006BFFF7A5FF204695
:103B9000FFF7A2FF10BD2DE9F04780469946089D2A
:103BA000099F0A9C266B6FF04043134406EB830683
:103BB00026F0070600230F2B07D8C85CE21882F80E
:103BC0003400CA5C0AB10133F5E7002384F84330BE
:103BD000062D00D90625E56265644FF0000AC4F899
:103BE00048A0201DFFF7FCFC04F11800FFF7F8FCCB
:103BF0002461C5F10705A5616462C4F84CA084F88E
:103C000050A04A4641463046FFF75EFD206007B1AE
:103C10003C60BDE8F087000038B5002407E004EB05
:103C2000840293000E481844FFF7CFFC0134062CA1
:103C3000F5D90C4D2846FFF7C8FC0B4C2046FFF782
:103C4000C4FC0A48FFF7C1FC0948FFF7BEFC09485D
:103C5000FFF7BBFC084B1D60084B1C6038BD00BF64
:103C6000F83D00209C3E0020B03E0020D03E0020C9
:103C7000FC3E0020E83E0020F03D0020F43D002006
:103C800010B50446FFF74EFD204A13680133136058
:103C90001F4B1B68002B31D01E4B1B683BB91C4BC4
:103CA0001B68DA6AE36A9A4201D8194B1C601A4A07
:103CB000136801331360E36A01229A4017490868C8
:103CC00002430A6003EB83039A00211D1448104449
:103CD000FFF789FCFFF74CFD0E4B1B686BB10C4BDB
:103CE0001B68DA6AE36A9A4207D24FF080520D4BA2
:103CF0001A60BFF34F8FBFF36F8F10BD044B1C6072
:103D00001368012BD3D1FFF787FFD0E7843E002053
:103D1000EC3D0020E43E0020943E0020983E002030
:103D2000F83D002004ED00E070B504460E461F4B40
:103D30001D681F4B18680430FFF77BFC50B91C4B03
:103D40001B68DA6A012303FA02F21A490B6823EAB4
:103D500002030B60B4F1FF3F14BF00230123002EC8
:103D600008BF00239BB92C44114B1B685C60A54223
:103D700014D8114B18680E4B19680431FFF73FFC3B
:103D80000E4B1B689C4201D20C4B1C6070BD084B53
:103D9000196804310A48FFF726FC70BD094B186802
:103DA000034B19680431FFF72AFC70BD103F002057
:103DB000EC3D0020983E0020F03D0020C83E002051
:103DC000E83E0020F43D00202DE9F04385B0064692
:103DD0000F46154698469000FFF7F4FD00B3814664
:103DE0005420FFF7EFFD0446B0B1C0F83090CCB1DD
:103DF0000023039302940D9B01930C9B0093434675
:103E00002A4639463046FFF7C6FE2046FFF738FF00
:103E1000012005B0BDE8F0834846FFF75DFEE6E708
:103E20000024E4E74FF0FF30F3E7000000B583B073
:103E3000194B019300230093802218491848FFF77B
:103E4000C3FF012805D0B0F1FF3F19D003B05DF8E2
:103E500004FB4FF0500372B683F31188BFF36F8FEA
:103E6000BFF34F8F62B64FF0FF320E4B1A60012244
:103E70000D4B1A6000220D4B1A60FFF7F1FCE5E7CD
:103E80004FF0500372B683F31188BFF36F8FBFF307
:103E90004F8F62B6FEE700BFC43E0020E06000081E
:103EA00095410008C83E0020E43E0020103F00205D
:103EB000024A136801331360704700BF903E002030
:103EC000F8B53D4B1B68002B6AD13C4B1D68013592
:103ED0001D60D5B93A4B1B681B6853B14FF05003B6
:103EE00072B683F31188BFF36F8FBFF34F8F62B643
:103EF000FEE7334A1168334B186810601960324A84
:103F0000136801331360FFF723FE304B1B689D429B
:103F10003AD200242E4B1B68DB6A03EB83039A0022
:103F20002C4B9B58012B40D901243EE00124244B0B
:103F30001B681B6853B3002353BB214B1B68DB6812
:103F4000DE6873689D4228D3371D3846FFF771FB42
:103F5000B36A1BB106F11800FFF76BFBF36A01228D
:103F60009A401D49086802430A6003EB83039A00E4
:103F7000394618481044FFF736FBF26A144B1B68A9
:103F8000DB6A9A42D2D2D2E70024D0E70123D3E7FA
:103F90004FF0FF320D4B1A60BCE70C4A1360B9E7D3
:103FA0000E4A13680133136000240D4B1B6803B1E4
:103FB00001242046F8BD00BF903E0020103F0020A5
:103FC000F03D0020F43D0020CC3E0020C83E002003
:103FD000EC3D0020F83D0020983E00208C3E002063
:103FE000143F002038B5364B1B6853B94FF05003CF
:103FF00072B683F31188BFF36F8FBFF34F8F62B632
:10400000FEE7FFF78FFB2E4B1A68013A1A601B6818
:10401000002B50D12B4B1B6823B90024FFF7A8FBC2
:10402000204638BD0024284B1B681BB3264BDB6899
:10403000DC6804F11800FFF7FCFA251D2846FFF79D
:10404000F8FAE36A01229A402049086802430A60AC
:1040500003EB83039A0029461D481044FFF7C3FA77
:10406000E26A1C4B1B68DB6A9A42DCD301221A4BC2
:104070001A60D8E70CB1FFF76BFD184B1C6874B9D8
:10408000154B1B68CBB14FF08052154B1A60BFF334
:104090004F8FBFF36F8F0124C0E7013C07D0FFF7BC
:1040A0000FFF0028F9D001220B4B1A60F5E7002220
:1040B0000A4B1A60E4E70024B0E70024AEE700BF33
:1040C000903E0020843E0020D03E0020983E0020FC
:1040D000F83D0020EC3D0020143F00208C3E0020E5
:1040E00004ED00E010B5B8B10446114B1B6853B1A4
:1040F0004FF0500372B683F31188BFF36F8FBFF395
:104100004F8F62B6FEE7FFF7D3FE00212046FFF790
:104110000BFEFFF767FF00E0002038B94FF0805238
:10412000044B1A60BFF34F8FBFF36F8F10BD00BFFA
:10413000903E002004ED00E0134B1B6813B310B554
:10414000FFF7B6FE114B1C68FFF74CFF24B90E4B6E
:104150001B68002BF4D110BDFFF7E4FA0B4BDB68B2
:10416000DC68201DFFF765FA094A1368013B1360FC
:10417000054A1368013B1360FFF7FAFA2046FFF780
:1041800001FDE4E7704700BF883E0020FC3E0020B0
:10419000843E002008B5FFF7CFFF064B1B68012BBC
:1041A000F9D94FF08052044B1A60BFF34F8FBFF321
:1041B0006F8FF0E7F83D002004ED00E0224B1B6814
:1041C000D3B90022214B1A60214B1B68B3FA83F349
:1041D000DBB2C3F11F0303EB83018A001D498A5838
:1041E00072B94FF0500372B683F31188BFF36F8F2B
:1041F000BFF34F8F62B6FEE70122144B1A6070477F
:1042000010B414489A00D418A10001444C686468A2
:104210004C601A4491000831084484420BD003EBEF
:1042200083039A000B4B13445B68DA680A4B1A60ED
:104230005DF8044B7047606803EB83029100054A08
:104240000A445060EBE700BF903E0020143F00207E
:10425000983E0020F83D0020EC3D0020054B1B68F7
:1042600023B1054B1B681BB9022070470120704722
:1042700000207047E43E0020903E002080B483B0D0
:1042800000AF786000BF0C37BD465DF8047B704717
:1042900080B400AF00231846BD465DF8047B70472C
:1042A00080B483B000AF87ED010AD7ED017AFAFE42
:1042B000677AB0EE670A0C37BD465DF8047B70473D
:1042C00080B588B000AF0346B9607A60FB73FFF732
:1042D000DFFF0346FB61FFF7DBFF0246FB69D21AF3
:1042E000BB689A4234BF01230023DBB2002B2DD0E0
:1042F000194B1B68002B02D10120FFF7BFFF174BA2
:104300001B68012B03D0144B1B68002BE3D1134B0C
:1043100000221A600023FB7507F1170301221946DA
:10432000052000F0D9F80346BB61FA7DFB7B134002
:10433000DBB2002BCFD0BB69012BCCD17B68002B2B
:1043400002D0FA7D7B681A70012300E00023184632
:104350002037BD4680BD00BF240100202001002081
:1043600080B586B000AF0346B9607A60FB730B4B33
:104370001B687B61094B00221A60FB7B7A68B96875
:104380001846FFF79DFF0346FB74044A7B691360E0
:10439000FB7C18461837BD4680BD00BF24010020B5
:1043A00080B58AB002AFB9607A603B600346FB73A8
:1043B0000123FB61BB68002B04D0BB68012B01D03B
:1043C00000237EE03B68002B04D03B68012B01D02A
:1043D000002376E0FA20FFF751FF3C4ABB681360E8
:1043E0001223BB7507F1140303221946002000F0C5
:1043F00073F80346002B0CBF01230023DBB2002B14
:1044000001D000235DE03B7DFB767B7D1A46304B7F
:104410001A60BB7D1A462F4B1A60FB7E432B01D0DE
:104420000023FB6107F11A0301221946032000F063
:1044300053F80346002B0CBF01230023DBB2002BF3
:1044400001D000233DE0234B1B6803F0E003202B49
:1044500005D1BB7E3F2B0FD00023FB610CE01D4B31
:104460001B6803F0E003002B06D1BB7E302B01D08C
:104470000023FB61FB6924E0144B1B68012B1CD15A
:104480007B68DBB2FB743B68581D0023009300235C
:104490000022002100F070FD07F1130301221946EC
:1044A000102000F097F80346002B0CBF01230023D7
:1044B000DBB2002B01D0002303E00120FFF7DEFE7A
:1044C000FB6918462037BD4680BD00BF240100208F
:1044D0002C0100202801002080B58AB000AF0346DF
:1044E000B9607A60FB73FB7B062B1FDDFB7B0F2B18
:1044F00002DDFB7B112B19DDFB7B132B02DDFB7B2C
:10450000232B13DDFB7B262B02DDFB7B2A2B0DDD12
:10451000FB7B2F2B02DDFB7B472B07DDFB7B4D2B32
:1045200002DDFB7B882B01DD00234FE07B6807EE7B
:10453000903AF8EEE77AB3EE047AC7EE876AB0EE07
:10454000660AFFF7ADFEF0EE407AFDEEE77A17EE71
:10455000903AFB6101233B6200237B627A6AFB692C
:104560009A4232DA7A6A13469B0013449B00BB617D
:10457000BB69DAB2FB7B1344DBB2FB757B6A5A1C66
:10458000FB699A420DD0BB69BA681A4407F117005B
:104590001423012100F000FC02463B6A13403B62F9
:1045A0000FE0BB69BA68D1187A68BB69D31A07F102
:1045B00017000A46012100F0EFFB02463B6A134058
:1045C0003B627B6A01337B62C8E73B6A1846283747
:1045D000BD4680BD80B588B000AF0346B9607A6043
:1045E000FB73FB7B0F2B02DDFB7B112B19DDFB7BB0
:1045F000132B02DDFB7B232B13DDFB7B262B02DD44
:10460000FB7B2A2B0DDDFB7B2F2B02DDFB7B3B2B6A
:1046100007DDFB7B842B02DDFB7B882B01DD002388
:104620004EE07B6807EE903AF8EEE77AB3EE047A54
:10463000C7EE876AB0EE660AFFF732FEF0EE407A08
:10464000FDEEE77A17EE903A7B610123BB61002310
:10465000FB61FA697B699A4231DAFA6913469B0079
:1046600013449B003B61FB695A1C7B699A4210D042
:104670003B69DAB2FB7B1344D8B23B69BA68134496
:104680001422194600F066FB0246BB691340BB6169
:1046900011E03B69DAB2FB7B1344D8B23B69BA68DC
:1046A000D1187A683B69D31A1A4600F053FB0246C8
:1046B000BB691340BB61FB690133FB61C9E7BB699F
:1046C00018462037BD4680BD2DE9F04F8FB000AFB2
:1046D000B9617A613B610346FB776B467B603B6E59
:1046E0000133142B04DDEA224349444800F09EFCC8
:1046F0007B690133142B04DDEB223F493F4800F076
:1047000095FCFB7FAF2B02DDFB7FBB2B07DDFB7F27
:10471000BF2B02DDFB7FC82B01DD002364E07A693B
:104720007A63134601334FF00004E100F960F96841
:1047300041EA5371F960DB00BB60134601334FF06F
:1047400000044FEAC40B4BEA537B4FEAC30A1346FB
:1047500001330733DB08DB00ADEB030D6B460033A1
:104760003B633B6BFA7F1A703B6B01337A69B96923
:10477000184600F0FDFF3A6EFA62134601334FF01F
:1047800000044FEAC40949EA53794FEAC3081346C3
:1047900001334FF00004E60046EA5376DD0013468D
:1047A00001330733DB08DB00ADEB030D6B46003351
:1047B000BB62386B7B69591CBA6A3B6E013300F0EF
:1047C000EBFA034687F8273097F82730002B02D101
:1047D00097F8273008E0BB6A01333A6E194638690A
:1047E00000F0C6FFBB6A1B78D7F804D018463C37E8
:1047F000BD46BDE8F08F00BF585800087858000843
:104800002DE9F0438DB002AFBA607B600346FB81B7
:104810000B467B736B461E467B7B0F2B02DD7B7B3F
:10482000112B19DD7B7B132B02DD7B7B232B13DD0F
:104830007B7B262B02DD7B7B2A2B0DDD7B7B2F2BCD
:1048400002DD7B7B3B2B07DD7B7B842B02DD7B7BCF
:10485000882B01DD002374E07B68632B01DD0023DE
:104860006FE000237B62796839620B4601331A4698
:104870004FF000034FEAC30949EA52794FEAC208F0
:104880000B4601331A464FF00003DD0045EA52752E
:10489000D4000B4601330733DB08DB00ADEB030D1F
:1048A00002AB0033FB61FB6900221A70FB697A7B63
:1048B0005A70FB6902337A68B968184600F058FFED
:1048C000F9697B689A1C002300930023B220FFF74C
:1048D000FBFE03467B627B6A002B01D17B6A30E0E2
:1048E000FB89DBB23B76FB891B12DBB27B760423B0
:1048F000BB760023FB7507F117030122194605203B
:10490000FFF7EAFD07F118010023009300230322BB
:10491000B320FFF7D9FE03467B6207F117031A465F
:1049200064211120FFF71CFD0346002B08D0FB7DFE
:1049300003F00103002B01D0002302E0012300E07B
:104940000823B54618462C37BD46BDE8F08380B530
:104950008CB002AFBA607B600346FB810B467B7371
:104960007B7B062B1FDD7B7B0F2B02DD7B7B112BE3
:1049700019DD7B7B132B02DD7B7B232B13DD7B7B04
:10498000262B02DD7B7B2A2B0DDD7B7B2F2B02DD93
:104990007B7B472B07DD7B7B4D2B02DD7B7B882BD5
:1049A00001DD002382E07B68642B01DD00237DE0D4
:1049B000FB89002B01D1002378E000237B620023D8
:1049C0003B777B7B7B777B68DBB2BB7707F11C0196
:1049D0000023009300230322B220FFF775FE034655
:1049E0007B627B6A002B01D17B6A5FE0FB89DBB2D3
:1049F0003B76FB891B12DBB27B760223BB7600235E
:104A0000FB7507F11703012219460520FFF764FD26
:104A100007F118010023009300230322B320FFF7BE
:104A200053FE03467B627B6A002B01D17B6A3DE02B
:104A300007F117031A464FF47A711120FFF790FC23
:104A40000346002B31D0FB7D03F00103002B01D086
:104A500000232BE000233B7500237B750023BB75EF
:104A600007F11403032219468220FFF735FD3B7D31
:104A70009AB27B7D9BB21B029BB213447B84BB7DAD
:104A800087F821307A8CFB899A420CD197F8212043
:104A90007B689A4207D17968B86800F0FDF8034650
:104AA0007B627B6A02E0002300E008231846283777
:104AB000BD4680BD2DE9F04F91B002AF3A61FB6079
:104AC0000346FB820B467B756B461E467B7DAF2BF8
:104AD00002DD7B7DBB2B07DD7B7DBF2B02DD7B7D7C
:104AE000C82B01DD0023D1E000237B63FB68591C48
:104AF00039630B4601331A464FF00003D800786043
:104B0000786840EA52707860D3003B600B4601330E
:104B10001A464FF000034FEAC30B4BEA527B4FEAB1
:104B2000C20A0B4601330733DB08DB00ADEB030D94
:104B300002AB0033FB62FB6A00221A70FB6A7A7DCB
:104B40005A70FB6A0233FA683969184600F010FEA1
:104B5000F96AFB689A1C002300930023B220FFF738
:104B6000B3FD03467B637B6B002B01D17B6B8DE038
:104B7000FB8ADBB23B77FB8A1B12DBB27B77082315
:104B8000BB770023FB7607F11B03012219460520A2
:104B9000FFF7A2FC07F11C0100230093002303226E
:104BA000B320FFF791FD03467B637B6B002B01D1A4
:104BB0007B6B6BE007F11B031A464FF47A711120EF
:104BC000FFF7CEFB0346002B5FD0FB7E03F0010313
:104BD000002B01D0002359E007F1180303221946E6
:104BE0008220FFF779FC3B7E9AB27B7E9BB21B0250
:104BF0009BB213447B85BB7E87F829307A8DFB8A74
:104C00009A4240D197F829207B6E01339A423AD1DB
:104C10006B469A46796E79620B4601331A464FF01D
:104C200000034FEAC30949EA52794FEAC2080B462A
:104C300001331A464FF00003DD0045EA5275D400F7
:104C40000B4601330733DB08DB00ADEB030D02AB92
:104C500000333B623A6A7B6E01331946104600F01E
:104C60001BF803467B637B6B002B01D17B6B08E059
:104C70003B6A01337A6E1946386E00F079FD3B6A63
:104C80001B78D54602E0002300E00823B54618460D
:104C90003C37BD46BDE8F08F80B58AB002AF786082
:104CA00039603B68642B01DD00234EE013237B61F8
:104CB0003B6807EE903AB8EEE77A7B6907EE903AE8
:104CC000F8EEE77AC7EE276AB0EE660AFFF7E8FA71
:104CD000F0EE407AFDEEE77A17EE903A3B61002362
:104CE000BB61BA693B699A422EDABB69DAB27B6969
:104CF000DBB212FB03F3DBB23B73BB695A1C3B69AB
:104D00009A4203D07B69DBB27B730BE03B68DAB27B
:104D1000BB69D9B27B69DBB211FB03F3DBB2D31AF7
:104D2000DBB27B733B7B1A467B6813447A7B07F1CB
:104D30000C0100920222B420FFF7C6FC0346FB617F
:104D4000BB690133BB61CCE7FB6918462037BD4620
:104D500080BD000080B58AB004AF0346B9607A60B8
:104D6000FB730123FB75FB7B99B27B689BB24FF011
:104D7000FF3202920193BB68009301230A469621F9
:104D80000448FCF79BFD0346FB75FB7D184618376E
:104D9000BD4680BD1C3F002080B58AB004AFF860DE
:104DA000B9607A603B60BB6899B23B689BB2642291
:104DB000029201937B6800930B46FA68962107489C
:104DC000FCF75EFE0346002B0CBF01230023DBB281
:104DD000FB75FB7D18461837BD4680BD1C3F002083
:104DE00080B584B000AFB9607A601A460346FB73A1
:104DF0001346BB81BB68002B04D110220C490D481F
:104E000000F014F9BB89002B07D1FB7B7A68B968E5
:104E10001846FFF761FB034606E0F97BB8897B681B
:104E2000BA68FFF794FD034618461037BD4680BDAB
:104E300084580008805D000880B584B000AFB96078
:104E40007A601A460346FB731346BB81BB89002B6D
:104E500007D1FB7B7A68B9681846FFF7BBFB0346AE
:104E600006E0F97BB8897B68BA68FFF7C9FC03469E
:104E700018461037BD4680BD80B586B002AFB96018
:104E80007A603B600346FB73BB8B002B09D1F87B38
:104E9000BB6900933B687A68B968FFF715FC034665
:104EA0000AE0F97BB88BBB6901933B6800937B6890
:104EB000BA68FFF7FFFD034618461037BD4680BDB0
:104EC00080B582B000AF78600B467B807B88312252
:104ED00079685020FFF784FF034618460837BD461F
:104EE00080BD000080B586B002AF78600B46FB70D5
:104EF00013463B807B68002B05DC4FF431721C4964
:104F00001C4800F093F87B68042B05DD40F2C522B5
:104F10001749184800F08AF8FB78012B08D0FB7875
:104F2000002B05D040F2C6221149124800F07EF84D
:104F30007B680333012202FA03F35AB2F9787B68E3
:104F4000013B01FA03F35BB213435BB2DBB2FB73C9
:104F500007F10F013B8801930023009300230122F6
:104F6000B120FFF789FF034618461037BD4680BDC4
:104F700084580008AC5F000880B586B000AFF860C8
:104F8000B9607A603B60FB68062B02DCFB68002B93
:104F900005DA4FF49E622349234800F047F8BB68C6
:104FA000002B08D0BB68012B05D040F2F1421D490F
:104FB0001D4800F03BF87B68002B08D07B68012B74
:104FC00005D040F2F2421749174800F02FF83B682D
:104FD000002B08D03B68012B05D040F2F342114969
:104FE000114800F023F8BB68DB005AB2FB685BB2E3
:104FF00013435AB27B681B015BB213435AB23B683E
:105000005B015BB213435BB2DBB2FB753B8C07F118
:10501000170101221120FFF70FFF0346184618372A
:10502000BD4680BD845800089C60000880B485B0EF
:1050300000AFF860B9607A6000BF1437BD465DF814
:10504000047B704780B582B002AF064B0193012309
:1050500000930023C82204490448FEF7B5FE00BFB0
:10506000BD4680BD80010020C4600008715000086A
:1050700080B582B000AF78600123022201210020B8
:10508000FFF78EF900211448FFF71AFF002112489C
:10509000FFF716FF104BB3F90420104B1A800E4B8C
:1050A000B3F918200D4B5A800B4BB3F91A200B4B58
:1050B0009A80094B1B680A4A1360002201210420D0
:1050C000FFF710FF002201210220FFF70BFF6420F1
:1050D000FFF708F8DAE700BF88010020BC010020D4
:1050E000C401002008B50120FEF75EFAFBE70000CE
:1050F00030B587B001AC074D0FCD0FC42B682360CE
:10510000002101A8FEF736FA034B1860FFF79AFF5B
:1051100007B030BDCC600008183F00202DE9F04FEB
:105120008FB07C4BD3F8E02042F00402C3F8E020BB
:10513000D3F8E02002F004020192019AD3F8E020B3
:1051400042F08002C3F8E020D3F8E02002F08002B1
:105150000292029AD3F8E02042F00102C3F8E02064
:10516000D3F8E02002F001020392039AD3F8E02082
:1051700042F02002C3F8E020D3F8E02002F0200241
:105180000492049AD3F8E02042F01002C3F8E02021
:10519000D3F8E02002F010020592059AD3F8E0203F
:1051A00042F00202C3F8E020D3F8E02002F002024D
:1051B0000692069AD3F8E02042F00802C3F8E020F5
:1051C000D3F8E02002F008020792079AD3F8E02013
:1051D00042F04002C3F8E020D3F8E03003F040038F
:1051E0000893089BDFF8408100224FF4814140463C
:1051F000FCF780F9484E002240213046FCF77AF94E
:105200003223099302250A9500240B940C940B2752
:105210000D9709A94148FCF777F8862309930A9569
:105220000B940C940D97DFF8049109A94846FCF7FC
:105230006BF84FF400430993DFF8F4B0CDF828B0D1
:105240000B9409A93648FCF75FF84FF4005ACDF8E3
:1052500024A0CDF828B00B94DFF8D8B009A958469F
:10526000FCF752F80A950B940C940F230D9309A99F
:105270005846FCF749F8CDF824A00A950B940C94F5
:105280000D9709A94046FCF73FF84FF48143099375
:105290004FF0010ACDF828A00B940C9409A94046C0
:1052A000FCF732F84FF4407309930A950B940C9471
:1052B00007230D9309A91B48FCF726F840230993FF
:1052C000CDF828A00B940C9409A93046FCF71CF8E3
:1052D000802309930A940B9409A93046FCF714F82B
:1052E0004FF4E85309930A950B940C940A230D93F9
:1052F00009A94846FCF708F84FF4205309930A958A
:105300000B940C940D9709A93046FBF7FDFF0FB0E5
:10531000BDE8F08F004402580018025800080258F7
:1053200000140258000C02580004025800000258F1
:10533000000011110010025808B51548154B036004
:10534000154B4360002383600122C2600361436107
:105350008361C3610362FCF753FA50B900210C4822
:10536000FCF770FC50B900210948FCF799FC50B9D2
:1053700008BD4C21094800F057F8EFE753210748D2
:1053800000F052F8EFE75A21044800F04DF8EFE73B
:105390001C3F002000540040EC9C9010F46000087A
:1053A0000268134B9A4200D0704700B587B04FF4A3
:1053B0004073019312230293012303930223049366
:1053C000042305930DEB03010A48FBF79DFF0A4BED
:1053D000D3F8E82042F40012C3F8E820D3F8E8300C
:1053E00003F400130093009B07B05DF804FB00BFBB
:1053F00000540040000402580044025808B500223E
:1054000005212820FBF71CFF2820FBF749FF08BDDA
:1054100008B50268034B9A4200D008BDFBF7ECFECA
:10542000FBE700BF00000140FEE7000000B5CDB083
:10543000334BDA6822F00402DA60002201929A69A2
:1054400022F4404242F480429A619B6903F4404353
:105450000193019B2A4B9B6913F4005FFAD002234E
:10546000399301223C9210223D92429300224392B2
:10547000042144910A2045904693479148930C217A
:1054800049914A934B9239A8FCF736FC58BB3F230D
:10549000319303233293002333933493359336931C
:1054A00037933893012131A8FCF7D2FFF8B90823CC
:1054B00002930023229302A8FDF704FAD8B9114BF6
:1054C0001868114BA3FB00308009FBF7F7FE04209E
:1054D000FBF70AFF00220F214FF0FF30FBF7B0FE71
:1054E0004DB05DF804FBB4210848FFF79DFFC621CD
:1054F0000648FFF799FFCD210448FFF795FF00BF4D
:105500000048025808000020D34D621004610008D2
:1055100008B5FBF761FEFFF789FFFFF7FFFDFFF717
:105520000BFFFFF76BFFFFF7E3FDFEF71EF8FEE74B
:1055300000B583B01E4BD3F8F42042F00202C3F84A
:10554000F420D3F8F43003F002030193019B03200D
:10555000FBF764FE002211466FF00B00FBF770FEB4
:10556000002211466FF00A00FBF76AFE0022114686
:105570006FF00900FBF764FE002211466FF0040093
:10558000FBF75EFE002211466FF00300FBF758FEAA
:1055900000220F216FF00100FBF752FE00220F21C5
:1055A0004FF0FF30FBF74CFE03B05DF804FB00BF8B
:1055B0000044025800B58BB0002201461920FBF7C9
:1055C0003FFE1920FBF76CFE164BD3F8F02042F09B
:1055D0000102C3F8F020D3F8F03003F00103009388
:1055E000009B01A902A8FDF75BF8FDF743F80E4BFD
:1055F000A3FB00239B0C013B0C480D4A026040F2C8
:10560000E732C2604360002303618360FDF78CFFD3
:1056100018B101200BB05DF804FB0448FDF723FE30
:10562000F8E700BF0044025883DE1B43683F0020B8
:10563000000001407047FEE7FEE7FEE7FEE7704727
:1056400008B5FDF7BAFF08BD08B50248FDF71CFE16
:1056500008BD00BF683F002008B54FF40050FBF7BD
:105660004FFF4FF40040FBF74BFF08BD10B4154946
:10567000D1F8883043F47003C1F88830124B1A68AF
:1056800042F001021A6000221A611C680F48204093
:1056900018609A61DA611A629A62DA621A635A636E
:1056A0009A63DA631A645A64186820F480201860D8
:1056B0001A660122064B1A604FF000638B605DF89A
:1056C000044B704700ED00E0004402587FEDF6EA1D
:1056D00008810051DFF834D0002103E00C4B5B5807
:1056E000435004310B480C4B42189A42F6D30B4AF4
:1056F00002E0002342F8043B094B9A42F9D3FFF73A
:10570000B5FF00F011F8FFF703FF7047000002201B
:105710006C63000800000020040100200401002048
:10572000AC3F0020FEE7000070B50D4E0D4CA41BF1
:10573000A4100025A54209D10B4E0C4C00F080F8B6
:10574000A41BA4100025A54205D170BD56F8253034
:1057500098470135EEE756F8253098470135F2E7CE
:1057600064630008646300086463000868630008F9
:1057700010B5431E0A44914200D110BD11F8014BEF
:1057800003F8014FF7E708B5062000F02BF80120D9
:1057900000F054F81F2938B504460D4604D91623E5
:1057A00003604FF0FF3038BD426C12B152F8213027
:1057B0004BB9204600F030F82A4601462046BDE8A5
:1057C000384000F017B8012B0AD0591C03D116231A
:1057D0000360012038BD002442F825402846984740
:1057E000002038BD024B01461868FFF7D3BF00BF49
:1057F0001000002038B5074C002305460846114626
:10580000236000F013F8431C02D1236803B12B601E
:1058100038BD00BFA83F002000F000B8024B58225E
:105820001A604FF0FF307047A83F0020024B58220B
:105830001A604FF0FF307047A83F0020FEE70000DD
:10584000F8B500BFF8BC08BC9E467047F8B500BF6D
:08585000F8BC08BC9E4670473D
:105858002E2E5C5372635C4C696272617269657367
:105868005C506F7A79785F636F72652E6370700031
:1058780072656746756E6374696F6E002E2E5C5391
:1058880072635C4C69627261726965735C506F7AAD
:1058980079785F6C69622E63707000004572726F70
:1058A800723A20636F756C64206E6F7420636F6E3C
:1058B8006E65637420776974682074686520506F1A
:1058C8007A797820646576696365000000000000D5
:1058D8004572726F7220307830313A204572726F9B
:1058E800722077726974696E6720746F2061207204
:1058F80065676973746572207468726F756768206C
:105908007468652049324320627573004572726F6E
:105918007220307830323A20506F7A79782063617B
:105928006E6E6F742068616E646C6520616C6C20AB
:105938007468652049324320636F6D6D616E6473CE
:10594800206174206F6E6365000000004572726FFD
:105958007220307830333A2043616E6E6F74206164
:10596800646420616E63686F7220746F2074686568
:1059780020696E7465726E616C2064657669636512
:10598800206C6973740000004572726F7220307861
:1059980030343A20436F6D6D756E69636174696F59
:1059A8006E2071756575652069732066756C6C2C41
:1059B80020746F6F206D616E7920555742206D6598
:1059C80073736167657300004572726F7220307877
:1059D80030353A204572726F722072656164696E63
:1059E800672066726F6D20612072656769737465E0
:1059F800722066726F6D2074686520493243206298
:105A0800757300004572726F7220307830363A2014
:105A180043616E6E6F74206368616E676520746899
:105A2800652055574220636F6E66696775726174A9
:105A3800696F6E004572726F7220307830373A2085
:105A4800506F7A79782063616E6E6F742068616E2A
:105A5800646C6520616C6C20746865206F70657279
:105A68006174696F6E73206174206F6E63650000E6
:105A78004572726F7220307830383A20496E7465FA
:105A8800726E616C20627573206572726F720000AD
:105A98004572726F7220307830393A20466C6173E3
:105AA80068206D656D6F727920697320636F7272FB
:105AB8007570746564206F7220696E76616C6964B4
:105AC800000000004572726F7220307830413A2031
